{
  "contractName": "ERC721ComposableRegistry",
  "abi": [
    {
      "constant": false,
      "inputs": [
        {
          "name": "",
          "type": "address"
        },
        {
          "name": "whichTokenId",
          "type": "uint256"
        },
        {
          "name": "to",
          "type": "bytes"
        }
      ],
      "name": "onERC721Received",
      "outputs": [
        {
          "name": "",
          "type": "bytes4"
        }
      ],
      "payable": false,
      "stateMutability": "nonpayable",
      "type": "function"
    },
    {
      "constant": false,
      "inputs": [
        {
          "name": "toErc721",
          "type": "address"
        },
        {
          "name": "toTokenId",
          "type": "uint256"
        },
        {
          "name": "whichErc721",
          "type": "address"
        },
        {
          "name": "whichTokenId",
          "type": "uint256"
        }
      ],
      "name": "transfer",
      "outputs": [],
      "payable": false,
      "stateMutability": "nonpayable",
      "type": "function"
    },
    {
      "constant": false,
      "inputs": [
        {
          "name": "toErc721",
          "type": "address"
        },
        {
          "name": "toTokenId",
          "type": "uint256"
        },
        {
          "name": "whichErc721s",
          "type": "address[]"
        },
        {
          "name": "whichTokenIds",
          "type": "uint256[]"
        }
      ],
      "name": "multiTransfer",
      "outputs": [],
      "payable": false,
      "stateMutability": "nonpayable",
      "type": "function"
    },
    {
      "constant": false,
      "inputs": [
        {
          "name": "to",
          "type": "address"
        },
        {
          "name": "whichErc721",
          "type": "address"
        },
        {
          "name": "whichTokenId",
          "type": "uint256"
        }
      ],
      "name": "transferToAddress",
      "outputs": [],
      "payable": false,
      "stateMutability": "nonpayable",
      "type": "function"
    },
    {
      "constant": false,
      "inputs": [
        {
          "name": "to",
          "type": "address"
        },
        {
          "name": "whichErc721s",
          "type": "address[]"
        },
        {
          "name": "whichTokenIds",
          "type": "uint256[]"
        }
      ],
      "name": "multiTransferToAddress",
      "outputs": [],
      "payable": false,
      "stateMutability": "nonpayable",
      "type": "function"
    },
    {
      "constant": true,
      "inputs": [
        {
          "name": "erc721",
          "type": "address"
        },
        {
          "name": "tokenId",
          "type": "uint256"
        }
      ],
      "name": "ownerOf",
      "outputs": [
        {
          "name": "",
          "type": "address"
        }
      ],
      "payable": false,
      "stateMutability": "view",
      "type": "function"
    },
    {
      "constant": true,
      "inputs": [
        {
          "name": "erc721",
          "type": "address"
        },
        {
          "name": "tokenId",
          "type": "uint256"
        }
      ],
      "name": "parentOf",
      "outputs": [
        {
          "name": "",
          "type": "address"
        },
        {
          "name": "",
          "type": "uint256"
        }
      ],
      "payable": false,
      "stateMutability": "view",
      "type": "function"
    },
    {
      "constant": true,
      "inputs": [
        {
          "name": "erc721",
          "type": "address"
        },
        {
          "name": "tokenId",
          "type": "uint256"
        }
      ],
      "name": "children",
      "outputs": [
        {
          "name": "",
          "type": "address[]"
        },
        {
          "name": "",
          "type": "uint256[]"
        }
      ],
      "payable": false,
      "stateMutability": "view",
      "type": "function"
    }
  ],
  "bytecode": "0x608060405234801561001057600080fd5b50611ce6806100206000396000f30060806040526004361061008e576000357c0100000000000000000000000000000000000000000000000000000000900463ffffffff1680631f29d2dc1461009357806323dc210f14610120578063335a94061461018d578063424ab946146102045780634e7c080f146102cd5780634e94f499146103a0578063be5eabca1461048a578063f0b9e5ba1461051e575b600080fd5b34801561009f57600080fd5b506100de600480360381019080803573ffffffffffffffffffffffffffffffffffffffff16906020019092919080359060200190929190505050610603565b604051808273ffffffffffffffffffffffffffffffffffffffff1673ffffffffffffffffffffffffffffffffffffffff16815260200191505060405180910390f35b34801561012c57600080fd5b5061018b600480360381019080803573ffffffffffffffffffffffffffffffffffffffff169060200190929190803573ffffffffffffffffffffffffffffffffffffffff16906020019092919080359060200190929190505050610886565b005b34801561019957600080fd5b50610202600480360381019080803573ffffffffffffffffffffffffffffffffffffffff16906020019092919080359060200190929190803573ffffffffffffffffffffffffffffffffffffffff169060200190929190803590602001909291905050506109b8565b005b34801561021057600080fd5b506102cb600480360381019080803573ffffffffffffffffffffffffffffffffffffffff1690602001909291908035906020019082018035906020019080806020026020016040519081016040528093929190818152602001838360200280828437820191505050505050919291929080359060200190820180359060200190808060200260200160405190810160405280939291908181526020018383602002808284378201915050505050509192919290505050610a43565b005b3480156102d957600080fd5b5061039e600480360381019080803573ffffffffffffffffffffffffffffffffffffffff169060200190929190803590602001909291908035906020019082018035906020019080806020026020016040519081016040528093929190818152602001838360200280828437820191505050505050919291929080359060200190820180359060200190808060200260200160405190810160405280939291908181526020018383602002808284378201915050505050509192919290505050610c78565b005b3480156103ac57600080fd5b506103eb600480360381019080803573ffffffffffffffffffffffffffffffffffffffff16906020019092919080359060200190929190505050610e07565b604051808060200180602001838103835285818151815260200191508051906020019060200280838360005b83811015610432578082015181840152602081019050610417565b50505050905001838103825284818151815260200191508051906020019060200280838360005b83811015610474578082015181840152602081019050610459565b5050505090500194505050505060405180910390f35b34801561049657600080fd5b506104d5600480360381019080803573ffffffffffffffffffffffffffffffffffffffff16906020019092919080359060200190929190505050611049565b604051808373ffffffffffffffffffffffffffffffffffffffff1673ffffffffffffffffffffffffffffffffffffffff1681526020018281526020019250505060405180910390f35b34801561052a57600080fd5b506105af600480360381019080803573ffffffffffffffffffffffffffffffffffffffff16906020019092919080359060200190929190803590602001908201803590602001908080601f0160208091040260200160405190810160405280939291908181526020018383808284378201915050505050509192919290505050611166565b60405180827bffffffffffffffffffffffffffffffffffffffffffffffffffffffff19167bffffffffffffffffffffffffffffffffffffffffffffffffffffffff1916815260200191505060405180910390f35b600061060d611c0a565b6000808573ffffffffffffffffffffffffffffffffffffffff1673ffffffffffffffffffffffffffffffffffffffff16815260200190815260200160002060008481526020019081526020016000206040805190810160405290816000820160009054906101000a900473ffffffffffffffffffffffffffffffffffffffff1673ffffffffffffffffffffffffffffffffffffffff1673ffffffffffffffffffffffffffffffffffffffff16815260200160018201548152505090505b600073ffffffffffffffffffffffffffffffffffffffff16816000015173ffffffffffffffffffffffffffffffffffffffff161415156107d35780600001519350806020015192506000808573ffffffffffffffffffffffffffffffffffffffff1673ffffffffffffffffffffffffffffffffffffffff16815260200190815260200160002060008481526020019081526020016000206040805190810160405290816000820160009054906101000a900473ffffffffffffffffffffffffffffffffffffffff1673ffffffffffffffffffffffffffffffffffffffff1673ffffffffffffffffffffffffffffffffffffffff16815260200160018201548152505090506106ca565b8373ffffffffffffffffffffffffffffffffffffffff16636352211e846040518263ffffffff167c010000000000000000000000000000000000000000000000000000000002815260040180828152602001915050602060405180830381600087803b15801561084257600080fd5b505af1158015610856573d6000803e3d6000fd5b505050506040513d602081101561086c57600080fd5b810190808051906020019092919050505091505092915050565b3373ffffffffffffffffffffffffffffffffffffffff166108a78383610603565b73ffffffffffffffffffffffffffffffffffffffff161415156108c957600080fd5b6108d4838383611239565b6108de8282611478565b6000808373ffffffffffffffffffffffffffffffffffffffff1673ffffffffffffffffffffffffffffffffffffffff1681526020019081526020016000206000828152602001908152602001600020600080820160006101000a81549073ffffffffffffffffffffffffffffffffffffffff021916905560018201600090555050600260008373ffffffffffffffffffffffffffffffffffffffff1673ffffffffffffffffffffffffffffffffffffffff168152602001908152602001600020600082815260200190815260200160002060009055505050565b3373ffffffffffffffffffffffffffffffffffffffff166109d98383610603565b73ffffffffffffffffffffffffffffffffffffffff161415156109fb57600080fd5b610a058484611705565b1515610a1057600080fd5b610a1c848484846117d2565b610a27308383611239565b610a318282611478565b610a3d8484848461192d565b50505050565b60008090505b8251811015610c72573373ffffffffffffffffffffffffffffffffffffffff16610aa18483815181101515610a7a57fe5b906020019060200201518484815181101515610a9257fe5b90602001906020020151610603565b73ffffffffffffffffffffffffffffffffffffffff16141515610ac357600080fd5b610afc848483815181101515610ad557fe5b906020019060200201518484815181101515610aed57fe5b90602001906020020151611239565b610b348382815181101515610b0d57fe5b906020019060200201518383815181101515610b2557fe5b90602001906020020151611478565b6000808483815181101515610b4557fe5b9060200190602002015173ffffffffffffffffffffffffffffffffffffffff1673ffffffffffffffffffffffffffffffffffffffff16815260200190815260200160002060008383815181101515610b9957fe5b906020019060200201518152602001908152602001600020600080820160006101000a81549073ffffffffffffffffffffffffffffffffffffffff021916905560018201600090555050600260008483815181101515610bf557fe5b9060200190602002015173ffffffffffffffffffffffffffffffffffffffff1673ffffffffffffffffffffffffffffffffffffffff16815260200190815260200160002060008383815181101515610c4957fe5b906020019060200201518152602001908152602001600020600090558080600101915050610a49565b50505050565b6000610c848585611705565b1515610c8f57600080fd5b600090505b8251811015610e00573373ffffffffffffffffffffffffffffffffffffffff16610cec8483815181101515610cc557fe5b906020019060200201518484815181101515610cdd57fe5b90602001906020020151610603565b73ffffffffffffffffffffffffffffffffffffffff16141515610d0e57600080fd5b610d4885858584815181101515610d2157fe5b906020019060200201518585815181101515610d3957fe5b906020019060200201516117d2565b610d81308483815181101515610d5a57fe5b906020019060200201518484815181101515610d7257fe5b90602001906020020151611239565b610db98382815181101515610d9257fe5b906020019060200201518383815181101515610daa57fe5b90602001906020020151611478565b610df385858584815181101515610dcc57fe5b906020019060200201518585815181101515610de457fe5b9060200190602002015161192d565b8080600101915050610c94565b5050505050565b60608060608060606000600160008973ffffffffffffffffffffffffffffffffffffffff1673ffffffffffffffffffffffffffffffffffffffff1681526020019081526020016000206000888152602001908152602001600020805480602002602001604051908101604052809291908181526020016000905b82821015610f1357838290600052602060002090600202016040805190810160405290816000820160009054906101000a900473ffffffffffffffffffffffffffffffffffffffff1673ffffffffffffffffffffffffffffffffffffffff1673ffffffffffffffffffffffffffffffffffffffff16815260200160018201548152505081526020019060010190610e81565b5050505093508351604051908082528060200260200182016040528015610f495781602001602082028038833980820191505090505b5092508351604051908082528060200260200182016040528015610f7c5781602001602082028038833980820191505090505b509150600090505b8351811015611038578381815181101515610f9b57fe5b90602001906020020151600001518382815181101515610fb757fe5b9060200190602002019073ffffffffffffffffffffffffffffffffffffffff16908173ffffffffffffffffffffffffffffffffffffffff1681525050838181518110151561100157fe5b9060200190602002015160200151828281518110151561101d57fe5b90602001906020020181815250508080600101915050610f84565b828295509550505050509250929050565b600080611054611c0a565b6000808673ffffffffffffffffffffffffffffffffffffffff1673ffffffffffffffffffffffffffffffffffffffff16815260200190815260200160002060008581526020019081526020016000206040805190810160405290816000820160009054906101000a900473ffffffffffffffffffffffffffffffffffffffff1673ffffffffffffffffffffffffffffffffffffffff1673ffffffffffffffffffffffffffffffffffffffff1681526020016001820154815250509050600073ffffffffffffffffffffffffffffffffffffffff16816000015173ffffffffffffffffffffffffffffffffffffffff161415151561115057600080fd5b8060000151816020015192509250509250929050565b6000806000806040855114151561117c57600080fd5b3392503073ffffffffffffffffffffffffffffffffffffffff166111a08488610603565b73ffffffffffffffffffffffffffffffffffffffff161415156111c257600080fd5b6111cd856000611b57565b91506111da856020611b57565b90506111e68282611705565b15156111f157600080fd5b6111fd828285896117d2565b6112098282858961192d565b63f0b9e5ba7c01000000000000000000000000000000000000000000000000000000000293505050509392505050565b60008273ffffffffffffffffffffffffffffffffffffffff16636352211e836040518263ffffffff167c010000000000000000000000000000000000000000000000000000000002815260040180828152602001915050602060405180830381600087803b1580156112aa57600080fd5b505af11580156112be573d6000803e3d6000fd5b505050506040513d60208110156112d457600080fd5b810190808051906020019092919050505090508273ffffffffffffffffffffffffffffffffffffffff1663095ea7b330846040518363ffffffff167c0100000000000000000000000000000000000000000000000000000000028152600401808373ffffffffffffffffffffffffffffffffffffffff1673ffffffffffffffffffffffffffffffffffffffff168152602001828152602001925050506000604051808303816000875af192505050508273ffffffffffffffffffffffffffffffffffffffff166323b872dd8286856040518463ffffffff167c0100000000000000000000000000000000000000000000000000000000028152600401808473ffffffffffffffffffffffffffffffffffffffff1673ffffffffffffffffffffffffffffffffffffffff1681526020018373ffffffffffffffffffffffffffffffffffffffff1673ffffffffffffffffffffffffffffffffffffffff1681526020018281526020019350505050600060405180830381600087803b15801561145a57600080fd5b505af115801561146e573d6000803e3d6000fd5b5050505050505050565b611480611c0a565b60008060008060008773ffffffffffffffffffffffffffffffffffffffff1673ffffffffffffffffffffffffffffffffffffffff16815260200190815260200160002060008681526020019081526020016000206040805190810160405290816000820160009054906101000a900473ffffffffffffffffffffffffffffffffffffffff1673ffffffffffffffffffffffffffffffffffffffff1673ffffffffffffffffffffffffffffffffffffffff1681526020016001820154815250509350600073ffffffffffffffffffffffffffffffffffffffff16846000015173ffffffffffffffffffffffffffffffffffffffff161415156116fd5760016000856000015173ffffffffffffffffffffffffffffffffffffffff1673ffffffffffffffffffffffffffffffffffffffff1681526020019081526020016000206000856020015181526020019081526020016000209250600260008773ffffffffffffffffffffffffffffffffffffffff1673ffffffffffffffffffffffffffffffffffffffff168152602001908152602001600020600086815260200190815260200160002054915060018380549050039050808210156116e757828181548110151561164857fe5b9060005260206000209060020201838381548110151561166457fe5b90600052602060002090600202016000820160009054906101000a900473ffffffffffffffffffffffffffffffffffffffff168160000160006101000a81548173ffffffffffffffffffffffffffffffffffffffff021916908373ffffffffffffffffffffffffffffffffffffffff160217905550600182015481600101559050505b828054809190600190036116fb9190611c3a565b505b505050505050565b6000808373ffffffffffffffffffffffffffffffffffffffff16636352211e846040518263ffffffff167c010000000000000000000000000000000000000000000000000000000002815260040180828152602001915050602060405180830381600087803b15801561177757600080fd5b505af115801561178b573d6000803e3d6000fd5b505050506040513d60208110156117a157600080fd5b810190808051906020019092919050505073ffffffffffffffffffffffffffffffffffffffff161415905092915050565b6117da611c0a565b5b8273ffffffffffffffffffffffffffffffffffffffff168573ffffffffffffffffffffffffffffffffffffffff161415806118165750818414155b151561182157600080fd5b6000808673ffffffffffffffffffffffffffffffffffffffff1673ffffffffffffffffffffffffffffffffffffffff16815260200190815260200160002060008581526020019081526020016000206040805190810160405290816000820160009054906101000a900473ffffffffffffffffffffffffffffffffffffffff1673ffffffffffffffffffffffffffffffffffffffff1673ffffffffffffffffffffffffffffffffffffffff16815260200160018201548152505090508060000151945080602001519350600073ffffffffffffffffffffffffffffffffffffffff168573ffffffffffffffffffffffffffffffffffffffff16141515611926576117db565b5050505050565b600060408051908101604052808673ffffffffffffffffffffffffffffffffffffffff168152602001858152506000808573ffffffffffffffffffffffffffffffffffffffff1673ffffffffffffffffffffffffffffffffffffffff168152602001908152602001600020600084815260200190815260200160002060008201518160000160006101000a81548173ffffffffffffffffffffffffffffffffffffffff021916908373ffffffffffffffffffffffffffffffffffffffff16021790555060208201518160010155905050600160008673ffffffffffffffffffffffffffffffffffffffff1673ffffffffffffffffffffffffffffffffffffffff168152602001908152602001600020600085815260200190815260200160002060408051908101604052808573ffffffffffffffffffffffffffffffffffffffff168152602001848152509080600181540180825580915050906001820390600052602060002090600202016000909192909190915060008201518160000160006101000a81548173ffffffffffffffffffffffffffffffffffffffff021916908373ffffffffffffffffffffffffffffffffffffffff160217905550602082015181600101555050905060018103600260008573ffffffffffffffffffffffffffffffffffffffff1673ffffffffffffffffffffffffffffffffffffffff1681526020019081526020016000206000848152602001908152602001600020819055505050505050565b60008060008390505b60208401811015611bff57610100820291508481815181101515611b8057fe5b9060200101517f010000000000000000000000000000000000000000000000000000000000000090047f0100000000000000000000000000000000000000000000000000000000000000027f01000000000000000000000000000000000000000000000000000000000000009004820191508080600101915050611b60565b819250505092915050565b6040805190810160405280600073ffffffffffffffffffffffffffffffffffffffff168152602001600081525090565b815481835581811115611c6757600202816002028360005260206000209182019101611c669190611c6c565b5b505050565b611cb791905b80821115611cb357600080820160006101000a81549073ffffffffffffffffffffffffffffffffffffffff0219169055600182016000905550600201611c72565b5090565b905600a165627a7a723058205713afa436bc218c6f59265ea321c0155a5861501de651cd7568e756f01c839a0029",
  "source": "pragma solidity ^0.4.23;\n\nimport \"openzeppelin-zos/contracts/token/ERC721/ERC721Token.sol\";\n\ncontract ERC721ComposableRegistry {\n\n    mapping (address => mapping (uint => TokenIdentifier)) childToParent;\n    mapping (address => mapping (uint => TokenIdentifier[])) parentToChildren;\n    mapping (address => mapping (uint => uint)) childToIndexInParentToChildren;\n\n    struct TokenIdentifier {\n        ERC721 erc721;\n        uint tokenId;\n    }\n\n    function onERC721Received(address /* from */, uint whichTokenId, bytes to) public returns (bytes4) {\n        require(to.length == 64);\n        ERC721 whichErc721 = ERC721(msg.sender);\n        require(ownerOf(whichErc721, whichTokenId) == address(this));\n        ERC721 toErc721 = ERC721(address(bytesToUint(to, 0)));\n        uint toTokenId = bytesToUint(to, 32);\n        require(exists(toErc721, toTokenId));\n        requireNoCircularDependency(toErc721, toTokenId, whichErc721, whichTokenId);\n        add(toErc721, toTokenId, whichErc721, whichTokenId);\n        return 0xf0b9e5ba;\n    }\n\n    function bytesToUint(bytes b, uint index) private pure returns (uint) {\n        uint ret;\n        for (uint i = index; i < index + 32; i++) {\n            ret *= 256;\n            ret += uint(b[i]);\n        }\n        return ret;\n    }\n\n    function transfer(ERC721 toErc721, uint toTokenId, ERC721 whichErc721, uint whichTokenId) public {\n        require(ownerOf(whichErc721, whichTokenId) == msg.sender);\n        require(exists(toErc721, toTokenId));\n        requireNoCircularDependency(toErc721, toTokenId, whichErc721, whichTokenId);\n        transferImpl(this, whichErc721, whichTokenId);\n        removeFromParentToChildren(whichErc721, whichTokenId);\n        add(toErc721, toTokenId, whichErc721, whichTokenId);\n    }\n\n    function multiTransfer(ERC721 toErc721, uint toTokenId, ERC721[] whichErc721s, uint[] whichTokenIds) public {\n        require(exists(toErc721, toTokenId));\n        for (uint i = 0; i < whichErc721s.length; i++) {\n            require(ownerOf(whichErc721s[i], whichTokenIds[i]) == msg.sender);\n            requireNoCircularDependency(toErc721, toTokenId, whichErc721s[i], whichTokenIds[i]);\n            transferImpl(this, whichErc721s[i], whichTokenIds[i]);\n            removeFromParentToChildren(whichErc721s[i], whichTokenIds[i]);\n            add(toErc721, toTokenId, whichErc721s[i], whichTokenIds[i]);\n        }\n    }\n\n    function exists(ERC721 erc721, uint tokenId) private view returns (bool) {\n        return erc721.ownerOf(tokenId) != 0;\n    }\n\n    function requireNoCircularDependency(ERC721 toErc721, uint toTokenId, ERC721 whichErc721, uint whichTokenId) private view {\n        do {\n            require(toErc721 != whichErc721 || toTokenId != whichTokenId);\n            TokenIdentifier memory parent = childToParent[toErc721][toTokenId];\n            toErc721 = parent.erc721;\n            toTokenId = parent.tokenId;\n        } while (toErc721 != ERC721(0));\n    }\n\n    function add(ERC721 toErc721, uint toTokenId, ERC721 whichErc721, uint whichTokenId) private {\n        childToParent[whichErc721][whichTokenId] = TokenIdentifier(toErc721, toTokenId);\n        uint length = parentToChildren[toErc721][toTokenId].push(TokenIdentifier(whichErc721, whichTokenId));\n        childToIndexInParentToChildren[whichErc721][whichTokenId] = length - 1;\n    }\n\n    function transferToAddress(address to, ERC721 whichErc721, uint whichTokenId) public {\n        require(ownerOf(whichErc721, whichTokenId) == msg.sender);\n        transferImpl(to, whichErc721, whichTokenId);\n        removeFromParentToChildren(whichErc721, whichTokenId);\n        delete childToParent[whichErc721][whichTokenId];\n        delete childToIndexInParentToChildren[whichErc721][whichTokenId];\n    }\n\n    function multiTransferToAddress(address to, ERC721[] whichErc721s, uint[] whichTokenIds) public {\n        for (uint i = 0; i < whichErc721s.length; i++) {\n            require(ownerOf(whichErc721s[i], whichTokenIds[i]) == msg.sender);\n            transferImpl(to, whichErc721s[i], whichTokenIds[i]);\n            removeFromParentToChildren(whichErc721s[i], whichTokenIds[i]);\n            delete childToParent[whichErc721s[i]][whichTokenIds[i]];\n            delete childToIndexInParentToChildren[whichErc721s[i]][whichTokenIds[i]];\n        }\n    }\n\n    function transferImpl(address to, ERC721 whichErc721, uint whichTokenId) private {\n        address ownerOfWhichByErc721 = whichErc721.ownerOf(whichTokenId);\n        address(whichErc721).call(/* approve(address,uint256) */ 0x095ea7b3, this, whichTokenId);\n        whichErc721.transferFrom(ownerOfWhichByErc721, to, whichTokenId);\n    }\n\n    function removeFromParentToChildren(ERC721 whichErc721, uint whichTokenId) private {\n        TokenIdentifier memory parent = childToParent[whichErc721][whichTokenId];\n        if (parent.erc721 != ERC721(0)) {\n            TokenIdentifier[] storage c = parentToChildren[parent.erc721][parent.tokenId];\n            uint index = childToIndexInParentToChildren[whichErc721][whichTokenId];\n            uint last = c.length - 1;\n            if (index < last) {\n                c[index] = c[last];\n            }\n            c.length--;\n        }\n    }\n\n    function ownerOf(ERC721 erc721, uint tokenId) public view returns (address) {\n        TokenIdentifier memory parent = childToParent[erc721][tokenId];\n        while (parent.erc721 != ERC721(0)) {\n            erc721 = parent.erc721;\n            tokenId = parent.tokenId;\n            parent = childToParent[erc721][tokenId];\n        }\n        return erc721.ownerOf(tokenId);\n    }\n\n    function parentOf(ERC721 erc721, uint tokenId) public view returns (ERC721, uint) {\n        TokenIdentifier memory parent = childToParent[erc721][tokenId];\n        require(parent.erc721 != ERC721(0));\n        return (parent.erc721, parent.tokenId);\n    }\n\n    function children(ERC721 erc721, uint tokenId) public view returns (ERC721[], uint[]) {\n        TokenIdentifier[] memory c = parentToChildren[erc721][tokenId];\n        ERC721[] memory erc721s = new ERC721[](c.length);\n        uint[] memory tokenIds = new uint[](c.length);\n        for (uint i = 0; i < c.length; i++) {\n            erc721s[i] = c[i].erc721;\n            tokenIds[i] = c[i].tokenId;\n        }\n        return (erc721s, tokenIds);\n    }\n}",
  "sourcePath": "/home/kghost0/workspace/skills/contracts/ERC721ComposableRegistry.sol",
  "compiler": {
    "name": "solc",
    "version": "0.4.24+commit.e67f0147.Emscripten.clang"
  },
  "schemaVersion": "2.0.0",
  "updatedAt": "2018-05-26T23:31:34.683Z"
}