{
  "contractName": "ERC721ComposableRegistry",
  "abi": [
    {
      "constant": false,
      "inputs": [
        {
          "name": "",
          "type": "address"
        },
        {
          "name": "whichTokenId",
          "type": "uint256"
        },
        {
          "name": "to",
          "type": "bytes"
        }
      ],
      "name": "onERC721Received",
      "outputs": [
        {
          "name": "",
          "type": "bytes4"
        }
      ],
      "payable": false,
      "stateMutability": "nonpayable",
      "type": "function"
    },
    {
      "constant": false,
      "inputs": [
        {
          "name": "toErc721",
          "type": "address"
        },
        {
          "name": "toTokenId",
          "type": "uint256"
        },
        {
          "name": "whichErc721",
          "type": "address"
        },
        {
          "name": "whichTokenId",
          "type": "uint256"
        }
      ],
      "name": "transfer",
      "outputs": [],
      "payable": false,
      "stateMutability": "nonpayable",
      "type": "function"
    },
    {
      "constant": false,
      "inputs": [
        {
          "name": "toErc721",
          "type": "address"
        },
        {
          "name": "toTokenId",
          "type": "uint256"
        },
        {
          "name": "whichErc721s",
          "type": "address[]"
        },
        {
          "name": "whichTokenIds",
          "type": "uint256[]"
        }
      ],
      "name": "multiTransfer",
      "outputs": [],
      "payable": false,
      "stateMutability": "nonpayable",
      "type": "function"
    },
    {
      "constant": false,
      "inputs": [
        {
          "name": "to",
          "type": "address"
        },
        {
          "name": "whichErc721",
          "type": "address"
        },
        {
          "name": "whichTokenId",
          "type": "uint256"
        }
      ],
      "name": "transferToAddress",
      "outputs": [],
      "payable": false,
      "stateMutability": "nonpayable",
      "type": "function"
    },
    {
      "constant": false,
      "inputs": [
        {
          "name": "to",
          "type": "address"
        },
        {
          "name": "whichErc721s",
          "type": "address[]"
        },
        {
          "name": "whichTokenIds",
          "type": "uint256[]"
        }
      ],
      "name": "multiTransferToAddress",
      "outputs": [],
      "payable": false,
      "stateMutability": "nonpayable",
      "type": "function"
    },
    {
      "constant": true,
      "inputs": [
        {
          "name": "erc721",
          "type": "address"
        },
        {
          "name": "tokenId",
          "type": "uint256"
        }
      ],
      "name": "ownerOf",
      "outputs": [
        {
          "name": "",
          "type": "address"
        }
      ],
      "payable": false,
      "stateMutability": "view",
      "type": "function"
    },
    {
      "constant": true,
      "inputs": [
        {
          "name": "erc721",
          "type": "address"
        },
        {
          "name": "tokenId",
          "type": "uint256"
        }
      ],
      "name": "children",
      "outputs": [
        {
          "name": "",
          "type": "address[]"
        },
        {
          "name": "",
          "type": "uint256[]"
        }
      ],
      "payable": false,
      "stateMutability": "view",
      "type": "function"
    }
  ],
  "bytecode": "0x608060405234801561001057600080fd5b50611b2a806100206000396000f300608060405260043610610083576000357c0100000000000000000000000000000000000000000000000000000000900463ffffffff1680631f29d2dc1461008857806323dc210f14610115578063335a940614610182578063424ab946146101f95780634e7c080f146102c25780634e94f49914610395578063f0b9e5ba1461047f575b600080fd5b34801561009457600080fd5b506100d3600480360381019080803573ffffffffffffffffffffffffffffffffffffffff16906020019092919080359060200190929190505050610564565b604051808273ffffffffffffffffffffffffffffffffffffffff1673ffffffffffffffffffffffffffffffffffffffff16815260200191505060405180910390f35b34801561012157600080fd5b50610180600480360381019080803573ffffffffffffffffffffffffffffffffffffffff169060200190929190803573ffffffffffffffffffffffffffffffffffffffff169060200190929190803590602001909291905050506107e7565b005b34801561018e57600080fd5b506101f7600480360381019080803573ffffffffffffffffffffffffffffffffffffffff16906020019092919080359060200190929190803573ffffffffffffffffffffffffffffffffffffffff16906020019092919080359060200190929190505050610919565b005b34801561020557600080fd5b506102c0600480360381019080803573ffffffffffffffffffffffffffffffffffffffff16906020019092919080359060200190820180359060200190808060200260200160405190810160405280939291908181526020018383602002808284378201915050505050509192919290803590602001908201803590602001908080602002602001604051908101604052809392919081815260200183836020028082843782019150505050505091929192905050506109a4565b005b3480156102ce57600080fd5b50610393600480360381019080803573ffffffffffffffffffffffffffffffffffffffff169060200190929190803590602001909291908035906020019082018035906020019080806020026020016040519081016040528093929190818152602001838360200280828437820191505050505050919291929080359060200190820180359060200190808060200260200160405190810160405280939291908181526020018383602002808284378201915050505050509192919290505050610bd9565b005b3480156103a157600080fd5b506103e0600480360381019080803573ffffffffffffffffffffffffffffffffffffffff16906020019092919080359060200190929190505050610d68565b604051808060200180602001838103835285818151815260200191508051906020019060200280838360005b8381101561042757808201518184015260208101905061040c565b50505050905001838103825284818151815260200191508051906020019060200280838360005b8381101561046957808201518184015260208101905061044e565b5050505090500194505050505060405180910390f35b34801561048b57600080fd5b50610510600480360381019080803573ffffffffffffffffffffffffffffffffffffffff16906020019092919080359060200190929190803590602001908201803590602001908080601f0160208091040260200160405190810160405280939291908181526020018383808284378201915050505050509192919290505050610faa565b60405180827bffffffffffffffffffffffffffffffffffffffffffffffffffffffff19167bffffffffffffffffffffffffffffffffffffffffffffffffffffffff1916815260200191505060405180910390f35b600061056e611a4e565b6000808573ffffffffffffffffffffffffffffffffffffffff1673ffffffffffffffffffffffffffffffffffffffff16815260200190815260200160002060008481526020019081526020016000206040805190810160405290816000820160009054906101000a900473ffffffffffffffffffffffffffffffffffffffff1673ffffffffffffffffffffffffffffffffffffffff1673ffffffffffffffffffffffffffffffffffffffff16815260200160018201548152505090505b600073ffffffffffffffffffffffffffffffffffffffff16816000015173ffffffffffffffffffffffffffffffffffffffff161415156107345780600001519350806020015192506000808573ffffffffffffffffffffffffffffffffffffffff1673ffffffffffffffffffffffffffffffffffffffff16815260200190815260200160002060008481526020019081526020016000206040805190810160405290816000820160009054906101000a900473ffffffffffffffffffffffffffffffffffffffff1673ffffffffffffffffffffffffffffffffffffffff1673ffffffffffffffffffffffffffffffffffffffff168152602001600182015481525050905061062b565b8373ffffffffffffffffffffffffffffffffffffffff16636352211e846040518263ffffffff167c010000000000000000000000000000000000000000000000000000000002815260040180828152602001915050602060405180830381600087803b1580156107a357600080fd5b505af11580156107b7573d6000803e3d6000fd5b505050506040513d60208110156107cd57600080fd5b810190808051906020019092919050505091505092915050565b3373ffffffffffffffffffffffffffffffffffffffff166108088383610564565b73ffffffffffffffffffffffffffffffffffffffff1614151561082a57600080fd5b61083583838361107d565b61083f82826112bc565b6000808373ffffffffffffffffffffffffffffffffffffffff1673ffffffffffffffffffffffffffffffffffffffff1681526020019081526020016000206000828152602001908152602001600020600080820160006101000a81549073ffffffffffffffffffffffffffffffffffffffff021916905560018201600090555050600260008373ffffffffffffffffffffffffffffffffffffffff1673ffffffffffffffffffffffffffffffffffffffff168152602001908152602001600020600082815260200190815260200160002060009055505050565b3373ffffffffffffffffffffffffffffffffffffffff1661093a8383610564565b73ffffffffffffffffffffffffffffffffffffffff1614151561095c57600080fd5b6109668484611549565b151561097157600080fd5b61097d84848484611616565b61098830838361107d565b61099282826112bc565b61099e84848484611771565b50505050565b60008090505b8251811015610bd3573373ffffffffffffffffffffffffffffffffffffffff16610a0284838151811015156109db57fe5b9060200190602002015184848151811015156109f357fe5b90602001906020020151610564565b73ffffffffffffffffffffffffffffffffffffffff16141515610a2457600080fd5b610a5d848483815181101515610a3657fe5b906020019060200201518484815181101515610a4e57fe5b9060200190602002015161107d565b610a958382815181101515610a6e57fe5b906020019060200201518383815181101515610a8657fe5b906020019060200201516112bc565b6000808483815181101515610aa657fe5b9060200190602002015173ffffffffffffffffffffffffffffffffffffffff1673ffffffffffffffffffffffffffffffffffffffff16815260200190815260200160002060008383815181101515610afa57fe5b906020019060200201518152602001908152602001600020600080820160006101000a81549073ffffffffffffffffffffffffffffffffffffffff021916905560018201600090555050600260008483815181101515610b5657fe5b9060200190602002015173ffffffffffffffffffffffffffffffffffffffff1673ffffffffffffffffffffffffffffffffffffffff16815260200190815260200160002060008383815181101515610baa57fe5b9060200190602002015181526020019081526020016000206000905580806001019150506109aa565b50505050565b6000610be58585611549565b1515610bf057600080fd5b600090505b8251811015610d61573373ffffffffffffffffffffffffffffffffffffffff16610c4d8483815181101515610c2657fe5b906020019060200201518484815181101515610c3e57fe5b90602001906020020151610564565b73ffffffffffffffffffffffffffffffffffffffff16141515610c6f57600080fd5b610ca985858584815181101515610c8257fe5b906020019060200201518585815181101515610c9a57fe5b90602001906020020151611616565b610ce2308483815181101515610cbb57fe5b906020019060200201518484815181101515610cd357fe5b9060200190602002015161107d565b610d1a8382815181101515610cf357fe5b906020019060200201518383815181101515610d0b57fe5b906020019060200201516112bc565b610d5485858584815181101515610d2d57fe5b906020019060200201518585815181101515610d4557fe5b90602001906020020151611771565b8080600101915050610bf5565b5050505050565b60608060608060606000600160008973ffffffffffffffffffffffffffffffffffffffff1673ffffffffffffffffffffffffffffffffffffffff1681526020019081526020016000206000888152602001908152602001600020805480602002602001604051908101604052809291908181526020016000905b82821015610e7457838290600052602060002090600202016040805190810160405290816000820160009054906101000a900473ffffffffffffffffffffffffffffffffffffffff1673ffffffffffffffffffffffffffffffffffffffff1673ffffffffffffffffffffffffffffffffffffffff16815260200160018201548152505081526020019060010190610de2565b5050505093508351604051908082528060200260200182016040528015610eaa5781602001602082028038833980820191505090505b5092508351604051908082528060200260200182016040528015610edd5781602001602082028038833980820191505090505b509150600090505b8351811015610f99578381815181101515610efc57fe5b90602001906020020151600001518382815181101515610f1857fe5b9060200190602002019073ffffffffffffffffffffffffffffffffffffffff16908173ffffffffffffffffffffffffffffffffffffffff16815250508381815181101515610f6257fe5b90602001906020020151602001518282815181101515610f7e57fe5b90602001906020020181815250508080600101915050610ee5565b828295509550505050509250929050565b60008060008060408551141515610fc057600080fd5b3392503073ffffffffffffffffffffffffffffffffffffffff16610fe48488610564565b73ffffffffffffffffffffffffffffffffffffffff1614151561100657600080fd5b61101185600061199b565b915061101e85602061199b565b905061102a8282611549565b151561103557600080fd5b61104182828589611616565b61104d82828589611771565b63f0b9e5ba7c01000000000000000000000000000000000000000000000000000000000293505050509392505050565b60008273ffffffffffffffffffffffffffffffffffffffff16636352211e836040518263ffffffff167c010000000000000000000000000000000000000000000000000000000002815260040180828152602001915050602060405180830381600087803b1580156110ee57600080fd5b505af1158015611102573d6000803e3d6000fd5b505050506040513d602081101561111857600080fd5b810190808051906020019092919050505090508273ffffffffffffffffffffffffffffffffffffffff1663095ea7b330846040518363ffffffff167c0100000000000000000000000000000000000000000000000000000000028152600401808373ffffffffffffffffffffffffffffffffffffffff1673ffffffffffffffffffffffffffffffffffffffff168152602001828152602001925050506000604051808303816000875af192505050508273ffffffffffffffffffffffffffffffffffffffff166323b872dd8286856040518463ffffffff167c0100000000000000000000000000000000000000000000000000000000028152600401808473ffffffffffffffffffffffffffffffffffffffff1673ffffffffffffffffffffffffffffffffffffffff1681526020018373ffffffffffffffffffffffffffffffffffffffff1673ffffffffffffffffffffffffffffffffffffffff1681526020018281526020019350505050600060405180830381600087803b15801561129e57600080fd5b505af11580156112b2573d6000803e3d6000fd5b5050505050505050565b6112c4611a4e565b60008060008060008773ffffffffffffffffffffffffffffffffffffffff1673ffffffffffffffffffffffffffffffffffffffff16815260200190815260200160002060008681526020019081526020016000206040805190810160405290816000820160009054906101000a900473ffffffffffffffffffffffffffffffffffffffff1673ffffffffffffffffffffffffffffffffffffffff1673ffffffffffffffffffffffffffffffffffffffff1681526020016001820154815250509350600073ffffffffffffffffffffffffffffffffffffffff16846000015173ffffffffffffffffffffffffffffffffffffffff161415156115415760016000856000015173ffffffffffffffffffffffffffffffffffffffff1673ffffffffffffffffffffffffffffffffffffffff1681526020019081526020016000206000856020015181526020019081526020016000209250600260008773ffffffffffffffffffffffffffffffffffffffff1673ffffffffffffffffffffffffffffffffffffffff1681526020019081526020016000206000868152602001908152602001600020549150600183805490500390508082101561152b57828181548110151561148c57fe5b906000526020600020906002020183838154811015156114a857fe5b90600052602060002090600202016000820160009054906101000a900473ffffffffffffffffffffffffffffffffffffffff168160000160006101000a81548173ffffffffffffffffffffffffffffffffffffffff021916908373ffffffffffffffffffffffffffffffffffffffff160217905550600182015481600101559050505b8280548091906001900361153f9190611a7e565b505b505050505050565b6000808373ffffffffffffffffffffffffffffffffffffffff16636352211e846040518263ffffffff167c010000000000000000000000000000000000000000000000000000000002815260040180828152602001915050602060405180830381600087803b1580156115bb57600080fd5b505af11580156115cf573d6000803e3d6000fd5b505050506040513d60208110156115e557600080fd5b810190808051906020019092919050505073ffffffffffffffffffffffffffffffffffffffff161415905092915050565b61161e611a4e565b5b8273ffffffffffffffffffffffffffffffffffffffff168573ffffffffffffffffffffffffffffffffffffffff1614158061165a5750818414155b151561166557600080fd5b6000808673ffffffffffffffffffffffffffffffffffffffff1673ffffffffffffffffffffffffffffffffffffffff16815260200190815260200160002060008581526020019081526020016000206040805190810160405290816000820160009054906101000a900473ffffffffffffffffffffffffffffffffffffffff1673ffffffffffffffffffffffffffffffffffffffff1673ffffffffffffffffffffffffffffffffffffffff16815260200160018201548152505090508060000151945080602001519350600073ffffffffffffffffffffffffffffffffffffffff168573ffffffffffffffffffffffffffffffffffffffff1614151561176a5761161f565b5050505050565b600060408051908101604052808673ffffffffffffffffffffffffffffffffffffffff168152602001858152506000808573ffffffffffffffffffffffffffffffffffffffff1673ffffffffffffffffffffffffffffffffffffffff168152602001908152602001600020600084815260200190815260200160002060008201518160000160006101000a81548173ffffffffffffffffffffffffffffffffffffffff021916908373ffffffffffffffffffffffffffffffffffffffff16021790555060208201518160010155905050600160008673ffffffffffffffffffffffffffffffffffffffff1673ffffffffffffffffffffffffffffffffffffffff168152602001908152602001600020600085815260200190815260200160002060408051908101604052808573ffffffffffffffffffffffffffffffffffffffff168152602001848152509080600181540180825580915050906001820390600052602060002090600202016000909192909190915060008201518160000160006101000a81548173ffffffffffffffffffffffffffffffffffffffff021916908373ffffffffffffffffffffffffffffffffffffffff160217905550602082015181600101555050905060018103600260008573ffffffffffffffffffffffffffffffffffffffff1673ffffffffffffffffffffffffffffffffffffffff1681526020019081526020016000206000848152602001908152602001600020819055505050505050565b60008060008390505b60208401811015611a43576101008202915084818151811015156119c457fe5b9060200101517f010000000000000000000000000000000000000000000000000000000000000090047f0100000000000000000000000000000000000000000000000000000000000000027f010000000000000000000000000000000000000000000000000000000000000090048201915080806001019150506119a4565b819250505092915050565b6040805190810160405280600073ffffffffffffffffffffffffffffffffffffffff168152602001600081525090565b815481835581811115611aab57600202816002028360005260206000209182019101611aaa9190611ab0565b5b505050565b611afb91905b80821115611af757600080820160006101000a81549073ffffffffffffffffffffffffffffffffffffffff0219169055600182016000905550600201611ab6565b5090565b905600a165627a7a723058204a7bf7626a76267492e820822920d88a714bdb7c120752118d12fda5673a74fd0029",
  "source": "pragma solidity ^0.4.23;\nimport \"zeppelin-solidity/contracts/token/ERC721/ERC721.sol\";\n\ncontract ERC721ComposableRegistry {\n\n    mapping (address => mapping (uint => TokenIdentifier)) childToParent;\n    mapping (address => mapping (uint => TokenIdentifier[])) parentToChildren;\n    mapping (address => mapping (uint => uint)) childToIndexInParentToChildren;\n\n    struct TokenIdentifier {\n        ERC721 erc721;\n        uint tokenId;\n    }\n\n    function onERC721Received(address /* from */, uint whichTokenId, bytes to) public returns (bytes4) {\n        require(to.length == 64);\n        ERC721 whichErc721 = ERC721(msg.sender);\n        require(ownerOf(whichErc721, whichTokenId) == address(this));\n        ERC721 toErc721 = ERC721(address(bytesToUint(to, 0)));\n        uint toTokenId = bytesToUint(to, 32);\n        require(exists(toErc721, toTokenId));\n        requireNoCircularDependency(toErc721, toTokenId, whichErc721, whichTokenId);\n        add(toErc721, toTokenId, whichErc721, whichTokenId);\n        return 0xf0b9e5ba;\n    }\n\n    function bytesToUint(bytes b, uint index) private pure returns (uint) {\n        uint ret;\n        for (uint i = index; i < index + 32; i++) {\n            ret *= 256;\n            ret += uint(b[i]);\n        }\n        return ret;\n    }\n\n    function transfer(ERC721 toErc721, uint toTokenId, ERC721 whichErc721, uint whichTokenId) public {\n        require(ownerOf(whichErc721, whichTokenId) == msg.sender);\n        require(exists(toErc721, toTokenId));\n        requireNoCircularDependency(toErc721, toTokenId, whichErc721, whichTokenId);\n        transferImpl(this, whichErc721, whichTokenId);\n        removeFromParentToChildren(whichErc721, whichTokenId);\n        add(toErc721, toTokenId, whichErc721, whichTokenId);\n    }\n\n    function multiTransfer(ERC721 toErc721, uint toTokenId, ERC721[] whichErc721s, uint[] whichTokenIds) public {\n        require(exists(toErc721, toTokenId));\n        for (uint i = 0; i < whichErc721s.length; i++) {\n            require(ownerOf(whichErc721s[i], whichTokenIds[i]) == msg.sender);\n            requireNoCircularDependency(toErc721, toTokenId, whichErc721s[i], whichTokenIds[i]);\n            transferImpl(this, whichErc721s[i], whichTokenIds[i]);\n            removeFromParentToChildren(whichErc721s[i], whichTokenIds[i]);\n            add(toErc721, toTokenId, whichErc721s[i], whichTokenIds[i]);\n        }\n    }\n\n    function exists(ERC721 erc721, uint tokenId) private view returns (bool) {\n        return erc721.ownerOf(tokenId) != 0;\n    }\n\n    function requireNoCircularDependency(ERC721 toErc721, uint toTokenId, ERC721 whichErc721, uint whichTokenId) private view {\n        do {\n            require(toErc721 != whichErc721 || toTokenId != whichTokenId);\n            TokenIdentifier memory parent = childToParent[toErc721][toTokenId];\n            toErc721 = parent.erc721;\n            toTokenId = parent.tokenId;\n        } while (toErc721 != ERC721(0));\n    }\n\n    function add(ERC721 toErc721, uint toTokenId, ERC721 whichErc721, uint whichTokenId) private {\n        childToParent[whichErc721][whichTokenId] = TokenIdentifier(toErc721, toTokenId);\n        uint length = parentToChildren[toErc721][toTokenId].push(TokenIdentifier(whichErc721, whichTokenId));\n        childToIndexInParentToChildren[whichErc721][whichTokenId] = length - 1;\n    }\n\n    function transferToAddress(address to, ERC721 whichErc721, uint whichTokenId) public {\n        require(ownerOf(whichErc721, whichTokenId) == msg.sender);\n        transferImpl(to, whichErc721, whichTokenId);\n        removeFromParentToChildren(whichErc721, whichTokenId);\n        delete childToParent[whichErc721][whichTokenId];\n        delete childToIndexInParentToChildren[whichErc721][whichTokenId];\n    }\n\n    function multiTransferToAddress(address to, ERC721[] whichErc721s, uint[] whichTokenIds) public {\n        for (uint i = 0; i < whichErc721s.length; i++) {\n            require(ownerOf(whichErc721s[i], whichTokenIds[i]) == msg.sender);\n            transferImpl(to, whichErc721s[i], whichTokenIds[i]);\n            removeFromParentToChildren(whichErc721s[i], whichTokenIds[i]);\n            delete childToParent[whichErc721s[i]][whichTokenIds[i]];\n            delete childToIndexInParentToChildren[whichErc721s[i]][whichTokenIds[i]];\n        }\n    }\n\n    function transferImpl(address to, ERC721 whichErc721, uint whichTokenId) private {\n        address ownerOfWhichByErc721 = whichErc721.ownerOf(whichTokenId);\n        address(whichErc721).call(/* approve(address,uint256) */ 0x095ea7b3, this, whichTokenId);\n        whichErc721.transferFrom(ownerOfWhichByErc721, to, whichTokenId);\n    }\n\n    function removeFromParentToChildren(ERC721 whichErc721, uint whichTokenId) private {\n        TokenIdentifier memory parent = childToParent[whichErc721][whichTokenId];\n        if (parent.erc721 != ERC721(0)) {\n            TokenIdentifier[] storage c = parentToChildren[parent.erc721][parent.tokenId];\n            uint index = childToIndexInParentToChildren[whichErc721][whichTokenId];\n            uint last = c.length - 1;\n            if (index < last) {\n                c[index] = c[last];\n            }\n            c.length--;\n        }\n    }\n\n    function ownerOf(ERC721 erc721, uint tokenId) public view returns (address) {\n        TokenIdentifier memory parent = childToParent[erc721][tokenId];\n        while (parent.erc721 != ERC721(0)) {\n            erc721 = parent.erc721;\n            tokenId = parent.tokenId;\n            parent = childToParent[erc721][tokenId];\n        }\n        return erc721.ownerOf(tokenId);\n    }\n\n    function children(ERC721 erc721, uint tokenId) public view returns (ERC721[], uint[]) {\n        TokenIdentifier[] memory c = parentToChildren[erc721][tokenId];\n        ERC721[] memory erc721s = new ERC721[](c.length);\n        uint[] memory tokenIds = new uint[](c.length);\n        for (uint i = 0; i < c.length; i++) {\n            erc721s[i] = c[i].erc721;\n            tokenIds[i] = c[i].tokenId;\n        }\n        return (erc721s, tokenIds);\n    }\n}",
  "sourcePath": "/home/kghost0/workspace/skills/contracts/ERC721ComposableRegistry.sol",
  "compiler": {
    "name": "solc",
    "version": "0.4.23+commit.124ca40d.Emscripten.clang"
  },
  "schemaVersion": "2.0.0",
  "updatedAt": "2018-05-26T14:41:12.720Z"
}