{
  "contractName": "MarketeX",
  "abi": [
    {
      "constant": true,
      "inputs": [],
      "name": "name",
      "outputs": [
        {
          "name": "",
          "type": "string"
        }
      ],
      "payable": false,
      "stateMutability": "view",
      "type": "function"
    },
    {
      "constant": true,
      "inputs": [
        {
          "name": "_tokenId",
          "type": "uint256"
        }
      ],
      "name": "getApproved",
      "outputs": [
        {
          "name": "",
          "type": "address"
        }
      ],
      "payable": false,
      "stateMutability": "view",
      "type": "function"
    },
    {
      "constant": false,
      "inputs": [
        {
          "name": "_to",
          "type": "address"
        },
        {
          "name": "_tokenId",
          "type": "uint256"
        }
      ],
      "name": "approve",
      "outputs": [],
      "payable": false,
      "stateMutability": "nonpayable",
      "type": "function"
    },
    {
      "constant": true,
      "inputs": [],
      "name": "totalSupply",
      "outputs": [
        {
          "name": "",
          "type": "uint256"
        }
      ],
      "payable": false,
      "stateMutability": "view",
      "type": "function"
    },
    {
      "constant": false,
      "inputs": [
        {
          "name": "_from",
          "type": "address"
        },
        {
          "name": "_to",
          "type": "address"
        },
        {
          "name": "_tokenId",
          "type": "uint256"
        }
      ],
      "name": "transferFrom",
      "outputs": [],
      "payable": false,
      "stateMutability": "nonpayable",
      "type": "function"
    },
    {
      "constant": true,
      "inputs": [
        {
          "name": "_owner",
          "type": "address"
        },
        {
          "name": "_index",
          "type": "uint256"
        }
      ],
      "name": "tokenOfOwnerByIndex",
      "outputs": [
        {
          "name": "",
          "type": "uint256"
        }
      ],
      "payable": false,
      "stateMutability": "view",
      "type": "function"
    },
    {
      "constant": true,
      "inputs": [
        {
          "name": "tokenId",
          "type": "uint256"
        }
      ],
      "name": "getSkillName",
      "outputs": [
        {
          "name": "",
          "type": "string"
        }
      ],
      "payable": false,
      "stateMutability": "view",
      "type": "function"
    },
    {
      "constant": false,
      "inputs": [
        {
          "name": "_from",
          "type": "address"
        },
        {
          "name": "_to",
          "type": "address"
        },
        {
          "name": "_tokenId",
          "type": "uint256"
        }
      ],
      "name": "safeTransferFrom",
      "outputs": [],
      "payable": false,
      "stateMutability": "nonpayable",
      "type": "function"
    },
    {
      "constant": true,
      "inputs": [
        {
          "name": "_tokenId",
          "type": "uint256"
        }
      ],
      "name": "exists",
      "outputs": [
        {
          "name": "",
          "type": "bool"
        }
      ],
      "payable": false,
      "stateMutability": "view",
      "type": "function"
    },
    {
      "constant": true,
      "inputs": [
        {
          "name": "_index",
          "type": "uint256"
        }
      ],
      "name": "tokenByIndex",
      "outputs": [
        {
          "name": "",
          "type": "uint256"
        }
      ],
      "payable": false,
      "stateMutability": "view",
      "type": "function"
    },
    {
      "constant": true,
      "inputs": [
        {
          "name": "_tokenId",
          "type": "uint256"
        }
      ],
      "name": "ownerOf",
      "outputs": [
        {
          "name": "",
          "type": "address"
        }
      ],
      "payable": false,
      "stateMutability": "view",
      "type": "function"
    },
    {
      "constant": true,
      "inputs": [
        {
          "name": "_owner",
          "type": "address"
        }
      ],
      "name": "balanceOf",
      "outputs": [
        {
          "name": "",
          "type": "uint256"
        }
      ],
      "payable": false,
      "stateMutability": "view",
      "type": "function"
    },
    {
      "constant": true,
      "inputs": [],
      "name": "symbol",
      "outputs": [
        {
          "name": "",
          "type": "string"
        }
      ],
      "payable": false,
      "stateMutability": "view",
      "type": "function"
    },
    {
      "constant": false,
      "inputs": [
        {
          "name": "_to",
          "type": "address"
        },
        {
          "name": "_approved",
          "type": "bool"
        }
      ],
      "name": "setApprovalForAll",
      "outputs": [],
      "payable": false,
      "stateMutability": "nonpayable",
      "type": "function"
    },
    {
      "constant": false,
      "inputs": [
        {
          "name": "_from",
          "type": "address"
        },
        {
          "name": "_to",
          "type": "address"
        },
        {
          "name": "_tokenId",
          "type": "uint256"
        },
        {
          "name": "_data",
          "type": "bytes"
        }
      ],
      "name": "safeTransferFrom",
      "outputs": [],
      "payable": false,
      "stateMutability": "nonpayable",
      "type": "function"
    },
    {
      "constant": true,
      "inputs": [
        {
          "name": "contractName",
          "type": "string"
        },
        {
          "name": "migrationId",
          "type": "string"
        }
      ],
      "name": "isMigrated",
      "outputs": [
        {
          "name": "",
          "type": "bool"
        }
      ],
      "payable": false,
      "stateMutability": "view",
      "type": "function"
    },
    {
      "constant": true,
      "inputs": [
        {
          "name": "_tokenId",
          "type": "uint256"
        }
      ],
      "name": "tokenURI",
      "outputs": [
        {
          "name": "",
          "type": "string"
        }
      ],
      "payable": false,
      "stateMutability": "view",
      "type": "function"
    },
    {
      "constant": true,
      "inputs": [
        {
          "name": "tokenId",
          "type": "uint256"
        }
      ],
      "name": "getIpfsHash",
      "outputs": [
        {
          "name": "",
          "type": "string"
        }
      ],
      "payable": false,
      "stateMutability": "view",
      "type": "function"
    },
    {
      "constant": false,
      "inputs": [
        {
          "name": "name",
          "type": "string"
        },
        {
          "name": "ipfsHash",
          "type": "string"
        },
        {
          "name": "toErc721",
          "type": "address"
        },
        {
          "name": "toTokenId",
          "type": "uint256"
        }
      ],
      "name": "createSkill",
      "outputs": [],
      "payable": false,
      "stateMutability": "nonpayable",
      "type": "function"
    },
    {
      "constant": true,
      "inputs": [
        {
          "name": "_owner",
          "type": "address"
        },
        {
          "name": "_operator",
          "type": "address"
        }
      ],
      "name": "isApprovedForAll",
      "outputs": [
        {
          "name": "",
          "type": "bool"
        }
      ],
      "payable": false,
      "stateMutability": "view",
      "type": "function"
    },
    {
      "anonymous": false,
      "inputs": [
        {
          "indexed": false,
          "name": "offerId",
          "type": "uint256"
        },
        {
          "indexed": false,
          "name": "skillId",
          "type": "uint256"
        },
        {
          "indexed": false,
          "name": "price",
          "type": "uint256"
        },
        {
          "indexed": false,
          "name": "teacherErc721",
          "type": "address"
        },
        {
          "indexed": false,
          "name": "teacherTokenId",
          "type": "uint256"
        },
        {
          "indexed": false,
          "name": "skillName",
          "type": "string"
        },
        {
          "indexed": false,
          "name": "generation",
          "type": "uint256"
        }
      ],
      "name": "OfferCreated",
      "type": "event"
    },
    {
      "anonymous": false,
      "inputs": [
        {
          "indexed": false,
          "name": "offerId",
          "type": "uint256"
        }
      ],
      "name": "OfferDeleted",
      "type": "event"
    },
    {
      "anonymous": false,
      "inputs": [
        {
          "indexed": true,
          "name": "_from",
          "type": "address"
        },
        {
          "indexed": true,
          "name": "_to",
          "type": "address"
        },
        {
          "indexed": false,
          "name": "_tokenId",
          "type": "uint256"
        }
      ],
      "name": "Transfer",
      "type": "event"
    },
    {
      "anonymous": false,
      "inputs": [
        {
          "indexed": true,
          "name": "_owner",
          "type": "address"
        },
        {
          "indexed": true,
          "name": "_approved",
          "type": "address"
        },
        {
          "indexed": false,
          "name": "_tokenId",
          "type": "uint256"
        }
      ],
      "name": "Approval",
      "type": "event"
    },
    {
      "anonymous": false,
      "inputs": [
        {
          "indexed": true,
          "name": "_owner",
          "type": "address"
        },
        {
          "indexed": true,
          "name": "_operator",
          "type": "address"
        },
        {
          "indexed": false,
          "name": "_approved",
          "type": "bool"
        }
      ],
      "name": "ApprovalForAll",
      "type": "event"
    },
    {
      "anonymous": false,
      "inputs": [
        {
          "indexed": false,
          "name": "contractName",
          "type": "string"
        },
        {
          "indexed": false,
          "name": "migrationId",
          "type": "string"
        }
      ],
      "name": "Migrated",
      "type": "event"
    },
    {
      "constant": false,
      "inputs": [
        {
          "name": "_name",
          "type": "string"
        },
        {
          "name": "_symbol",
          "type": "string"
        }
      ],
      "name": "initialize",
      "outputs": [],
      "payable": false,
      "stateMutability": "nonpayable",
      "type": "function"
    },
    {
      "constant": false,
      "inputs": [
        {
          "name": "cr",
          "type": "address"
        }
      ],
      "name": "initialize",
      "outputs": [],
      "payable": false,
      "stateMutability": "nonpayable",
      "type": "function"
    },
    {
      "constant": false,
      "inputs": [
        {
          "name": "skillId",
          "type": "uint256"
        },
        {
          "name": "price",
          "type": "uint256"
        }
      ],
      "name": "offerTeach",
      "outputs": [],
      "payable": false,
      "stateMutability": "nonpayable",
      "type": "function"
    },
    {
      "constant": false,
      "inputs": [
        {
          "name": "offerId",
          "type": "uint256"
        }
      ],
      "name": "cancel",
      "outputs": [],
      "payable": false,
      "stateMutability": "nonpayable",
      "type": "function"
    },
    {
      "constant": false,
      "inputs": [
        {
          "name": "offerId",
          "type": "uint256"
        },
        {
          "name": "toErc721",
          "type": "address"
        },
        {
          "name": "toTokenId",
          "type": "uint256"
        }
      ],
      "name": "learn",
      "outputs": [],
      "payable": true,
      "stateMutability": "payable",
      "type": "function"
    },
    {
      "constant": true,
      "inputs": [
        {
          "name": "erc721",
          "type": "address"
        },
        {
          "name": "tokenId",
          "type": "uint256"
        },
        {
          "name": "ipfsHash",
          "type": "string"
        }
      ],
      "name": "hasSkill",
      "outputs": [
        {
          "name": "",
          "type": "bool"
        }
      ],
      "payable": false,
      "stateMutability": "view",
      "type": "function"
    }
  ],
  "bytecode": "0x608060405234801561001057600080fd5b506141e2806100206000396000f300608060405260043610610154576000357c0100000000000000000000000000000000000000000000000000000000900463ffffffff16806306fdde0314610159578063081812fc146101e9578063095ea7b31461025657806318160ddd146102a357806323b872dd146102ce5780632ce3ac811461033b5780632f745c591461038557806335595c95146103e657806340e58ee51461048c57806342842e0e146104b95780634cd88b76146105265780634f558e79146105d55780634f6ccce71461061a57806362051d391461065b5780636352211e1461070657806370a082311461077357806395d89b41146107ca578063a22cb4651461085a578063b88d4fde146108a9578063c0bac1a81461095c578063c4d66de814610a23578063c87b56dd14610a66578063cde3960f14610b0c578063d450fbc914610b43578063e5c365a714610be9578063e985e9c514610cc2575b600080fd5b34801561016557600080fd5b5061016e610d3d565b6040518080602001828103825283818151815260200191508051906020019080838360005b838110156101ae578082015181840152602081019050610193565b50505050905090810190601f1680156101db5780820380516001836020036101000a031916815260200191505b509250505060405180910390f35b3480156101f557600080fd5b5061021460048036038101908080359060200190929190505050610ddf565b604051808273ffffffffffffffffffffffffffffffffffffffff1673ffffffffffffffffffffffffffffffffffffffff16815260200191505060405180910390f35b34801561026257600080fd5b506102a1600480360381019080803573ffffffffffffffffffffffffffffffffffffffff16906020019092919080359060200190929190505050610e1c565b005b3480156102af57600080fd5b506102b8610fe2565b6040518082815260200191505060405180910390f35b3480156102da57600080fd5b50610339600480360381019080803573ffffffffffffffffffffffffffffffffffffffff169060200190929190803573ffffffffffffffffffffffffffffffffffffffff16906020019092919080359060200190929190505050610fef565b005b61038360048036038101908080359060200190929190803573ffffffffffffffffffffffffffffffffffffffff169060200190929190803590602001909291905050506110fe565b005b34801561039157600080fd5b506103d0600480360381019080803573ffffffffffffffffffffffffffffffffffffffff169060200190929190803590602001909291905050506113eb565b6040518082815260200191505060405180910390f35b3480156103f257600080fd5b5061041160048036038101908080359060200190929190505050611462565b6040518080602001828103825283818151815260200191508051906020019080838360005b83811015610451578082015181840152602081019050610436565b50505050905090810190601f16801561047e5780820380516001836020036101000a031916815260200191505b509250505060405180910390f35b34801561049857600080fd5b506104b76004803603810190808035906020019092919050505061152b565b005b3480156104c557600080fd5b50610524600480360381019080803573ffffffffffffffffffffffffffffffffffffffff169060200190929190803573ffffffffffffffffffffffffffffffffffffffff169060200190929190803590602001909291905050506117ec565b005b34801561053257600080fd5b506105d3600480360381019080803590602001908201803590602001908080601f0160208091040260200160405190810160405280939291908181526020018383808284378201915050505050509192919290803590602001908201803590602001908080601f016020809104026020016040519081016040528093929190818152602001838380828437820191505050505050919291929050505061181c565b005b3480156105e157600080fd5b5061060060048036038101908080359060200190929190505050611ac8565b604051808215151515815260200191505060405180910390f35b34801561062657600080fd5b5061064560048036038101908080359060200190929190505050611b3a565b6040518082815260200191505060405180910390f35b34801561066757600080fd5b506106ec600480360381019080803573ffffffffffffffffffffffffffffffffffffffff16906020019092919080359060200190929190803590602001908201803590602001908080601f0160208091040260200160405190810160405280939291908181526020018383808284378201915050505050509192919290505050611b72565b604051808215151515815260200191505060405180910390f35b34801561071257600080fd5b5061073160048036038101908080359060200190929190505050611e9f565b604051808273ffffffffffffffffffffffffffffffffffffffff1673ffffffffffffffffffffffffffffffffffffffff16815260200191505060405180910390f35b34801561077f57600080fd5b506107b4600480360381019080803573ffffffffffffffffffffffffffffffffffffffff169060200190929190505050611f1d565b6040518082815260200191505060405180910390f35b3480156107d657600080fd5b506107df611fa1565b6040518080602001828103825283818151815260200191508051906020019080838360005b8381101561081f578082015181840152602081019050610804565b50505050905090810190601f16801561084c5780820380516001836020036101000a031916815260200191505b509250505060405180910390f35b34801561086657600080fd5b506108a7600480360381019080803573ffffffffffffffffffffffffffffffffffffffff169060200190929190803515159060200190929190505050612043565b005b3480156108b557600080fd5b5061095a600480360381019080803573ffffffffffffffffffffffffffffffffffffffff169060200190929190803573ffffffffffffffffffffffffffffffffffffffff16906020019092919080359060200190929190803590602001908201803590602001908080601f016020809104026020016040519081016040528093929190818152602001838380828437820191505050505050919291929050505061217f565b005b34801561096857600080fd5b50610a09600480360381019080803590602001908201803590602001908080601f0160208091040260200160405190810160405280939291908181526020018383808284378201915050505050509192919290803590602001908201803590602001908080601f01602080910402602001604051908101604052809392919081815260200183838082843782019150505050505091929192905050506121b6565b604051808215151515815260200191505060405180910390f35b348015610a2f57600080fd5b50610a64600480360381019080803573ffffffffffffffffffffffffffffffffffffffff1690602001909291905050506122a1565b005b348015610a7257600080fd5b50610a9160048036038101908080359060200190929190505050612527565b6040518080602001828103825283818151815260200191508051906020019080838360005b83811015610ad1578082015181840152602081019050610ab6565b50505050905090810190601f168015610afe5780820380516001836020036101000a031916815260200191505b509250505060405180910390f35b348015610b1857600080fd5b50610b4160048036038101908080359060200190929190803590602001909291905050506125f0565b005b348015610b4f57600080fd5b50610b6e60048036038101908080359060200190929190505050612a7f565b6040518080602001828103825283818151815260200191508051906020019080838360005b83811015610bae578082015181840152602081019050610b93565b50505050905090810190601f168015610bdb5780820380516001836020036101000a031916815260200191505b509250505060405180910390f35b348015610bf557600080fd5b50610cc0600480360381019080803590602001908201803590602001908080601f0160208091040260200160405190810160405280939291908181526020018383808284378201915050505050509192919290803590602001908201803590602001908080601f0160208091040260200160405190810160405280939291908181526020018383808284378201915050505050509192919290803573ffffffffffffffffffffffffffffffffffffffff16906020019092919080359060200190929190505050612b48565b005b348015610cce57600080fd5b50610d23600480360381019080803573ffffffffffffffffffffffffffffffffffffffff169060200190929190803573ffffffffffffffffffffffffffffffffffffffff169060200190929190505050612e58565b604051808215151515815260200191505060405180910390f35b606060058054600181600116156101000203166002900480601f016020809104026020016040519081016040528092919081815260200182805460018160011615610100020316600290048015610dd55780601f10610daa57610100808354040283529160200191610dd5565b820191906000526020600020905b815481529060010190602001808311610db857829003601f168201915b5050505050905090565b60006002600083815260200190815260200160002060009054906101000a900473ffffffffffffffffffffffffffffffffffffffff169050919050565b6000610e2782611e9f565b90508073ffffffffffffffffffffffffffffffffffffffff168373ffffffffffffffffffffffffffffffffffffffff1614151515610e6457600080fd5b8073ffffffffffffffffffffffffffffffffffffffff163373ffffffffffffffffffffffffffffffffffffffff161480610ea45750610ea38133612e58565b5b1515610eaf57600080fd5b600073ffffffffffffffffffffffffffffffffffffffff16610ed083610ddf565b73ffffffffffffffffffffffffffffffffffffffff16141580610f205750600073ffffffffffffffffffffffffffffffffffffffff168373ffffffffffffffffffffffffffffffffffffffff1614155b15610fdd57826002600084815260200190815260200160002060006101000a81548173ffffffffffffffffffffffffffffffffffffffff021916908373ffffffffffffffffffffffffffffffffffffffff1602179055508273ffffffffffffffffffffffffffffffffffffffff168173ffffffffffffffffffffffffffffffffffffffff167f8c5be1e5ebec7d5bd14f71427d1e84f3dd0314c0f7b2291e5b200ac8c7c3b925846040518082815260200191505060405180910390a35b505050565b6000600980549050905090565b8060001515610ffd57600080fd5b600073ffffffffffffffffffffffffffffffffffffffff168473ffffffffffffffffffffffffffffffffffffffff161415151561103957600080fd5b600073ffffffffffffffffffffffffffffffffffffffff168373ffffffffffffffffffffffffffffffffffffffff161415151561107557600080fd5b61107f8483612eec565b6110898483613055565b611093838361326d565b8273ffffffffffffffffffffffffffffffffffffffff168473ffffffffffffffffffffffffffffffffffffffff167fddf252ad1be2c89b69c2b068fc378daa952ba7f163c4a11628f55a4df523b3ef846040518082815260200191505060405180910390a350505050565b611106614016565b600060118581548110151561111757fe5b906000526020600020906004020160a060405190810160405290816000820160009054906101000a900460ff161515151581526020016000820160019054906101000a900473ffffffffffffffffffffffffffffffffffffffff1673ffffffffffffffffffffffffffffffffffffffff1673ffffffffffffffffffffffffffffffffffffffff16815260200160018201548152602001600282015481526020016003820154815250509150816000015115156111d257600080fd5b816080015134101515156111e557600080fd5b6111fc84846111f78560600151612a7f565b611b72565b15151561120857600080fd5b61123360118681548110151561121a57fe5b9060005260206000209060040201600201548585613344565b600c60009054906101000a900473ffffffffffffffffffffffffffffffffffffffff1673ffffffffffffffffffffffffffffffffffffffff16631f29d2dc836020015184604001516040518363ffffffff167c0100000000000000000000000000000000000000000000000000000000028152600401808373ffffffffffffffffffffffffffffffffffffffff1673ffffffffffffffffffffffffffffffffffffffff16815260200182815260200192505050602060405180830381600087803b15801561130057600080fd5b505af1158015611314573d6000803e3d6000fd5b505050506040513d602081101561132a57600080fd5b810190808051906020019092919050505090508073ffffffffffffffffffffffffffffffffffffffff166108fc6064605e85608001510281151561136a57fe5b049081150290604051600060405180830381858888f19350505050158015611396573d6000803e3d6000fd5b503373ffffffffffffffffffffffffffffffffffffffff166108fc836080015134039081150290604051600060405180830381858888f193505050501580156113e3573d6000803e3d6000fd5b505050505050565b60006113f683611f1d565b8210151561140357600080fd5b600760008473ffffffffffffffffffffffffffffffffffffffff1673ffffffffffffffffffffffffffffffffffffffff1681526020019081526020016000208281548110151561144f57fe5b9060005260206000200154905092915050565b606061146d82611ac8565b151561147857600080fd5b600e60008381526020019081526020016000208054600181600116156101000203166002900480601f01602080910402602001604051908101604052809291908181526020018280546001816001161561010002031660029004801561151f5780601f106114f45761010080835404028352916020019161151f565b820191906000526020600020905b81548152906001019060200180831161150257829003601f168201915b50505050509050919050565b611533614016565b60118281548110151561154257fe5b906000526020600020906004020160a060405190810160405290816000820160009054906101000a900460ff161515151581526020016000820160019054906101000a900473ffffffffffffffffffffffffffffffffffffffff1673ffffffffffffffffffffffffffffffffffffffff1673ffffffffffffffffffffffffffffffffffffffff16815260200160018201548152602001600282015481526020016003820154815250509050806000015115156115fd57600080fd5b3373ffffffffffffffffffffffffffffffffffffffff16600c60009054906101000a900473ffffffffffffffffffffffffffffffffffffffff1673ffffffffffffffffffffffffffffffffffffffff16631f29d2dc836020015184604001516040518363ffffffff167c0100000000000000000000000000000000000000000000000000000000028152600401808373ffffffffffffffffffffffffffffffffffffffff1673ffffffffffffffffffffffffffffffffffffffff16815260200182815260200192505050602060405180830381600087803b1580156116e157600080fd5b505af11580156116f5573d6000803e3d6000fd5b505050506040513d602081101561170b57600080fd5b810190808051906020019092919050505073ffffffffffffffffffffffffffffffffffffffff1614151561173e57600080fd5b60118281548110151561174d57fe5b9060005260206000209060040201600080820160006101000a81549060ff02191690556000820160016101000a81549073ffffffffffffffffffffffffffffffffffffffff021916905560018201600090556002820160009055600382016000905550507f88686b85d6f2c3ab9a04e4f15a22fcfa025ffd97226dcf0a67cdf682def55676826040518082815260200191505060405180910390a15050565b80600015156117fa57600080fd5b611816848484602060405190810160405280600081525061217f565b50505050565b6040805190810160405280600b81526020017f455243373231546f6b656e0000000000000000000000000000000000000000008152506040805190810160405280600581526020017f312e392e3000000000000000000000000000000000000000000000000000000081525061189282826121b6565b15151561189e57600080fd5b83600590805190602001906118b492919061405e565b5082600690805190602001906118cb92919061405e565b507fdd117a11c22118c9dee4b5a67ce578bc44529dce21ee0ccc439588fbb9fb4ea38282604051808060200180602001838103835285818151815260200191508051906020019080838360005b83811015611933578082015181840152602081019050611918565b50505050905090810190601f1680156119605780820380516001836020036101000a031916815260200191505b50838103825284818151815260200191508051906020019080838360005b8381101561199957808201518184015260208101905061197e565b50505050905090810190601f1680156119c65780820380516001836020036101000a031916815260200191505b5094505050505060405180910390a160016000836040518082805190602001908083835b602083101515611a0f57805182526020820191506020810190506020830392506119ea565b6001836020036101000a0380198251168184511680821785525050505050509050019150509081526020016040518091039020826040518082805190602001908083835b602083101515611a785780518252602082019150602081019050602083039250611a53565b6001836020036101000a038019825116818451168082178552505050505050905001915050908152602001604051809103902060006101000a81548160ff02191690831515021790555050505050565b6000806001600084815260200190815260200160002060009054906101000a900473ffffffffffffffffffffffffffffffffffffffff169050600073ffffffffffffffffffffffffffffffffffffffff168173ffffffffffffffffffffffffffffffffffffffff161415915050919050565b6000611b44610fe2565b82101515611b5157600080fd5b600982815481101515611b6057fe5b90600052602060002001549050919050565b6000806060806000856040518082805190602001908083835b602083101515611bb05780518252602082019150602081019050602083039250611b8b565b6001836020036101000a03801982511681845116808217855250505050505090500191505060405180910390209350600c60009054906101000a900473ffffffffffffffffffffffffffffffffffffffff1673ffffffffffffffffffffffffffffffffffffffff16634e94f49989896040518363ffffffff167c0100000000000000000000000000000000000000000000000000000000028152600401808373ffffffffffffffffffffffffffffffffffffffff1673ffffffffffffffffffffffffffffffffffffffff16815260200182815260200192505050600060405180830381600087803b158015611ca457600080fd5b505af1158015611cb8573d6000803e3d6000fd5b505050506040513d6000823e3d601f19601f820116820180604052506040811015611ce257600080fd5b810190808051640100000000811115611cfa57600080fd5b82810190506020810184811115611d1057600080fd5b8151856020820283011164010000000082111715611d2d57600080fd5b50509291906020018051640100000000811115611d4957600080fd5b82810190506020810184811115611d5f57600080fd5b8151856020820283011164010000000082111715611d7c57600080fd5b50509291905050508093508194505050600090505b8251811015611e8f573073ffffffffffffffffffffffffffffffffffffffff168382815181101515611dbf57fe5b9060200190602002015173ffffffffffffffffffffffffffffffffffffffff16148015611e7457508360001916611e0c8383815181101515611dfd57fe5b90602001906020020151612a7f565b6040518082805190602001908083835b602083101515611e415780518252602082019150602081019050602083039250611e1c565b6001836020036101000a038019825116818451168082178552505050505050905001915050604051809103902060001916145b15611e825760019450611e94565b8080600101915050611d91565b600094505b505050509392505050565b6000806001600084815260200190815260200160002060009054906101000a900473ffffffffffffffffffffffffffffffffffffffff169050600073ffffffffffffffffffffffffffffffffffffffff168173ffffffffffffffffffffffffffffffffffffffff1614151515611f1457600080fd5b80915050919050565b60008073ffffffffffffffffffffffffffffffffffffffff168273ffffffffffffffffffffffffffffffffffffffff1614151515611f5a57600080fd5b600360008373ffffffffffffffffffffffffffffffffffffffff1673ffffffffffffffffffffffffffffffffffffffff168152602001908152602001600020549050919050565b606060068054600181600116156101000203166002900480601f0160208091040260200160405190810160405280929190818152602001828054600181600116156101000203166002900480156120395780601f1061200e57610100808354040283529160200191612039565b820191906000526020600020905b81548152906001019060200180831161201c57829003601f168201915b5050505050905090565b3373ffffffffffffffffffffffffffffffffffffffff168273ffffffffffffffffffffffffffffffffffffffff161415151561207e57600080fd5b80600460003373ffffffffffffffffffffffffffffffffffffffff1673ffffffffffffffffffffffffffffffffffffffff16815260200190815260200160002060008473ffffffffffffffffffffffffffffffffffffffff1673ffffffffffffffffffffffffffffffffffffffff16815260200190815260200160002060006101000a81548160ff0219169083151502179055508173ffffffffffffffffffffffffffffffffffffffff163373ffffffffffffffffffffffffffffffffffffffff167f17307eab39ab6107e8899845ad3d59bd9653f200f220920489ca2b5937696c3183604051808215151515815260200191505060405180910390a35050565b816000151561218d57600080fd5b612198858585610fef565b6121a4858585856135b4565b15156121af57600080fd5b5050505050565b600080836040518082805190602001908083835b6020831015156121ef57805182526020820191506020810190506020830392506121ca565b6001836020036101000a0380198251168184511680821785525050505050509050019150509081526020016040518091039020826040518082805190602001908083835b6020831015156122585780518252602082019150602081019050602083039250612233565b6001836020036101000a038019825116818451168082178552505050505050905001915050908152602001604051809103902060009054906101000a900460ff16905092915050565b6040805190810160405280600881526020017f4d61726b657465580000000000000000000000000000000000000000000000008152506040805190810160405280600181526020017f300000000000000000000000000000000000000000000000000000000000000081525061231782826121b6565b15151561232357600080fd5b61232c836137a2565b7fdd117a11c22118c9dee4b5a67ce578bc44529dce21ee0ccc439588fbb9fb4ea38282604051808060200180602001838103835285818151815260200191508051906020019080838360005b83811015612393578082015181840152602081019050612378565b50505050905090810190601f1680156123c05780820380516001836020036101000a031916815260200191505b50838103825284818151815260200191508051906020019080838360005b838110156123f95780820151818401526020810190506123de565b50505050905090810190601f1680156124265780820380516001836020036101000a031916815260200191505b5094505050505060405180910390a160016000836040518082805190602001908083835b60208310151561246f578051825260208201915060208101905060208303925061244a565b6001836020036101000a0380198251168184511680821785525050505050509050019150509081526020016040518091039020826040518082805190602001908083835b6020831015156124d857805182526020820191506020810190506020830392506124b3565b6001836020036101000a038019825116818451168082178552505050505050905001915050908152602001604051809103902060006101000a81548160ff021916908315150217905550505050565b606061253282611ac8565b151561253d57600080fd5b600b60008381526020019081526020016000208054600181600116156101000203166002900480601f0160208091040260200160405190810160405280929190818152602001828054600181600116156101000203166002900480156125e45780601f106125b9576101008083540402835291602001916125e4565b820191906000526020600020905b8154815290600101906020018083116125c757829003601f168201915b50505050509050919050565b600080600080600c60009054906101000a900473ffffffffffffffffffffffffffffffffffffffff1673ffffffffffffffffffffffffffffffffffffffff16631f29d2dc30886040518363ffffffff167c0100000000000000000000000000000000000000000000000000000000028152600401808373ffffffffffffffffffffffffffffffffffffffff1673ffffffffffffffffffffffffffffffffffffffff16815260200182815260200192505050602060405180830381600087803b1580156126bb57600080fd5b505af11580156126cf573d6000803e3d6000fd5b505050506040513d60208110156126e557600080fd5b810190808051906020019092919050505093503373ffffffffffffffffffffffffffffffffffffffff168473ffffffffffffffffffffffffffffffffffffffff1614151561273257600080fd5b600c60009054906101000a900473ffffffffffffffffffffffffffffffffffffffff1673ffffffffffffffffffffffffffffffffffffffff1663be5eabca30886040518363ffffffff167c0100000000000000000000000000000000000000000000000000000000028152600401808373ffffffffffffffffffffffffffffffffffffffff1673ffffffffffffffffffffffffffffffffffffffff168152602001828152602001925050506040805180830381600087803b1580156127f657600080fd5b505af115801561280a573d6000803e3d6000fd5b505050506040513d604081101561282057600080fd5b8101908080519060200190929190805190602001909291905050508093508194505050601160a0604051908101604052806001151581526020018573ffffffffffffffffffffffffffffffffffffffff168152602001848152602001888152602001878152509080600181540180825580915050906001820390600052602060002090600402016000909192909190915060008201518160000160006101000a81548160ff02191690831515021790555060208201518160000160016101000a81548173ffffffffffffffffffffffffffffffffffffffff021916908373ffffffffffffffffffffffffffffffffffffffff160217905550604082015181600101556060820151816002015560808201518160030155505090507f7b59ef2398c2d4266c4acf73e50533b42f8ceb0fc8baee3cc2581716e22309a46001820387878686600e60008d8152602001908152602001600020601060008e815260200190815260200160002054604051808881526020018781526020018681526020018573ffffffffffffffffffffffffffffffffffffffff1673ffffffffffffffffffffffffffffffffffffffff16815260200184815260200180602001838152602001828103825284818154600181600116156101000203166002900481526020019150805460018160011615610100020316600290048015612a635780601f10612a3857610100808354040283529160200191612a63565b820191906000526020600020905b815481529060010190602001808311612a4657829003601f168201915b50509850505050505050505060405180910390a1505050505050565b6060612a8a82611ac8565b1515612a9557600080fd5b600f60008381526020019081526020016000208054600181600116156101000203166002900480601f016020809104026020016040519081016040528092919081815260200182805460018160011615610100020316600290048015612b3c5780601f10612b1157610100808354040283529160200191612b3c565b820191906000526020600020905b815481529060010190602001808311612b1f57829003601f168201915b50505050509050919050565b6000600d846040518082805190602001908083835b602083101515612b825780518252602082019150602081019050602083039250612b5d565b6001836020036101000a038019825116818451168082178552505050505050905001915050908152602001604051809103902060009054906101000a900460ff16151515612bcf57600080fd5b6001600980549050019050612c06600c60009054906101000a900473ffffffffffffffffffffffffffffffffffffffff1682613ad4565b6001600d856040518082805190602001908083835b602083101515612c405780518252602082019150602081019050602083039250612c1b565b6001836020036101000a038019825116818451168082178552505050505050905001915050908152602001604051809103902060006101000a81548160ff02191690831515021790555084600e60008381526020019081526020016000209080519060200190612cb192919061405e565b5083600f60008381526020019081526020016000209080519060200190612cd992919061405e565b50600c60009054906101000a900473ffffffffffffffffffffffffffffffffffffffff1673ffffffffffffffffffffffffffffffffffffffff1663f0b9e5ba3083612d248787613b2b565b6040518463ffffffff167c0100000000000000000000000000000000000000000000000000000000028152600401808473ffffffffffffffffffffffffffffffffffffffff1673ffffffffffffffffffffffffffffffffffffffff16815260200183815260200180602001828103825283818151815260200191508051906020019080838360005b83811015612dc7578082015181840152602081019050612dac565b50505050905090810190601f168015612df45780820380516001836020036101000a031916815260200191505b50945050505050602060405180830381600087803b158015612e1557600080fd5b505af1158015612e29573d6000803e3d6000fd5b505050506040513d6020811015612e3f57600080fd5b8101908080519060200190929190505050505050505050565b6000600460008473ffffffffffffffffffffffffffffffffffffffff1673ffffffffffffffffffffffffffffffffffffffff16815260200190815260200160002060008373ffffffffffffffffffffffffffffffffffffffff1673ffffffffffffffffffffffffffffffffffffffff16815260200190815260200160002060009054906101000a900460ff16905092915050565b8173ffffffffffffffffffffffffffffffffffffffff16612f0c82611e9f565b73ffffffffffffffffffffffffffffffffffffffff16141515612f2e57600080fd5b600073ffffffffffffffffffffffffffffffffffffffff166002600083815260200190815260200160002060009054906101000a900473ffffffffffffffffffffffffffffffffffffffff1673ffffffffffffffffffffffffffffffffffffffff161415156130515760006002600083815260200190815260200160002060006101000a81548173ffffffffffffffffffffffffffffffffffffffff021916908373ffffffffffffffffffffffffffffffffffffffff160217905550600073ffffffffffffffffffffffffffffffffffffffff168273ffffffffffffffffffffffffffffffffffffffff167f8c5be1e5ebec7d5bd14f71427d1e84f3dd0314c0f7b2291e5b200ac8c7c3b925836040518082815260200191505060405180910390a35b5050565b60008060006130648585613c95565b600860008581526020019081526020016000205492506130d06001600760008873ffffffffffffffffffffffffffffffffffffffff1673ffffffffffffffffffffffffffffffffffffffff16815260200190815260200160002080549050613dc490919063ffffffff16565b9150600760008673ffffffffffffffffffffffffffffffffffffffff1673ffffffffffffffffffffffffffffffffffffffff1681526020019081526020016000208281548110151561311e57fe5b9060005260206000200154905080600760008773ffffffffffffffffffffffffffffffffffffffff1673ffffffffffffffffffffffffffffffffffffffff1681526020019081526020016000208481548110151561317857fe5b90600052602060002001819055506000600760008773ffffffffffffffffffffffffffffffffffffffff1673ffffffffffffffffffffffffffffffffffffffff168152602001908152602001600020838154811015156131d457fe5b9060005260206000200181905550600760008673ffffffffffffffffffffffffffffffffffffffff1673ffffffffffffffffffffffffffffffffffffffff16815260200190815260200160002080548091906001900361323491906140de565b50600060086000868152602001908152602001600020819055508260086000838152602001908152602001600020819055505050505050565b60006132798383613ddd565b600760008473ffffffffffffffffffffffffffffffffffffffff1673ffffffffffffffffffffffffffffffffffffffff168152602001908152602001600020805490509050600760008473ffffffffffffffffffffffffffffffffffffffff1673ffffffffffffffffffffffffffffffffffffffff168152602001908152602001600020829080600181540180825580915050906001820390600052602060002001600090919290919091505550806008600084815260200190815260200160002081905550505050565b6000600160098054905001905061337d600c60009054906101000a900473ffffffffffffffffffffffffffffffffffffffff1682613ad4565b600e6000858152602001908152602001600020600e600083815260200190815260200160002090805460018160011615610100020316600290046133c292919061410a565b50600f6000858152602001908152602001600020600f6000838152602001908152602001600020908054600181600116156101000203166002900461340892919061410a565b5060016010600086815260200190815260200160002054016010600083815260200190815260200160002081905550600c60009054906101000a900473ffffffffffffffffffffffffffffffffffffffff1673ffffffffffffffffffffffffffffffffffffffff1663f0b9e5ba30836134818787613b2b565b6040518463ffffffff167c0100000000000000000000000000000000000000000000000000000000028152600401808473ffffffffffffffffffffffffffffffffffffffff1673ffffffffffffffffffffffffffffffffffffffff16815260200183815260200180602001828103825283818151815260200191508051906020019080838360005b83811015613524578082015181840152602081019050613509565b50505050905090810190601f1680156135515780820380516001836020036101000a031916815260200191505b50945050505050602060405180830381600087803b15801561357257600080fd5b505af1158015613586573d6000803e3d6000fd5b505050506040513d602081101561359c57600080fd5b81019080805190602001909291905050505050505050565b6000806135d68573ffffffffffffffffffffffffffffffffffffffff16613f37565b15156135e55760019150613799565b8473ffffffffffffffffffffffffffffffffffffffff1663f0b9e5ba8786866040518463ffffffff167c0100000000000000000000000000000000000000000000000000000000028152600401808473ffffffffffffffffffffffffffffffffffffffff1673ffffffffffffffffffffffffffffffffffffffff16815260200183815260200180602001828103825283818151815260200191508051906020019080838360005b838110156136a757808201518184015260208101905061368c565b50505050905090810190601f1680156136d45780820380516001836020036101000a031916815260200191505b50945050505050602060405180830381600087803b1580156136f557600080fd5b505af1158015613709573d6000803e3d6000fd5b505050506040513d602081101561371f57600080fd5b8101908080519060200190929190505050905063f0b9e5ba7c0100000000000000000000000000000000000000000000000000000000027bffffffffffffffffffffffffffffffffffffffffffffffffffffffff1916817bffffffffffffffffffffffffffffffffffffffffffffffffffffffff19161491505b50949350505050565b6040805190810160405280600781526020017f546f6b656e6558000000000000000000000000000000000000000000000000008152506040805190810160405280600181526020017f300000000000000000000000000000000000000000000000000000000000000081525061381882826121b6565b15151561382457600080fd5b6138986040805190810160405280600781526020017f536b696c6c6558000000000000000000000000000000000000000000000000008152506040805190810160405280600481526020017f534b4c580000000000000000000000000000000000000000000000000000000081525061181c565b82600c60006101000a81548173ffffffffffffffffffffffffffffffffffffffff021916908373ffffffffffffffffffffffffffffffffffffffff1602179055507fdd117a11c22118c9dee4b5a67ce578bc44529dce21ee0ccc439588fbb9fb4ea38282604051808060200180602001838103835285818151815260200191508051906020019080838360005b83811015613940578082015181840152602081019050613925565b50505050905090810190601f16801561396d5780820380516001836020036101000a031916815260200191505b50838103825284818151815260200191508051906020019080838360005b838110156139a657808201518184015260208101905061398b565b50505050905090810190601f1680156139d35780820380516001836020036101000a031916815260200191505b5094505050505060405180910390a160016000836040518082805190602001908083835b602083101515613a1c57805182526020820191506020810190506020830392506139f7565b6001836020036101000a0380198251168184511680821785525050505050509050019150509081526020016040518091039020826040518082805190602001908083835b602083101515613a855780518252602082019150602081019050602083039250613a60565b6001836020036101000a038019825116818451168082178552505050505050905001915050908152602001604051809103902060006101000a81548160ff021916908315150217905550505050565b613ade8282613f4a565b600980549050600a60008381526020019081526020016000208190555060098190806001815401808255809150509060018203906000526020600020016000909192909190915055505050565b6060600080606060008673ffffffffffffffffffffffffffffffffffffffff166001029350856001029250604080519080825280601f01601f191660200182016040528015613b895781602001602082028038833980820191505090505b509150600090505b6020811015613c88578381602081101515613ba857fe5b1a7f0100000000000000000000000000000000000000000000000000000000000000028282815181101515613bd957fe5b9060200101907effffffffffffffffffffffffffffffffffffffffffffffffffffffffffffff1916908160001a9053508281602081101515613c1757fe5b1a7f0100000000000000000000000000000000000000000000000000000000000000028260208301815181101515613c4b57fe5b9060200101907effffffffffffffffffffffffffffffffffffffffffffffffffffffffffffff1916908160001a9053508080600101915050613b91565b8194505050505092915050565b8173ffffffffffffffffffffffffffffffffffffffff16613cb582611e9f565b73ffffffffffffffffffffffffffffffffffffffff16141515613cd757600080fd5b613d2a6001600360008573ffffffffffffffffffffffffffffffffffffffff1673ffffffffffffffffffffffffffffffffffffffff16815260200190815260200160002054613dc490919063ffffffff16565b600360008473ffffffffffffffffffffffffffffffffffffffff1673ffffffffffffffffffffffffffffffffffffffff1681526020019081526020016000208190555060006001600083815260200190815260200160002060006101000a81548173ffffffffffffffffffffffffffffffffffffffff021916908373ffffffffffffffffffffffffffffffffffffffff1602179055505050565b6000828211151515613dd257fe5b818303905092915050565b600073ffffffffffffffffffffffffffffffffffffffff166001600083815260200190815260200160002060009054906101000a900473ffffffffffffffffffffffffffffffffffffffff1673ffffffffffffffffffffffffffffffffffffffff16141515613e4b57600080fd5b816001600083815260200190815260200160002060006101000a81548173ffffffffffffffffffffffffffffffffffffffff021916908373ffffffffffffffffffffffffffffffffffffffff160217905550613ef06001600360008573ffffffffffffffffffffffffffffffffffffffff1673ffffffffffffffffffffffffffffffffffffffff16815260200190815260200160002054613ffa90919063ffffffff16565b600360008473ffffffffffffffffffffffffffffffffffffffff1673ffffffffffffffffffffffffffffffffffffffff168152602001908152602001600020819055505050565b600080823b905060008111915050919050565b600073ffffffffffffffffffffffffffffffffffffffff168273ffffffffffffffffffffffffffffffffffffffff1614151515613f8657600080fd5b613f90828261326d565b8173ffffffffffffffffffffffffffffffffffffffff16600073ffffffffffffffffffffffffffffffffffffffff167fddf252ad1be2c89b69c2b068fc378daa952ba7f163c4a11628f55a4df523b3ef836040518082815260200191505060405180910390a35050565b6000818301905082811015151561400d57fe5b80905092915050565b60a060405190810160405280600015158152602001600073ffffffffffffffffffffffffffffffffffffffff1681526020016000815260200160008152602001600081525090565b828054600181600116156101000203166002900490600052602060002090601f016020900481019282601f1061409f57805160ff19168380011785556140cd565b828001600101855582156140cd579182015b828111156140cc5782518255916020019190600101906140b1565b5b5090506140da9190614191565b5090565b815481835581811115614105578183600052602060002091820191016141049190614191565b5b505050565b828054600181600116156101000203166002900490600052602060002090601f016020900481019282601f106141435780548555614180565b8280016001018555821561418057600052602060002091601f016020900482015b8281111561417f578254825591600101919060010190614164565b5b50905061418d9190614191565b5090565b6141b391905b808211156141af576000816000905550600101614197565b5090565b905600a165627a7a72305820970707030d6dd802f0f797456b2fa46eaef4e56f5ec445e261a4d041b6ceef250029",
  "source": "pragma solidity ^0.4.23;\n\nimport \"./ERC721ComposableRegistry.sol\";\nimport \"openzeppelin-zos/contracts/token/ERC721/ERC721Token.sol\";\nimport \"openzeppelin-zos/contracts/ownership/Ownable.sol\";\n\ncontract TokeneX is ERC721Token {\n\n    ERC721ComposableRegistry internal composableRegistry;\n\n    mapping(string => bool) private ipfsHashExists;\n    mapping(uint => string) internal tokenIdToName;\n    mapping(uint => string) internal tokenIdToIpfsHash;\n    mapping(uint => uint) internal tokenIdToGeneration;\n\n    function initialize(address cr) isInitializer(\"TokeneX\", \"0\") public {\n        ERC721Token.initialize(\"SkilleX\", \"SKLX\");\n        composableRegistry = ERC721ComposableRegistry(cr);\n    }\n\n    function createSkill(string name, string ipfsHash, address toErc721, uint toTokenId) public {\n        require(!ipfsHashExists[ipfsHash]);\n        uint tokenId = allTokens.length + 1;\n        _mint(composableRegistry, tokenId);\n        ipfsHashExists[ipfsHash] = true;\n        tokenIdToName[tokenId] = name;\n        tokenIdToIpfsHash[tokenId] = ipfsHash;\n        composableRegistry.onERC721Received(this, tokenId, addressAndUintToBytes(toErc721, toTokenId));\n    }\n\n    function copySkill(uint originalId, address toErc721, uint toTokenId) internal {\n        uint tokenId = allTokens.length + 1;\n        _mint(composableRegistry, tokenId);\n        tokenIdToName[tokenId] = tokenIdToName[originalId];\n        tokenIdToIpfsHash[tokenId] = tokenIdToIpfsHash[originalId];\n        tokenIdToGeneration[tokenId] = tokenIdToGeneration[originalId] + 1;\n        composableRegistry.onERC721Received(this, tokenId, addressAndUintToBytes(toErc721, toTokenId));\n    }\n\n    function addressAndUintToBytes(address erc721, uint tokenId) private pure returns (bytes) {\n        bytes32 bytesErc721 = bytes32(erc721);\n        bytes32 bytesTokenId = bytes32(tokenId);\n        bytes memory ret = new bytes(64);\n        for (uint i = 0; i < 32; i++) {\n            ret[i] = bytesErc721[i];\n            ret[i + 32] = bytesTokenId[i];\n        }\n        return ret;\n    }\n\n    function getSkillName(uint tokenId) public view returns (string) {\n        require(exists(tokenId));\n        return tokenIdToName[tokenId];\n    }\n\n    function getIpfsHash(uint tokenId) public view returns (string) {\n        require(exists(tokenId));\n        return tokenIdToIpfsHash[tokenId];\n    }\n\n    modifier canTransfer(uint256 _tokenId) {\n        require(false);\n        _;\n    }\n}\n\ncontract MarketeX is TokeneX {\n\n    event OfferCreated(\n        uint offerId,\n        uint skillId,\n        uint price,\n        address teacherErc721,\n        uint teacherTokenId,\n        string skillName,\n        uint generation\n    );\n\n    event OfferDeleted(\n        uint offerId\n    );\n\n    struct Offer {\n        bool valid;\n        ERC721 teacherErc721;\n        uint teacherId;\n        uint skillId;\n        uint price;\n    }\n\n    Offer[] offers;\n\n    function initialize(address cr) isInitializer(\"MarketeX\", \"0\") public {\n        TokeneX.initialize(cr);\n    }\n\n    function offerTeach(uint skillId, uint price) public {\n        address owner = composableRegistry.ownerOf(this, skillId);\n        require(owner == msg.sender);\n        ERC721 erc721;\n        uint tokenId;\n        (erc721, tokenId) = composableRegistry.parentOf(this, skillId);\n        uint offerIdPlusOne = offers.push(Offer(true, erc721, tokenId, skillId, price));\n        emit OfferCreated(offerIdPlusOne - 1, skillId, price, erc721, tokenId, tokenIdToName[skillId], tokenIdToGeneration[skillId]);\n    }\n\n    function cancel(uint offerId) public {\n        Offer memory offer = offers[offerId];\n        require(offer.valid);\n        require(composableRegistry.ownerOf(offer.teacherErc721, offer.teacherId) == msg.sender);\n        delete offers[offerId];\n        emit OfferDeleted(offerId);\n    }\n\n    function learn(uint offerId, ERC721 toErc721, uint toTokenId) public payable {\n        Offer memory offer = offers[offerId];\n        require(offer.valid);\n        require(msg.value >= offer.price);\n        require(!hasSkill(toErc721, toTokenId, getIpfsHash(offer.skillId)));\n        copySkill(offers[offerId].skillId, toErc721, toTokenId);\n        address teacherOwner = composableRegistry.ownerOf(offer.teacherErc721, offer.teacherId);\n        teacherOwner.transfer(offer.price * 94 / 100);\n        msg.sender.transfer(msg.value - offer.price);\n    }\n\n    function hasSkill(ERC721 erc721, uint tokenId, string ipfsHash) public view returns (bool) {\n        bytes32 hash = keccak256(ipfsHash);\n        ERC721[] memory erc721s;\n        uint[] memory tokenIds;\n        (erc721s, tokenIds) = composableRegistry.children(erc721, tokenId);\n        for (uint i = 0; i < erc721s.length; i++) {\n            if (erc721s[i] == this && keccak256(getIpfsHash(tokenIds[i])) == hash) {\n                return true;\n            }\n        }\n        return false;\n    }\n}\n\ncontract WithdraweX is Ownable {\n\n    function initialize(address owner) isInitializer(\"WithdraweX\", \"0\") public {\n        Ownable.initialize(owner);\n    }\n\n    function withdrawEther() public onlyOwner {\n        msg.sender.transfer(address(this).balance);\n    }\n}\n\ncontract SkilleX is MarketeX, WithdraweX {\n\n    function initialize(address cr, address owner) isInitializer(\"SkilleX\", \"0\") public {\n        MarketeX.initialize(cr);\n        WithdraweX.initialize(owner);\n    }\n}\n",
  "sourcePath": "/home/kghost0/workspace/skills/contracts/Skillex.sol",
  "compiler": {
    "name": "solc",
    "version": "0.4.24+commit.e67f0147.Emscripten.clang"
  },
  "schemaVersion": "2.0.0",
  "updatedAt": "2018-05-26T23:28:31.431Z"
}