{
  "contractName": "MarketeX",
  "abi": [
    {
      "constant": true,
      "inputs": [],
      "name": "name",
      "outputs": [
        {
          "name": "",
          "type": "string"
        }
      ],
      "payable": false,
      "stateMutability": "view",
      "type": "function"
    },
    {
      "constant": true,
      "inputs": [
        {
          "name": "_tokenId",
          "type": "uint256"
        }
      ],
      "name": "getApproved",
      "outputs": [
        {
          "name": "",
          "type": "address"
        }
      ],
      "payable": false,
      "stateMutability": "view",
      "type": "function"
    },
    {
      "constant": false,
      "inputs": [
        {
          "name": "_to",
          "type": "address"
        },
        {
          "name": "_tokenId",
          "type": "uint256"
        }
      ],
      "name": "approve",
      "outputs": [],
      "payable": false,
      "stateMutability": "nonpayable",
      "type": "function"
    },
    {
      "constant": true,
      "inputs": [],
      "name": "totalSupply",
      "outputs": [
        {
          "name": "",
          "type": "uint256"
        }
      ],
      "payable": false,
      "stateMutability": "view",
      "type": "function"
    },
    {
      "constant": false,
      "inputs": [
        {
          "name": "_from",
          "type": "address"
        },
        {
          "name": "_to",
          "type": "address"
        },
        {
          "name": "_tokenId",
          "type": "uint256"
        }
      ],
      "name": "transferFrom",
      "outputs": [],
      "payable": false,
      "stateMutability": "nonpayable",
      "type": "function"
    },
    {
      "constant": true,
      "inputs": [
        {
          "name": "_owner",
          "type": "address"
        },
        {
          "name": "_index",
          "type": "uint256"
        }
      ],
      "name": "tokenOfOwnerByIndex",
      "outputs": [
        {
          "name": "",
          "type": "uint256"
        }
      ],
      "payable": false,
      "stateMutability": "view",
      "type": "function"
    },
    {
      "constant": true,
      "inputs": [
        {
          "name": "tokenId",
          "type": "uint256"
        }
      ],
      "name": "getSkillName",
      "outputs": [
        {
          "name": "",
          "type": "string"
        }
      ],
      "payable": false,
      "stateMutability": "view",
      "type": "function"
    },
    {
      "constant": false,
      "inputs": [
        {
          "name": "_from",
          "type": "address"
        },
        {
          "name": "_to",
          "type": "address"
        },
        {
          "name": "_tokenId",
          "type": "uint256"
        }
      ],
      "name": "safeTransferFrom",
      "outputs": [],
      "payable": false,
      "stateMutability": "nonpayable",
      "type": "function"
    },
    {
      "constant": true,
      "inputs": [
        {
          "name": "_tokenId",
          "type": "uint256"
        }
      ],
      "name": "exists",
      "outputs": [
        {
          "name": "",
          "type": "bool"
        }
      ],
      "payable": false,
      "stateMutability": "view",
      "type": "function"
    },
    {
      "constant": true,
      "inputs": [
        {
          "name": "_index",
          "type": "uint256"
        }
      ],
      "name": "tokenByIndex",
      "outputs": [
        {
          "name": "",
          "type": "uint256"
        }
      ],
      "payable": false,
      "stateMutability": "view",
      "type": "function"
    },
    {
      "constant": true,
      "inputs": [
        {
          "name": "_tokenId",
          "type": "uint256"
        }
      ],
      "name": "ownerOf",
      "outputs": [
        {
          "name": "",
          "type": "address"
        }
      ],
      "payable": false,
      "stateMutability": "view",
      "type": "function"
    },
    {
      "constant": true,
      "inputs": [
        {
          "name": "_owner",
          "type": "address"
        }
      ],
      "name": "balanceOf",
      "outputs": [
        {
          "name": "",
          "type": "uint256"
        }
      ],
      "payable": false,
      "stateMutability": "view",
      "type": "function"
    },
    {
      "constant": true,
      "inputs": [],
      "name": "symbol",
      "outputs": [
        {
          "name": "",
          "type": "string"
        }
      ],
      "payable": false,
      "stateMutability": "view",
      "type": "function"
    },
    {
      "constant": false,
      "inputs": [
        {
          "name": "_to",
          "type": "address"
        },
        {
          "name": "_approved",
          "type": "bool"
        }
      ],
      "name": "setApprovalForAll",
      "outputs": [],
      "payable": false,
      "stateMutability": "nonpayable",
      "type": "function"
    },
    {
      "constant": false,
      "inputs": [
        {
          "name": "_from",
          "type": "address"
        },
        {
          "name": "_to",
          "type": "address"
        },
        {
          "name": "_tokenId",
          "type": "uint256"
        },
        {
          "name": "_data",
          "type": "bytes"
        }
      ],
      "name": "safeTransferFrom",
      "outputs": [],
      "payable": false,
      "stateMutability": "nonpayable",
      "type": "function"
    },
    {
      "constant": true,
      "inputs": [
        {
          "name": "contractName",
          "type": "string"
        },
        {
          "name": "migrationId",
          "type": "string"
        }
      ],
      "name": "isMigrated",
      "outputs": [
        {
          "name": "",
          "type": "bool"
        }
      ],
      "payable": false,
      "stateMutability": "view",
      "type": "function"
    },
    {
      "constant": true,
      "inputs": [
        {
          "name": "ipfsHash",
          "type": "string"
        }
      ],
      "name": "getSkillOwners",
      "outputs": [
        {
          "name": "",
          "type": "uint256[]"
        }
      ],
      "payable": false,
      "stateMutability": "view",
      "type": "function"
    },
    {
      "constant": true,
      "inputs": [
        {
          "name": "_tokenId",
          "type": "uint256"
        }
      ],
      "name": "tokenURI",
      "outputs": [
        {
          "name": "",
          "type": "string"
        }
      ],
      "payable": false,
      "stateMutability": "view",
      "type": "function"
    },
    {
      "constant": true,
      "inputs": [
        {
          "name": "tokenId",
          "type": "uint256"
        }
      ],
      "name": "getIpfsHash",
      "outputs": [
        {
          "name": "",
          "type": "string"
        }
      ],
      "payable": false,
      "stateMutability": "view",
      "type": "function"
    },
    {
      "constant": false,
      "inputs": [
        {
          "name": "name",
          "type": "string"
        },
        {
          "name": "ipfsHash",
          "type": "string"
        },
        {
          "name": "toErc721",
          "type": "address"
        },
        {
          "name": "toTokenId",
          "type": "uint256"
        }
      ],
      "name": "createSkill",
      "outputs": [],
      "payable": false,
      "stateMutability": "nonpayable",
      "type": "function"
    },
    {
      "constant": true,
      "inputs": [
        {
          "name": "_owner",
          "type": "address"
        },
        {
          "name": "_operator",
          "type": "address"
        }
      ],
      "name": "isApprovedForAll",
      "outputs": [
        {
          "name": "",
          "type": "bool"
        }
      ],
      "payable": false,
      "stateMutability": "view",
      "type": "function"
    },
    {
      "anonymous": false,
      "inputs": [
        {
          "indexed": false,
          "name": "offerId",
          "type": "uint256"
        },
        {
          "indexed": false,
          "name": "skillId",
          "type": "uint256"
        },
        {
          "indexed": false,
          "name": "price",
          "type": "uint256"
        },
        {
          "indexed": false,
          "name": "teacherErc721",
          "type": "address"
        },
        {
          "indexed": false,
          "name": "teacherTokenId",
          "type": "uint256"
        },
        {
          "indexed": false,
          "name": "skillName",
          "type": "string"
        },
        {
          "indexed": false,
          "name": "generation",
          "type": "uint256"
        }
      ],
      "name": "OfferCreated",
      "type": "event"
    },
    {
      "anonymous": false,
      "inputs": [
        {
          "indexed": false,
          "name": "offerId",
          "type": "uint256"
        }
      ],
      "name": "OfferDeleted",
      "type": "event"
    },
    {
      "anonymous": false,
      "inputs": [
        {
          "indexed": true,
          "name": "_from",
          "type": "address"
        },
        {
          "indexed": true,
          "name": "_to",
          "type": "address"
        },
        {
          "indexed": false,
          "name": "_tokenId",
          "type": "uint256"
        }
      ],
      "name": "Transfer",
      "type": "event"
    },
    {
      "anonymous": false,
      "inputs": [
        {
          "indexed": true,
          "name": "_owner",
          "type": "address"
        },
        {
          "indexed": true,
          "name": "_approved",
          "type": "address"
        },
        {
          "indexed": false,
          "name": "_tokenId",
          "type": "uint256"
        }
      ],
      "name": "Approval",
      "type": "event"
    },
    {
      "anonymous": false,
      "inputs": [
        {
          "indexed": true,
          "name": "_owner",
          "type": "address"
        },
        {
          "indexed": true,
          "name": "_operator",
          "type": "address"
        },
        {
          "indexed": false,
          "name": "_approved",
          "type": "bool"
        }
      ],
      "name": "ApprovalForAll",
      "type": "event"
    },
    {
      "anonymous": false,
      "inputs": [
        {
          "indexed": false,
          "name": "contractName",
          "type": "string"
        },
        {
          "indexed": false,
          "name": "migrationId",
          "type": "string"
        }
      ],
      "name": "Migrated",
      "type": "event"
    },
    {
      "constant": false,
      "inputs": [
        {
          "name": "_name",
          "type": "string"
        },
        {
          "name": "_symbol",
          "type": "string"
        }
      ],
      "name": "initialize",
      "outputs": [],
      "payable": false,
      "stateMutability": "nonpayable",
      "type": "function"
    },
    {
      "constant": false,
      "inputs": [
        {
          "name": "cr",
          "type": "address"
        }
      ],
      "name": "initialize",
      "outputs": [],
      "payable": false,
      "stateMutability": "nonpayable",
      "type": "function"
    },
    {
      "constant": false,
      "inputs": [
        {
          "name": "skillId",
          "type": "uint256"
        },
        {
          "name": "price",
          "type": "uint256"
        }
      ],
      "name": "offerTeach",
      "outputs": [],
      "payable": false,
      "stateMutability": "nonpayable",
      "type": "function"
    },
    {
      "constant": false,
      "inputs": [
        {
          "name": "offerId",
          "type": "uint256"
        }
      ],
      "name": "cancel",
      "outputs": [],
      "payable": false,
      "stateMutability": "nonpayable",
      "type": "function"
    },
    {
      "constant": false,
      "inputs": [
        {
          "name": "offerId",
          "type": "uint256"
        },
        {
          "name": "toErc721",
          "type": "address"
        },
        {
          "name": "toTokenId",
          "type": "uint256"
        }
      ],
      "name": "learn",
      "outputs": [],
      "payable": true,
      "stateMutability": "payable",
      "type": "function"
    },
    {
      "constant": true,
      "inputs": [
        {
          "name": "erc721",
          "type": "address"
        },
        {
          "name": "tokenId",
          "type": "uint256"
        },
        {
          "name": "ipfsHash",
          "type": "string"
        }
      ],
      "name": "hasSkill",
      "outputs": [
        {
          "name": "",
          "type": "bool"
        }
      ],
      "payable": false,
      "stateMutability": "view",
      "type": "function"
    }
  ],
  "bytecode": "0x608060405234801561001057600080fd5b50614534806100206000396000f30060806040526004361061015f576000357c0100000000000000000000000000000000000000000000000000000000900463ffffffff16806306fdde0314610164578063081812fc146101f4578063095ea7b31461026157806318160ddd146102ae57806323b872dd146102d95780632ce3ac81146103465780632f745c591461039057806335595c95146103f157806340e58ee51461049757806342842e0e146104c45780634cd88b76146105315780634f558e79146105e05780634f6ccce71461062557806362051d39146106665780636352211e1461071157806370a082311461077e57806395d89b41146107d5578063a22cb46514610865578063b88d4fde146108b4578063c0bac1a814610967578063c409b4f514610a2e578063c4d66de814610aec578063c87b56dd14610b2f578063cde3960f14610bd5578063d450fbc914610c0c578063e5c365a714610cb2578063e985e9c514610d8b575b600080fd5b34801561017057600080fd5b50610179610e06565b6040518080602001828103825283818151815260200191508051906020019080838360005b838110156101b957808201518184015260208101905061019e565b50505050905090810190601f1680156101e65780820380516001836020036101000a031916815260200191505b509250505060405180910390f35b34801561020057600080fd5b5061021f60048036038101908080359060200190929190505050610ea8565b604051808273ffffffffffffffffffffffffffffffffffffffff1673ffffffffffffffffffffffffffffffffffffffff16815260200191505060405180910390f35b34801561026d57600080fd5b506102ac600480360381019080803573ffffffffffffffffffffffffffffffffffffffff16906020019092919080359060200190929190505050610ee5565b005b3480156102ba57600080fd5b506102c36110ab565b6040518082815260200191505060405180910390f35b3480156102e557600080fd5b50610344600480360381019080803573ffffffffffffffffffffffffffffffffffffffff169060200190929190803573ffffffffffffffffffffffffffffffffffffffff169060200190929190803590602001909291905050506110b8565b005b61038e60048036038101908080359060200190929190803573ffffffffffffffffffffffffffffffffffffffff169060200190929190803590602001909291905050506111c7565b005b34801561039c57600080fd5b506103db600480360381019080803573ffffffffffffffffffffffffffffffffffffffff169060200190929190803590602001909291905050506114b4565b6040518082815260200191505060405180910390f35b3480156103fd57600080fd5b5061041c6004803603810190808035906020019092919050505061152b565b6040518080602001828103825283818151815260200191508051906020019080838360005b8381101561045c578082015181840152602081019050610441565b50505050905090810190601f1680156104895780820380516001836020036101000a031916815260200191505b509250505060405180910390f35b3480156104a357600080fd5b506104c2600480360381019080803590602001909291905050506115f4565b005b3480156104d057600080fd5b5061052f600480360381019080803573ffffffffffffffffffffffffffffffffffffffff169060200190929190803573ffffffffffffffffffffffffffffffffffffffff169060200190929190803590602001909291905050506118b5565b005b34801561053d57600080fd5b506105de600480360381019080803590602001908201803590602001908080601f0160208091040260200160405190810160405280939291908181526020018383808284378201915050505050509192919290803590602001908201803590602001908080601f01602080910402602001604051908101604052809392919081815260200183838082843782019150505050505091929192905050506118e5565b005b3480156105ec57600080fd5b5061060b60048036038101908080359060200190929190505050611b91565b604051808215151515815260200191505060405180910390f35b34801561063157600080fd5b5061065060048036038101908080359060200190929190505050611c03565b6040518082815260200191505060405180910390f35b34801561067257600080fd5b506106f7600480360381019080803573ffffffffffffffffffffffffffffffffffffffff16906020019092919080359060200190929190803590602001908201803590602001908080601f0160208091040260200160405190810160405280939291908181526020018383808284378201915050505050509192919290505050611c3b565b604051808215151515815260200191505060405180910390f35b34801561071d57600080fd5b5061073c60048036038101908080359060200190929190505050611f68565b604051808273ffffffffffffffffffffffffffffffffffffffff1673ffffffffffffffffffffffffffffffffffffffff16815260200191505060405180910390f35b34801561078a57600080fd5b506107bf600480360381019080803573ffffffffffffffffffffffffffffffffffffffff169060200190929190505050611fe6565b6040518082815260200191505060405180910390f35b3480156107e157600080fd5b506107ea61206a565b6040518080602001828103825283818151815260200191508051906020019080838360005b8381101561082a57808201518184015260208101905061080f565b50505050905090810190601f1680156108575780820380516001836020036101000a031916815260200191505b509250505060405180910390f35b34801561087157600080fd5b506108b2600480360381019080803573ffffffffffffffffffffffffffffffffffffffff16906020019092919080351515906020019092919050505061210c565b005b3480156108c057600080fd5b50610965600480360381019080803573ffffffffffffffffffffffffffffffffffffffff169060200190929190803573ffffffffffffffffffffffffffffffffffffffff16906020019092919080359060200190929190803590602001908201803590602001908080601f0160208091040260200160405190810160405280939291908181526020018383808284378201915050505050509192919290505050612248565b005b34801561097357600080fd5b50610a14600480360381019080803590602001908201803590602001908080601f0160208091040260200160405190810160405280939291908181526020018383808284378201915050505050509192919290803590602001908201803590602001908080601f016020809104026020016040519081016040528093929190818152602001838380828437820191505050505050919291929050505061227f565b604051808215151515815260200191505060405180910390f35b348015610a3a57600080fd5b50610a95600480360381019080803590602001908201803590602001908080601f016020809104026020016040519081016040528093929190818152602001838380828437820191505050505050919291929050505061236a565b6040518080602001828103825283818151815260200191508051906020019060200280838360005b83811015610ad8578082015181840152602081019050610abd565b505050509050019250505060405180910390f35b348015610af857600080fd5b50610b2d600480360381019080803573ffffffffffffffffffffffffffffffffffffffff1690602001909291905050506124b1565b005b348015610b3b57600080fd5b50610b5a60048036038101908080359060200190929190505050612737565b6040518080602001828103825283818151815260200191508051906020019080838360005b83811015610b9a578082015181840152602081019050610b7f565b50505050905090810190601f168015610bc75780820380516001836020036101000a031916815260200191505b509250505060405180910390f35b348015610be157600080fd5b50610c0a6004803603810190808035906020019092919080359060200190929190505050612800565b005b348015610c1857600080fd5b50610c3760048036038101908080359060200190929190505050612c8f565b6040518080602001828103825283818151815260200191508051906020019080838360005b83811015610c77578082015181840152602081019050610c5c565b50505050905090810190601f168015610ca45780820380516001836020036101000a031916815260200191505b509250505060405180910390f35b348015610cbe57600080fd5b50610d89600480360381019080803590602001908201803590602001908080601f0160208091040260200160405190810160405280939291908181526020018383808284378201915050505050509192919290803590602001908201803590602001908080601f0160208091040260200160405190810160405280939291908181526020018383808284378201915050505050509192919290803573ffffffffffffffffffffffffffffffffffffffff16906020019092919080359060200190929190505050612d58565b005b348015610d9757600080fd5b50610dec600480360381019080803573ffffffffffffffffffffffffffffffffffffffff169060200190929190803573ffffffffffffffffffffffffffffffffffffffff1690602001909291905050506130fd565b604051808215151515815260200191505060405180910390f35b606060058054600181600116156101000203166002900480601f016020809104026020016040519081016040528092919081815260200182805460018160011615610100020316600290048015610e9e5780601f10610e7357610100808354040283529160200191610e9e565b820191906000526020600020905b815481529060010190602001808311610e8157829003601f168201915b5050505050905090565b60006002600083815260200190815260200160002060009054906101000a900473ffffffffffffffffffffffffffffffffffffffff169050919050565b6000610ef082611f68565b90508073ffffffffffffffffffffffffffffffffffffffff168373ffffffffffffffffffffffffffffffffffffffff1614151515610f2d57600080fd5b8073ffffffffffffffffffffffffffffffffffffffff163373ffffffffffffffffffffffffffffffffffffffff161480610f6d5750610f6c81336130fd565b5b1515610f7857600080fd5b600073ffffffffffffffffffffffffffffffffffffffff16610f9983610ea8565b73ffffffffffffffffffffffffffffffffffffffff16141580610fe95750600073ffffffffffffffffffffffffffffffffffffffff168373ffffffffffffffffffffffffffffffffffffffff1614155b156110a657826002600084815260200190815260200160002060006101000a81548173ffffffffffffffffffffffffffffffffffffffff021916908373ffffffffffffffffffffffffffffffffffffffff1602179055508273ffffffffffffffffffffffffffffffffffffffff168173ffffffffffffffffffffffffffffffffffffffff167f8c5be1e5ebec7d5bd14f71427d1e84f3dd0314c0f7b2291e5b200ac8c7c3b925846040518082815260200191505060405180910390a35b505050565b6000600980549050905090565b80600015156110c657600080fd5b600073ffffffffffffffffffffffffffffffffffffffff168473ffffffffffffffffffffffffffffffffffffffff161415151561110257600080fd5b600073ffffffffffffffffffffffffffffffffffffffff168373ffffffffffffffffffffffffffffffffffffffff161415151561113e57600080fd5b6111488483613191565b61115284836132fa565b61115c8383613512565b8273ffffffffffffffffffffffffffffffffffffffff168473ffffffffffffffffffffffffffffffffffffffff167fddf252ad1be2c89b69c2b068fc378daa952ba7f163c4a11628f55a4df523b3ef846040518082815260200191505060405180910390a350505050565b6111cf614368565b60006012858154811015156111e057fe5b906000526020600020906004020160a060405190810160405290816000820160009054906101000a900460ff161515151581526020016000820160019054906101000a900473ffffffffffffffffffffffffffffffffffffffff1673ffffffffffffffffffffffffffffffffffffffff1673ffffffffffffffffffffffffffffffffffffffff168152602001600182015481526020016002820154815260200160038201548152505091508160000151151561129b57600080fd5b816080015134101515156112ae57600080fd5b6112c584846112c08560600151612c8f565b611c3b565b1515156112d157600080fd5b6112fc6012868154811015156112e357fe5b90600052602060002090600402016002015485856135e9565b600c60009054906101000a900473ffffffffffffffffffffffffffffffffffffffff1673ffffffffffffffffffffffffffffffffffffffff16631f29d2dc836020015184604001516040518363ffffffff167c0100000000000000000000000000000000000000000000000000000000028152600401808373ffffffffffffffffffffffffffffffffffffffff1673ffffffffffffffffffffffffffffffffffffffff16815260200182815260200192505050602060405180830381600087803b1580156113c957600080fd5b505af11580156113dd573d6000803e3d6000fd5b505050506040513d60208110156113f357600080fd5b810190808051906020019092919050505090508073ffffffffffffffffffffffffffffffffffffffff166108fc6064605e85608001510281151561143357fe5b049081150290604051600060405180830381858888f1935050505015801561145f573d6000803e3d6000fd5b503373ffffffffffffffffffffffffffffffffffffffff166108fc836080015134039081150290604051600060405180830381858888f193505050501580156114ac573d6000803e3d6000fd5b505050505050565b60006114bf83611fe6565b821015156114cc57600080fd5b600760008473ffffffffffffffffffffffffffffffffffffffff1673ffffffffffffffffffffffffffffffffffffffff1681526020019081526020016000208281548110151561151857fe5b9060005260206000200154905092915050565b606061153682611b91565b151561154157600080fd5b600e60008381526020019081526020016000208054600181600116156101000203166002900480601f0160208091040260200160405190810160405280929190818152602001828054600181600116156101000203166002900480156115e85780601f106115bd576101008083540402835291602001916115e8565b820191906000526020600020905b8154815290600101906020018083116115cb57829003601f168201915b50505050509050919050565b6115fc614368565b60128281548110151561160b57fe5b906000526020600020906004020160a060405190810160405290816000820160009054906101000a900460ff161515151581526020016000820160019054906101000a900473ffffffffffffffffffffffffffffffffffffffff1673ffffffffffffffffffffffffffffffffffffffff1673ffffffffffffffffffffffffffffffffffffffff16815260200160018201548152602001600282015481526020016003820154815250509050806000015115156116c657600080fd5b3373ffffffffffffffffffffffffffffffffffffffff16600c60009054906101000a900473ffffffffffffffffffffffffffffffffffffffff1673ffffffffffffffffffffffffffffffffffffffff16631f29d2dc836020015184604001516040518363ffffffff167c0100000000000000000000000000000000000000000000000000000000028152600401808373ffffffffffffffffffffffffffffffffffffffff1673ffffffffffffffffffffffffffffffffffffffff16815260200182815260200192505050602060405180830381600087803b1580156117aa57600080fd5b505af11580156117be573d6000803e3d6000fd5b505050506040513d60208110156117d457600080fd5b810190808051906020019092919050505073ffffffffffffffffffffffffffffffffffffffff1614151561180757600080fd5b60128281548110151561181657fe5b9060005260206000209060040201600080820160006101000a81549060ff02191690556000820160016101000a81549073ffffffffffffffffffffffffffffffffffffffff021916905560018201600090556002820160009055600382016000905550507f88686b85d6f2c3ab9a04e4f15a22fcfa025ffd97226dcf0a67cdf682def55676826040518082815260200191505060405180910390a15050565b80600015156118c357600080fd5b6118df8484846020604051908101604052806000815250612248565b50505050565b6040805190810160405280600b81526020017f455243373231546f6b656e0000000000000000000000000000000000000000008152506040805190810160405280600581526020017f312e392e3000000000000000000000000000000000000000000000000000000081525061195b828261227f565b15151561196757600080fd5b836005908051906020019061197d9291906143b0565b5082600690805190602001906119949291906143b0565b507fdd117a11c22118c9dee4b5a67ce578bc44529dce21ee0ccc439588fbb9fb4ea38282604051808060200180602001838103835285818151815260200191508051906020019080838360005b838110156119fc5780820151818401526020810190506119e1565b50505050905090810190601f168015611a295780820380516001836020036101000a031916815260200191505b50838103825284818151815260200191508051906020019080838360005b83811015611a62578082015181840152602081019050611a47565b50505050905090810190601f168015611a8f5780820380516001836020036101000a031916815260200191505b5094505050505060405180910390a160016000836040518082805190602001908083835b602083101515611ad85780518252602082019150602081019050602083039250611ab3565b6001836020036101000a0380198251168184511680821785525050505050509050019150509081526020016040518091039020826040518082805190602001908083835b602083101515611b415780518252602082019150602081019050602083039250611b1c565b6001836020036101000a038019825116818451168082178552505050505050905001915050908152602001604051809103902060006101000a81548160ff02191690831515021790555050505050565b6000806001600084815260200190815260200160002060009054906101000a900473ffffffffffffffffffffffffffffffffffffffff169050600073ffffffffffffffffffffffffffffffffffffffff168173ffffffffffffffffffffffffffffffffffffffff161415915050919050565b6000611c0d6110ab565b82101515611c1a57600080fd5b600982815481101515611c2957fe5b90600052602060002001549050919050565b6000806060806000856040518082805190602001908083835b602083101515611c795780518252602082019150602081019050602083039250611c54565b6001836020036101000a03801982511681845116808217855250505050505090500191505060405180910390209350600c60009054906101000a900473ffffffffffffffffffffffffffffffffffffffff1673ffffffffffffffffffffffffffffffffffffffff16634e94f49989896040518363ffffffff167c0100000000000000000000000000000000000000000000000000000000028152600401808373ffffffffffffffffffffffffffffffffffffffff1673ffffffffffffffffffffffffffffffffffffffff16815260200182815260200192505050600060405180830381600087803b158015611d6d57600080fd5b505af1158015611d81573d6000803e3d6000fd5b505050506040513d6000823e3d601f19601f820116820180604052506040811015611dab57600080fd5b810190808051640100000000811115611dc357600080fd5b82810190506020810184811115611dd957600080fd5b8151856020820283011164010000000082111715611df657600080fd5b50509291906020018051640100000000811115611e1257600080fd5b82810190506020810184811115611e2857600080fd5b8151856020820283011164010000000082111715611e4557600080fd5b50509291905050508093508194505050600090505b8251811015611f58573073ffffffffffffffffffffffffffffffffffffffff168382815181101515611e8857fe5b9060200190602002015173ffffffffffffffffffffffffffffffffffffffff16148015611f3d57508360001916611ed58383815181101515611ec657fe5b90602001906020020151612c8f565b6040518082805190602001908083835b602083101515611f0a5780518252602082019150602081019050602083039250611ee5565b6001836020036101000a038019825116818451168082178552505050505050905001915050604051809103902060001916145b15611f4b5760019450611f5d565b8080600101915050611e5a565b600094505b505050509392505050565b6000806001600084815260200190815260200160002060009054906101000a900473ffffffffffffffffffffffffffffffffffffffff169050600073ffffffffffffffffffffffffffffffffffffffff168173ffffffffffffffffffffffffffffffffffffffff1614151515611fdd57600080fd5b80915050919050565b60008073ffffffffffffffffffffffffffffffffffffffff168273ffffffffffffffffffffffffffffffffffffffff161415151561202357600080fd5b600360008373ffffffffffffffffffffffffffffffffffffffff1673ffffffffffffffffffffffffffffffffffffffff168152602001908152602001600020549050919050565b606060068054600181600116156101000203166002900480601f0160208091040260200160405190810160405280929190818152602001828054600181600116156101000203166002900480156121025780601f106120d757610100808354040283529160200191612102565b820191906000526020600020905b8154815290600101906020018083116120e557829003601f168201915b5050505050905090565b3373ffffffffffffffffffffffffffffffffffffffff168273ffffffffffffffffffffffffffffffffffffffff161415151561214757600080fd5b80600460003373ffffffffffffffffffffffffffffffffffffffff1673ffffffffffffffffffffffffffffffffffffffff16815260200190815260200160002060008473ffffffffffffffffffffffffffffffffffffffff1673ffffffffffffffffffffffffffffffffffffffff16815260200190815260200160002060006101000a81548160ff0219169083151502179055508173ffffffffffffffffffffffffffffffffffffffff163373ffffffffffffffffffffffffffffffffffffffff167f17307eab39ab6107e8899845ad3d59bd9653f200f220920489ca2b5937696c3183604051808215151515815260200191505060405180910390a35050565b816000151561225657600080fd5b6122618585856110b8565b61226d85858585613906565b151561227857600080fd5b5050505050565b600080836040518082805190602001908083835b6020831015156122b85780518252602082019150602081019050602083039250612293565b6001836020036101000a0380198251168184511680821785525050505050509050019150509081526020016040518091039020826040518082805190602001908083835b60208310151561232157805182526020820191506020810190506020830392506122fc565b6001836020036101000a038019825116818451168082178552505050505050905001915050908152602001604051809103902060009054906101000a900460ff16905092915050565b6060600d826040518082805190602001908083835b6020831015156123a4578051825260208201915060208101905060208303925061237f565b6001836020036101000a038019825116818451168082178552505050505050905001915050908152602001604051809103902060009054906101000a900460ff1615156123f057600080fd5b6011826040518082805190602001908083835b6020831015156124285780518252602082019150602081019050602083039250612403565b6001836020036101000a03801982511681845116808217855250505050505090500191505090815260200160405180910390208054806020026020016040519081016040528092919081815260200182805480156124a557602002820191906000526020600020905b815481526020019060010190808311612491575b50505050509050919050565b6040805190810160405280600881526020017f4d61726b657465580000000000000000000000000000000000000000000000008152506040805190810160405280600181526020017f3000000000000000000000000000000000000000000000000000000000000000815250612527828261227f565b15151561253357600080fd5b61253c83613af4565b7fdd117a11c22118c9dee4b5a67ce578bc44529dce21ee0ccc439588fbb9fb4ea38282604051808060200180602001838103835285818151815260200191508051906020019080838360005b838110156125a3578082015181840152602081019050612588565b50505050905090810190601f1680156125d05780820380516001836020036101000a031916815260200191505b50838103825284818151815260200191508051906020019080838360005b838110156126095780820151818401526020810190506125ee565b50505050905090810190601f1680156126365780820380516001836020036101000a031916815260200191505b5094505050505060405180910390a160016000836040518082805190602001908083835b60208310151561267f578051825260208201915060208101905060208303925061265a565b6001836020036101000a0380198251168184511680821785525050505050509050019150509081526020016040518091039020826040518082805190602001908083835b6020831015156126e857805182526020820191506020810190506020830392506126c3565b6001836020036101000a038019825116818451168082178552505050505050905001915050908152602001604051809103902060006101000a81548160ff021916908315150217905550505050565b606061274282611b91565b151561274d57600080fd5b600b60008381526020019081526020016000208054600181600116156101000203166002900480601f0160208091040260200160405190810160405280929190818152602001828054600181600116156101000203166002900480156127f45780601f106127c9576101008083540402835291602001916127f4565b820191906000526020600020905b8154815290600101906020018083116127d757829003601f168201915b50505050509050919050565b600080600080600c60009054906101000a900473ffffffffffffffffffffffffffffffffffffffff1673ffffffffffffffffffffffffffffffffffffffff16631f29d2dc30886040518363ffffffff167c0100000000000000000000000000000000000000000000000000000000028152600401808373ffffffffffffffffffffffffffffffffffffffff1673ffffffffffffffffffffffffffffffffffffffff16815260200182815260200192505050602060405180830381600087803b1580156128cb57600080fd5b505af11580156128df573d6000803e3d6000fd5b505050506040513d60208110156128f557600080fd5b810190808051906020019092919050505093503373ffffffffffffffffffffffffffffffffffffffff168473ffffffffffffffffffffffffffffffffffffffff1614151561294257600080fd5b600c60009054906101000a900473ffffffffffffffffffffffffffffffffffffffff1673ffffffffffffffffffffffffffffffffffffffff1663be5eabca30886040518363ffffffff167c0100000000000000000000000000000000000000000000000000000000028152600401808373ffffffffffffffffffffffffffffffffffffffff1673ffffffffffffffffffffffffffffffffffffffff168152602001828152602001925050506040805180830381600087803b158015612a0657600080fd5b505af1158015612a1a573d6000803e3d6000fd5b505050506040513d6040811015612a3057600080fd5b8101908080519060200190929190805190602001909291905050508093508194505050601260a0604051908101604052806001151581526020018573ffffffffffffffffffffffffffffffffffffffff168152602001848152602001888152602001878152509080600181540180825580915050906001820390600052602060002090600402016000909192909190915060008201518160000160006101000a81548160ff02191690831515021790555060208201518160000160016101000a81548173ffffffffffffffffffffffffffffffffffffffff021916908373ffffffffffffffffffffffffffffffffffffffff160217905550604082015181600101556060820151816002015560808201518160030155505090507f7b59ef2398c2d4266c4acf73e50533b42f8ceb0fc8baee3cc2581716e22309a46001820387878686600e60008d8152602001908152602001600020601060008e815260200190815260200160002054604051808881526020018781526020018681526020018573ffffffffffffffffffffffffffffffffffffffff1673ffffffffffffffffffffffffffffffffffffffff16815260200184815260200180602001838152602001828103825284818154600181600116156101000203166002900481526020019150805460018160011615610100020316600290048015612c735780601f10612c4857610100808354040283529160200191612c73565b820191906000526020600020905b815481529060010190602001808311612c5657829003601f168201915b50509850505050505050505060405180910390a1505050505050565b6060612c9a82611b91565b1515612ca557600080fd5b600f60008381526020019081526020016000208054600181600116156101000203166002900480601f016020809104026020016040519081016040528092919081815260200182805460018160011615610100020316600290048015612d4c5780601f10612d2157610100808354040283529160200191612d4c565b820191906000526020600020905b815481529060010190602001808311612d2f57829003601f168201915b50505050509050919050565b6000600d846040518082805190602001908083835b602083101515612d925780518252602082019150602081019050602083039250612d6d565b6001836020036101000a038019825116818451168082178552505050505050905001915050908152602001604051809103902060009054906101000a900460ff16151515612ddf57600080fd5b6001600980549050019050612e16600c60009054906101000a900473ffffffffffffffffffffffffffffffffffffffff1682613e26565b6001600d856040518082805190602001908083835b602083101515612e505780518252602082019150602081019050602083039250612e2b565b6001836020036101000a038019825116818451168082178552505050505050905001915050908152602001604051809103902060006101000a81548160ff02191690831515021790555084600e60008381526020019081526020016000209080519060200190612ec19291906143b0565b5083600f60008381526020019081526020016000209080519060200190612ee99291906143b0565b506011846040518082805190602001908083835b602083101515612f225780518252602082019150602081019050602083039250612efd565b6001836020036101000a0380198251168184511680821785525050505050509050019150509081526020016040518091039020819080600181540180825580915050906001820390600052602060002001600090919290919091505550600c60009054906101000a900473ffffffffffffffffffffffffffffffffffffffff1673ffffffffffffffffffffffffffffffffffffffff1663f0b9e5ba3083612fc98787613e7d565b6040518463ffffffff167c0100000000000000000000000000000000000000000000000000000000028152600401808473ffffffffffffffffffffffffffffffffffffffff1673ffffffffffffffffffffffffffffffffffffffff16815260200183815260200180602001828103825283818151815260200191508051906020019080838360005b8381101561306c578082015181840152602081019050613051565b50505050905090810190601f1680156130995780820380516001836020036101000a031916815260200191505b50945050505050602060405180830381600087803b1580156130ba57600080fd5b505af11580156130ce573d6000803e3d6000fd5b505050506040513d60208110156130e457600080fd5b8101908080519060200190929190505050505050505050565b6000600460008473ffffffffffffffffffffffffffffffffffffffff1673ffffffffffffffffffffffffffffffffffffffff16815260200190815260200160002060008373ffffffffffffffffffffffffffffffffffffffff1673ffffffffffffffffffffffffffffffffffffffff16815260200190815260200160002060009054906101000a900460ff16905092915050565b8173ffffffffffffffffffffffffffffffffffffffff166131b182611f68565b73ffffffffffffffffffffffffffffffffffffffff161415156131d357600080fd5b600073ffffffffffffffffffffffffffffffffffffffff166002600083815260200190815260200160002060009054906101000a900473ffffffffffffffffffffffffffffffffffffffff1673ffffffffffffffffffffffffffffffffffffffff161415156132f65760006002600083815260200190815260200160002060006101000a81548173ffffffffffffffffffffffffffffffffffffffff021916908373ffffffffffffffffffffffffffffffffffffffff160217905550600073ffffffffffffffffffffffffffffffffffffffff168273ffffffffffffffffffffffffffffffffffffffff167f8c5be1e5ebec7d5bd14f71427d1e84f3dd0314c0f7b2291e5b200ac8c7c3b925836040518082815260200191505060405180910390a35b5050565b60008060006133098585613fe7565b600860008581526020019081526020016000205492506133756001600760008873ffffffffffffffffffffffffffffffffffffffff1673ffffffffffffffffffffffffffffffffffffffff1681526020019081526020016000208054905061411690919063ffffffff16565b9150600760008673ffffffffffffffffffffffffffffffffffffffff1673ffffffffffffffffffffffffffffffffffffffff168152602001908152602001600020828154811015156133c357fe5b9060005260206000200154905080600760008773ffffffffffffffffffffffffffffffffffffffff1673ffffffffffffffffffffffffffffffffffffffff1681526020019081526020016000208481548110151561341d57fe5b90600052602060002001819055506000600760008773ffffffffffffffffffffffffffffffffffffffff1673ffffffffffffffffffffffffffffffffffffffff1681526020019081526020016000208381548110151561347957fe5b9060005260206000200181905550600760008673ffffffffffffffffffffffffffffffffffffffff1673ffffffffffffffffffffffffffffffffffffffff1681526020019081526020016000208054809190600190036134d99190614430565b50600060086000868152602001908152602001600020819055508260086000838152602001908152602001600020819055505050505050565b600061351e838361412f565b600760008473ffffffffffffffffffffffffffffffffffffffff1673ffffffffffffffffffffffffffffffffffffffff168152602001908152602001600020805490509050600760008473ffffffffffffffffffffffffffffffffffffffff1673ffffffffffffffffffffffffffffffffffffffff168152602001908152602001600020829080600181540180825580915050906001820390600052602060002001600090919290919091505550806008600084815260200190815260200160002081905550505050565b60006001600980549050019050613622600c60009054906101000a900473ffffffffffffffffffffffffffffffffffffffff1682613e26565b600e6000858152602001908152602001600020600e6000838152602001908152602001600020908054600181600116156101000203166002900461366792919061445c565b50600f6000858152602001908152602001600020600f600083815260200190815260200160002090805460018160011615610100020316600290046136ad92919061445c565b50600160106000868152602001908152602001600020540160106000838152602001908152602001600020819055506011600f6000838152602001908152602001600020604051808280546001816001161561010002031660029004801561374c5780601f1061372a57610100808354040283529182019161374c565b820191906000526020600020905b815481529060010190602001808311613738575b50509150509081526020016040518091039020819080600181540180825580915050906001820390600052602060002001600090919290919091505550600c60009054906101000a900473ffffffffffffffffffffffffffffffffffffffff1673ffffffffffffffffffffffffffffffffffffffff1663f0b9e5ba30836137d38787613e7d565b6040518463ffffffff167c0100000000000000000000000000000000000000000000000000000000028152600401808473ffffffffffffffffffffffffffffffffffffffff1673ffffffffffffffffffffffffffffffffffffffff16815260200183815260200180602001828103825283818151815260200191508051906020019080838360005b8381101561387657808201518184015260208101905061385b565b50505050905090810190601f1680156138a35780820380516001836020036101000a031916815260200191505b50945050505050602060405180830381600087803b1580156138c457600080fd5b505af11580156138d8573d6000803e3d6000fd5b505050506040513d60208110156138ee57600080fd5b81019080805190602001909291905050505050505050565b6000806139288573ffffffffffffffffffffffffffffffffffffffff16614289565b15156139375760019150613aeb565b8473ffffffffffffffffffffffffffffffffffffffff1663f0b9e5ba8786866040518463ffffffff167c0100000000000000000000000000000000000000000000000000000000028152600401808473ffffffffffffffffffffffffffffffffffffffff1673ffffffffffffffffffffffffffffffffffffffff16815260200183815260200180602001828103825283818151815260200191508051906020019080838360005b838110156139f95780820151818401526020810190506139de565b50505050905090810190601f168015613a265780820380516001836020036101000a031916815260200191505b50945050505050602060405180830381600087803b158015613a4757600080fd5b505af1158015613a5b573d6000803e3d6000fd5b505050506040513d6020811015613a7157600080fd5b8101908080519060200190929190505050905063f0b9e5ba7c0100000000000000000000000000000000000000000000000000000000027bffffffffffffffffffffffffffffffffffffffffffffffffffffffff1916817bffffffffffffffffffffffffffffffffffffffffffffffffffffffff19161491505b50949350505050565b6040805190810160405280600781526020017f546f6b656e6558000000000000000000000000000000000000000000000000008152506040805190810160405280600181526020017f3000000000000000000000000000000000000000000000000000000000000000815250613b6a828261227f565b151515613b7657600080fd5b613bea6040805190810160405280600781526020017f536b696c6c6558000000000000000000000000000000000000000000000000008152506040805190810160405280600481526020017f534b4c58000000000000000000000000000000000000000000000000000000008152506118e5565b82600c60006101000a81548173ffffffffffffffffffffffffffffffffffffffff021916908373ffffffffffffffffffffffffffffffffffffffff1602179055507fdd117a11c22118c9dee4b5a67ce578bc44529dce21ee0ccc439588fbb9fb4ea38282604051808060200180602001838103835285818151815260200191508051906020019080838360005b83811015613c92578082015181840152602081019050613c77565b50505050905090810190601f168015613cbf5780820380516001836020036101000a031916815260200191505b50838103825284818151815260200191508051906020019080838360005b83811015613cf8578082015181840152602081019050613cdd565b50505050905090810190601f168015613d255780820380516001836020036101000a031916815260200191505b5094505050505060405180910390a160016000836040518082805190602001908083835b602083101515613d6e5780518252602082019150602081019050602083039250613d49565b6001836020036101000a0380198251168184511680821785525050505050509050019150509081526020016040518091039020826040518082805190602001908083835b602083101515613dd75780518252602082019150602081019050602083039250613db2565b6001836020036101000a038019825116818451168082178552505050505050905001915050908152602001604051809103902060006101000a81548160ff021916908315150217905550505050565b613e30828261429c565b600980549050600a60008381526020019081526020016000208190555060098190806001815401808255809150509060018203906000526020600020016000909192909190915055505050565b6060600080606060008673ffffffffffffffffffffffffffffffffffffffff166001029350856001029250604080519080825280601f01601f191660200182016040528015613edb5781602001602082028038833980820191505090505b509150600090505b6020811015613fda578381602081101515613efa57fe5b1a7f0100000000000000000000000000000000000000000000000000000000000000028282815181101515613f2b57fe5b9060200101907effffffffffffffffffffffffffffffffffffffffffffffffffffffffffffff1916908160001a9053508281602081101515613f6957fe5b1a7f0100000000000000000000000000000000000000000000000000000000000000028260208301815181101515613f9d57fe5b9060200101907effffffffffffffffffffffffffffffffffffffffffffffffffffffffffffff1916908160001a9053508080600101915050613ee3565b8194505050505092915050565b8173ffffffffffffffffffffffffffffffffffffffff1661400782611f68565b73ffffffffffffffffffffffffffffffffffffffff1614151561402957600080fd5b61407c6001600360008573ffffffffffffffffffffffffffffffffffffffff1673ffffffffffffffffffffffffffffffffffffffff1681526020019081526020016000205461411690919063ffffffff16565b600360008473ffffffffffffffffffffffffffffffffffffffff1673ffffffffffffffffffffffffffffffffffffffff1681526020019081526020016000208190555060006001600083815260200190815260200160002060006101000a81548173ffffffffffffffffffffffffffffffffffffffff021916908373ffffffffffffffffffffffffffffffffffffffff1602179055505050565b600082821115151561412457fe5b818303905092915050565b600073ffffffffffffffffffffffffffffffffffffffff166001600083815260200190815260200160002060009054906101000a900473ffffffffffffffffffffffffffffffffffffffff1673ffffffffffffffffffffffffffffffffffffffff1614151561419d57600080fd5b816001600083815260200190815260200160002060006101000a81548173ffffffffffffffffffffffffffffffffffffffff021916908373ffffffffffffffffffffffffffffffffffffffff1602179055506142426001600360008573ffffffffffffffffffffffffffffffffffffffff1673ffffffffffffffffffffffffffffffffffffffff1681526020019081526020016000205461434c90919063ffffffff16565b600360008473ffffffffffffffffffffffffffffffffffffffff1673ffffffffffffffffffffffffffffffffffffffff168152602001908152602001600020819055505050565b600080823b905060008111915050919050565b600073ffffffffffffffffffffffffffffffffffffffff168273ffffffffffffffffffffffffffffffffffffffff16141515156142d857600080fd5b6142e28282613512565b8173ffffffffffffffffffffffffffffffffffffffff16600073ffffffffffffffffffffffffffffffffffffffff167fddf252ad1be2c89b69c2b068fc378daa952ba7f163c4a11628f55a4df523b3ef836040518082815260200191505060405180910390a35050565b6000818301905082811015151561435f57fe5b80905092915050565b60a060405190810160405280600015158152602001600073ffffffffffffffffffffffffffffffffffffffff1681526020016000815260200160008152602001600081525090565b828054600181600116156101000203166002900490600052602060002090601f016020900481019282601f106143f157805160ff191683800117855561441f565b8280016001018555821561441f579182015b8281111561441e578251825591602001919060010190614403565b5b50905061442c91906144e3565b5090565b8154818355818111156144575781836000526020600020918201910161445691906144e3565b5b505050565b828054600181600116156101000203166002900490600052602060002090601f016020900481019282601f1061449557805485556144d2565b828001600101855582156144d257600052602060002091601f016020900482015b828111156144d15782548255916001019190600101906144b6565b5b5090506144df91906144e3565b5090565b61450591905b808211156145015760008160009055506001016144e9565b5090565b905600a165627a7a7230582013ec4916a2547a01b8e043fd73c3a2f39cf4f9c4f3a344f9e893227d1e84c64c0029",
  "source": "pragma solidity ^0.4.23;\n\nimport \"./ERC721ComposableRegistry.sol\";\nimport \"openzeppelin-zos/contracts/token/ERC721/ERC721Token.sol\";\nimport \"openzeppelin-zos/contracts/ownership/Ownable.sol\";\n\ncontract TokeneX is ERC721Token {\n\n    ERC721ComposableRegistry internal composableRegistry;\n\n    mapping(string => bool) private ipfsHashExists;\n    mapping(uint => string) internal tokenIdToName;\n    mapping(uint => string) internal tokenIdToIpfsHash;\n    mapping(uint => uint) internal tokenIdToGeneration;\n    mapping(string => uint[]) internal ipfsHashToTokenIds;\n\n    function initialize(address cr) isInitializer(\"TokeneX\", \"0\") public {\n        ERC721Token.initialize(\"SkilleX\", \"SKLX\");\n        composableRegistry = ERC721ComposableRegistry(cr);\n    }\n\n    function createSkill(string name, string ipfsHash, address toErc721, uint toTokenId) public {\n        require(!ipfsHashExists[ipfsHash]);\n        uint tokenId = allTokens.length + 1;\n        _mint(composableRegistry, tokenId);\n        ipfsHashExists[ipfsHash] = true;\n        tokenIdToName[tokenId] = name;\n        tokenIdToIpfsHash[tokenId] = ipfsHash;\n        ipfsHashToTokenIds[ipfsHash].push(tokenId);\n        composableRegistry.onERC721Received(this, tokenId, addressAndUintToBytes(toErc721, toTokenId));\n    }\n\n    function copySkill(uint originalId, address toErc721, uint toTokenId) internal {\n        uint tokenId = allTokens.length + 1;\n        _mint(composableRegistry, tokenId);\n        tokenIdToName[tokenId] = tokenIdToName[originalId];\n        tokenIdToIpfsHash[tokenId] = tokenIdToIpfsHash[originalId];\n        tokenIdToGeneration[tokenId] = tokenIdToGeneration[originalId] + 1;\n        ipfsHashToTokenIds[tokenIdToIpfsHash[tokenId]].push(tokenId);\n        composableRegistry.onERC721Received(this, tokenId, addressAndUintToBytes(toErc721, toTokenId));\n    }\n\n    function addressAndUintToBytes(address erc721, uint tokenId) private pure returns (bytes) {\n        bytes32 bytesErc721 = bytes32(erc721);\n        bytes32 bytesTokenId = bytes32(tokenId);\n        bytes memory ret = new bytes(64);\n        for (uint i = 0; i < 32; i++) {\n            ret[i] = bytesErc721[i];\n            ret[i + 32] = bytesTokenId[i];\n        }\n        return ret;\n    }\n\n    function getSkillName(uint tokenId) public view returns (string) {\n        require(exists(tokenId));\n        return tokenIdToName[tokenId];\n    }\n\n    function getIpfsHash(uint tokenId) public view returns (string) {\n        require(exists(tokenId));\n        return tokenIdToIpfsHash[tokenId];\n    }\n\n    modifier canTransfer(uint256 _tokenId) {\n        require(false);\n        _;\n    }\n\n    function getSkillOwners(string ipfsHash) public view returns (uint[]) {\n        require(ipfsHashExists[ipfsHash]);\n        return ipfsHashToTokenIds[ipfsHash];\n    }\n}\n\ncontract MarketeX is TokeneX {\n\n    event OfferCreated(\n        uint offerId,\n        uint skillId,\n        uint price,\n        address teacherErc721,\n        uint teacherTokenId,\n        string skillName,\n        uint generation\n    );\n\n    event OfferDeleted(\n        uint offerId\n    );\n\n    struct Offer {\n        bool valid;\n        ERC721 teacherErc721;\n        uint teacherId;\n        uint skillId;\n        uint price;\n    }\n\n    Offer[] offers;\n\n    function initialize(address cr) isInitializer(\"MarketeX\", \"0\") public {\n        TokeneX.initialize(cr);\n    }\n\n    function offerTeach(uint skillId, uint price) public {\n        address owner = composableRegistry.ownerOf(this, skillId);\n        require(owner == msg.sender);\n        ERC721 erc721;\n        uint tokenId;\n        (erc721, tokenId) = composableRegistry.parentOf(this, skillId);\n        uint offerIdPlusOne = offers.push(Offer(true, erc721, tokenId, skillId, price));\n        emit OfferCreated(offerIdPlusOne - 1, skillId, price, erc721, tokenId, tokenIdToName[skillId], tokenIdToGeneration[skillId]);\n    }\n\n    function cancel(uint offerId) public {\n        Offer memory offer = offers[offerId];\n        require(offer.valid);\n        require(composableRegistry.ownerOf(offer.teacherErc721, offer.teacherId) == msg.sender);\n        delete offers[offerId];\n        emit OfferDeleted(offerId);\n    }\n\n    function learn(uint offerId, ERC721 toErc721, uint toTokenId) public payable {\n        Offer memory offer = offers[offerId];\n        require(offer.valid);\n        require(msg.value >= offer.price);\n        require(!hasSkill(toErc721, toTokenId, getIpfsHash(offer.skillId)));\n        copySkill(offers[offerId].skillId, toErc721, toTokenId);\n        address teacherOwner = composableRegistry.ownerOf(offer.teacherErc721, offer.teacherId);\n        teacherOwner.transfer(offer.price * 94 / 100);\n        msg.sender.transfer(msg.value - offer.price);\n    }\n\n    function hasSkill(ERC721 erc721, uint tokenId, string ipfsHash) public view returns (bool) {\n        bytes32 hash = keccak256(ipfsHash);\n        ERC721[] memory erc721s;\n        uint[] memory tokenIds;\n        (erc721s, tokenIds) = composableRegistry.children(erc721, tokenId);\n        for (uint i = 0; i < erc721s.length; i++) {\n            if (erc721s[i] == this && keccak256(getIpfsHash(tokenIds[i])) == hash) {\n                return true;\n            }\n        }\n        return false;\n    }\n}\n\ncontract WithdraweX is Ownable {\n\n    function initialize(address owner) isInitializer(\"WithdraweX\", \"0\") public {\n        Ownable.initialize(owner);\n    }\n\n    function withdrawEther() public onlyOwner {\n        msg.sender.transfer(address(this).balance);\n    }\n}\n\ncontract SkilleX is MarketeX, WithdraweX {\n\n    function initialize(address cr, address owner) isInitializer(\"SkilleX\", \"0\") public {\n        MarketeX.initialize(cr);\n        WithdraweX.initialize(owner);\n    }\n}\n",
  "sourcePath": "/home/kghost0/workspace/skills/contracts/Skillex.sol",
  "compiler": {
    "name": "solc",
    "version": "0.4.24+commit.e67f0147.Emscripten.clang"
  },
  "schemaVersion": "2.0.0",
  "updatedAt": "2018-05-27T10:30:34.819Z"
}