{
  "contractName": "TokeneX",
  "abi": [
    {
      "constant": true,
      "inputs": [],
      "name": "name",
      "outputs": [
        {
          "name": "",
          "type": "string"
        }
      ],
      "payable": false,
      "stateMutability": "view",
      "type": "function"
    },
    {
      "constant": true,
      "inputs": [
        {
          "name": "_tokenId",
          "type": "uint256"
        }
      ],
      "name": "getApproved",
      "outputs": [
        {
          "name": "",
          "type": "address"
        }
      ],
      "payable": false,
      "stateMutability": "view",
      "type": "function"
    },
    {
      "constant": false,
      "inputs": [
        {
          "name": "_to",
          "type": "address"
        },
        {
          "name": "_tokenId",
          "type": "uint256"
        }
      ],
      "name": "approve",
      "outputs": [],
      "payable": false,
      "stateMutability": "nonpayable",
      "type": "function"
    },
    {
      "constant": true,
      "inputs": [],
      "name": "totalSupply",
      "outputs": [
        {
          "name": "",
          "type": "uint256"
        }
      ],
      "payable": false,
      "stateMutability": "view",
      "type": "function"
    },
    {
      "constant": false,
      "inputs": [
        {
          "name": "_from",
          "type": "address"
        },
        {
          "name": "_to",
          "type": "address"
        },
        {
          "name": "_tokenId",
          "type": "uint256"
        }
      ],
      "name": "transferFrom",
      "outputs": [],
      "payable": false,
      "stateMutability": "nonpayable",
      "type": "function"
    },
    {
      "constant": true,
      "inputs": [
        {
          "name": "_owner",
          "type": "address"
        },
        {
          "name": "_index",
          "type": "uint256"
        }
      ],
      "name": "tokenOfOwnerByIndex",
      "outputs": [
        {
          "name": "",
          "type": "uint256"
        }
      ],
      "payable": false,
      "stateMutability": "view",
      "type": "function"
    },
    {
      "constant": false,
      "inputs": [
        {
          "name": "_from",
          "type": "address"
        },
        {
          "name": "_to",
          "type": "address"
        },
        {
          "name": "_tokenId",
          "type": "uint256"
        }
      ],
      "name": "safeTransferFrom",
      "outputs": [],
      "payable": false,
      "stateMutability": "nonpayable",
      "type": "function"
    },
    {
      "constant": true,
      "inputs": [
        {
          "name": "_tokenId",
          "type": "uint256"
        }
      ],
      "name": "exists",
      "outputs": [
        {
          "name": "",
          "type": "bool"
        }
      ],
      "payable": false,
      "stateMutability": "view",
      "type": "function"
    },
    {
      "constant": true,
      "inputs": [
        {
          "name": "_index",
          "type": "uint256"
        }
      ],
      "name": "tokenByIndex",
      "outputs": [
        {
          "name": "",
          "type": "uint256"
        }
      ],
      "payable": false,
      "stateMutability": "view",
      "type": "function"
    },
    {
      "constant": true,
      "inputs": [
        {
          "name": "_tokenId",
          "type": "uint256"
        }
      ],
      "name": "ownerOf",
      "outputs": [
        {
          "name": "",
          "type": "address"
        }
      ],
      "payable": false,
      "stateMutability": "view",
      "type": "function"
    },
    {
      "constant": true,
      "inputs": [
        {
          "name": "_owner",
          "type": "address"
        }
      ],
      "name": "balanceOf",
      "outputs": [
        {
          "name": "",
          "type": "uint256"
        }
      ],
      "payable": false,
      "stateMutability": "view",
      "type": "function"
    },
    {
      "constant": true,
      "inputs": [],
      "name": "symbol",
      "outputs": [
        {
          "name": "",
          "type": "string"
        }
      ],
      "payable": false,
      "stateMutability": "view",
      "type": "function"
    },
    {
      "constant": false,
      "inputs": [
        {
          "name": "_to",
          "type": "address"
        },
        {
          "name": "_approved",
          "type": "bool"
        }
      ],
      "name": "setApprovalForAll",
      "outputs": [],
      "payable": false,
      "stateMutability": "nonpayable",
      "type": "function"
    },
    {
      "constant": false,
      "inputs": [
        {
          "name": "_from",
          "type": "address"
        },
        {
          "name": "_to",
          "type": "address"
        },
        {
          "name": "_tokenId",
          "type": "uint256"
        },
        {
          "name": "_data",
          "type": "bytes"
        }
      ],
      "name": "safeTransferFrom",
      "outputs": [],
      "payable": false,
      "stateMutability": "nonpayable",
      "type": "function"
    },
    {
      "constant": true,
      "inputs": [
        {
          "name": "contractName",
          "type": "string"
        },
        {
          "name": "migrationId",
          "type": "string"
        }
      ],
      "name": "isMigrated",
      "outputs": [
        {
          "name": "",
          "type": "bool"
        }
      ],
      "payable": false,
      "stateMutability": "view",
      "type": "function"
    },
    {
      "constant": true,
      "inputs": [
        {
          "name": "_tokenId",
          "type": "uint256"
        }
      ],
      "name": "tokenURI",
      "outputs": [
        {
          "name": "",
          "type": "string"
        }
      ],
      "payable": false,
      "stateMutability": "view",
      "type": "function"
    },
    {
      "constant": true,
      "inputs": [
        {
          "name": "_owner",
          "type": "address"
        },
        {
          "name": "_operator",
          "type": "address"
        }
      ],
      "name": "isApprovedForAll",
      "outputs": [
        {
          "name": "",
          "type": "bool"
        }
      ],
      "payable": false,
      "stateMutability": "view",
      "type": "function"
    },
    {
      "anonymous": false,
      "inputs": [
        {
          "indexed": true,
          "name": "_from",
          "type": "address"
        },
        {
          "indexed": true,
          "name": "_to",
          "type": "address"
        },
        {
          "indexed": false,
          "name": "_tokenId",
          "type": "uint256"
        }
      ],
      "name": "Transfer",
      "type": "event"
    },
    {
      "anonymous": false,
      "inputs": [
        {
          "indexed": true,
          "name": "_owner",
          "type": "address"
        },
        {
          "indexed": true,
          "name": "_approved",
          "type": "address"
        },
        {
          "indexed": false,
          "name": "_tokenId",
          "type": "uint256"
        }
      ],
      "name": "Approval",
      "type": "event"
    },
    {
      "anonymous": false,
      "inputs": [
        {
          "indexed": true,
          "name": "_owner",
          "type": "address"
        },
        {
          "indexed": true,
          "name": "_operator",
          "type": "address"
        },
        {
          "indexed": false,
          "name": "_approved",
          "type": "bool"
        }
      ],
      "name": "ApprovalForAll",
      "type": "event"
    },
    {
      "anonymous": false,
      "inputs": [
        {
          "indexed": false,
          "name": "contractName",
          "type": "string"
        },
        {
          "indexed": false,
          "name": "migrationId",
          "type": "string"
        }
      ],
      "name": "Migrated",
      "type": "event"
    },
    {
      "constant": false,
      "inputs": [
        {
          "name": "_name",
          "type": "string"
        },
        {
          "name": "_symbol",
          "type": "string"
        }
      ],
      "name": "initialize",
      "outputs": [],
      "payable": false,
      "stateMutability": "nonpayable",
      "type": "function"
    },
    {
      "constant": false,
      "inputs": [
        {
          "name": "cr",
          "type": "address"
        }
      ],
      "name": "initialize",
      "outputs": [],
      "payable": false,
      "stateMutability": "nonpayable",
      "type": "function"
    },
    {
      "constant": false,
      "inputs": [
        {
          "name": "name",
          "type": "string"
        },
        {
          "name": "ipfsHash",
          "type": "string"
        },
        {
          "name": "toErc721",
          "type": "address"
        },
        {
          "name": "toTokenId",
          "type": "uint256"
        }
      ],
      "name": "createSkill",
      "outputs": [],
      "payable": false,
      "stateMutability": "nonpayable",
      "type": "function"
    },
    {
      "constant": true,
      "inputs": [
        {
          "name": "tokenId",
          "type": "uint256"
        }
      ],
      "name": "getSkillName",
      "outputs": [
        {
          "name": "",
          "type": "string"
        }
      ],
      "payable": false,
      "stateMutability": "view",
      "type": "function"
    },
    {
      "constant": true,
      "inputs": [
        {
          "name": "tokenId",
          "type": "uint256"
        }
      ],
      "name": "getIpfsHash",
      "outputs": [
        {
          "name": "",
          "type": "string"
        }
      ],
      "payable": false,
      "stateMutability": "view",
      "type": "function"
    },
    {
      "constant": true,
      "inputs": [
        {
          "name": "ipfsHash",
          "type": "string"
        }
      ],
      "name": "getSkillOwners",
      "outputs": [
        {
          "name": "",
          "type": "uint256[]"
        }
      ],
      "payable": false,
      "stateMutability": "view",
      "type": "function"
    }
  ],
  "bytecode": "0x608060405234801561001057600080fd5b50612fd3806100206000396000f300608060405260043610610133576000357c0100000000000000000000000000000000000000000000000000000000900463ffffffff16806306fdde0314610138578063081812fc146101c8578063095ea7b31461023557806318160ddd1461028257806323b872dd146102ad5780632f745c591461031a57806335595c951461037b57806342842e0e146104215780634cd88b761461048e5780634f558e791461053d5780634f6ccce7146105825780636352211e146105c357806370a082311461063057806395d89b4114610687578063a22cb46514610717578063b88d4fde14610766578063c0bac1a814610819578063c409b4f5146108e0578063c4d66de81461099e578063c87b56dd146109e1578063d450fbc914610a87578063e5c365a714610b2d578063e985e9c514610c06575b600080fd5b34801561014457600080fd5b5061014d610c81565b6040518080602001828103825283818151815260200191508051906020019080838360005b8381101561018d578082015181840152602081019050610172565b50505050905090810190601f1680156101ba5780820380516001836020036101000a031916815260200191505b509250505060405180910390f35b3480156101d457600080fd5b506101f360048036038101908080359060200190929190505050610d23565b604051808273ffffffffffffffffffffffffffffffffffffffff1673ffffffffffffffffffffffffffffffffffffffff16815260200191505060405180910390f35b34801561024157600080fd5b50610280600480360381019080803573ffffffffffffffffffffffffffffffffffffffff16906020019092919080359060200190929190505050610d60565b005b34801561028e57600080fd5b50610297610f26565b6040518082815260200191505060405180910390f35b3480156102b957600080fd5b50610318600480360381019080803573ffffffffffffffffffffffffffffffffffffffff169060200190929190803573ffffffffffffffffffffffffffffffffffffffff16906020019092919080359060200190929190505050610f33565b005b34801561032657600080fd5b50610365600480360381019080803573ffffffffffffffffffffffffffffffffffffffff16906020019092919080359060200190929190505050611042565b6040518082815260200191505060405180910390f35b34801561038757600080fd5b506103a6600480360381019080803590602001909291905050506110b9565b6040518080602001828103825283818151815260200191508051906020019080838360005b838110156103e65780820151818401526020810190506103cb565b50505050905090810190601f1680156104135780820380516001836020036101000a031916815260200191505b509250505060405180910390f35b34801561042d57600080fd5b5061048c600480360381019080803573ffffffffffffffffffffffffffffffffffffffff169060200190929190803573ffffffffffffffffffffffffffffffffffffffff16906020019092919080359060200190929190505050611182565b005b34801561049a57600080fd5b5061053b600480360381019080803590602001908201803590602001908080601f0160208091040260200160405190810160405280939291908181526020018383808284378201915050505050509192919290803590602001908201803590602001908080601f01602080910402602001604051908101604052809392919081815260200183838082843782019150505050505091929192905050506111b2565b005b34801561054957600080fd5b506105686004803603810190808035906020019092919050505061145e565b604051808215151515815260200191505060405180910390f35b34801561058e57600080fd5b506105ad600480360381019080803590602001909291905050506114d0565b6040518082815260200191505060405180910390f35b3480156105cf57600080fd5b506105ee60048036038101908080359060200190929190505050611508565b604051808273ffffffffffffffffffffffffffffffffffffffff1673ffffffffffffffffffffffffffffffffffffffff16815260200191505060405180910390f35b34801561063c57600080fd5b50610671600480360381019080803573ffffffffffffffffffffffffffffffffffffffff169060200190929190505050611586565b6040518082815260200191505060405180910390f35b34801561069357600080fd5b5061069c61160a565b6040518080602001828103825283818151815260200191508051906020019080838360005b838110156106dc5780820151818401526020810190506106c1565b50505050905090810190601f1680156107095780820380516001836020036101000a031916815260200191505b509250505060405180910390f35b34801561072357600080fd5b50610764600480360381019080803573ffffffffffffffffffffffffffffffffffffffff1690602001909291908035151590602001909291905050506116ac565b005b34801561077257600080fd5b50610817600480360381019080803573ffffffffffffffffffffffffffffffffffffffff169060200190929190803573ffffffffffffffffffffffffffffffffffffffff16906020019092919080359060200190929190803590602001908201803590602001908080601f01602080910402602001604051908101604052809392919081815260200183838082843782019150505050505091929192905050506117e8565b005b34801561082557600080fd5b506108c6600480360381019080803590602001908201803590602001908080601f0160208091040260200160405190810160405280939291908181526020018383808284378201915050505050509192919290803590602001908201803590602001908080601f016020809104026020016040519081016040528093929190818152602001838380828437820191505050505050919291929050505061181f565b604051808215151515815260200191505060405180910390f35b3480156108ec57600080fd5b50610947600480360381019080803590602001908201803590602001908080601f016020809104026020016040519081016040528093929190818152602001838380828437820191505050505050919291929050505061190a565b6040518080602001828103825283818151815260200191508051906020019060200280838360005b8381101561098a57808201518184015260208101905061096f565b505050509050019250505060405180910390f35b3480156109aa57600080fd5b506109df600480360381019080803573ffffffffffffffffffffffffffffffffffffffff169060200190929190505050611a51565b005b3480156109ed57600080fd5b50610a0c60048036038101908080359060200190929190505050611d83565b6040518080602001828103825283818151815260200191508051906020019080838360005b83811015610a4c578082015181840152602081019050610a31565b50505050905090810190601f168015610a795780820380516001836020036101000a031916815260200191505b509250505060405180910390f35b348015610a9357600080fd5b50610ab260048036038101908080359060200190929190505050611e4c565b6040518080602001828103825283818151815260200191508051906020019080838360005b83811015610af2578082015181840152602081019050610ad7565b50505050905090810190601f168015610b1f5780820380516001836020036101000a031916815260200191505b509250505060405180910390f35b348015610b3957600080fd5b50610c04600480360381019080803590602001908201803590602001908080601f0160208091040260200160405190810160405280939291908181526020018383808284378201915050505050509192919290803590602001908201803590602001908080601f0160208091040260200160405190810160405280939291908181526020018383808284378201915050505050509192919290803573ffffffffffffffffffffffffffffffffffffffff16906020019092919080359060200190929190505050611f15565b005b348015610c1257600080fd5b50610c67600480360381019080803573ffffffffffffffffffffffffffffffffffffffff169060200190929190803573ffffffffffffffffffffffffffffffffffffffff1690602001909291905050506122ba565b604051808215151515815260200191505060405180910390f35b606060058054600181600116156101000203166002900480601f016020809104026020016040519081016040528092919081815260200182805460018160011615610100020316600290048015610d195780601f10610cee57610100808354040283529160200191610d19565b820191906000526020600020905b815481529060010190602001808311610cfc57829003601f168201915b5050505050905090565b60006002600083815260200190815260200160002060009054906101000a900473ffffffffffffffffffffffffffffffffffffffff169050919050565b6000610d6b82611508565b90508073ffffffffffffffffffffffffffffffffffffffff168373ffffffffffffffffffffffffffffffffffffffff1614151515610da857600080fd5b8073ffffffffffffffffffffffffffffffffffffffff163373ffffffffffffffffffffffffffffffffffffffff161480610de85750610de781336122ba565b5b1515610df357600080fd5b600073ffffffffffffffffffffffffffffffffffffffff16610e1483610d23565b73ffffffffffffffffffffffffffffffffffffffff16141580610e645750600073ffffffffffffffffffffffffffffffffffffffff168373ffffffffffffffffffffffffffffffffffffffff1614155b15610f2157826002600084815260200190815260200160002060006101000a81548173ffffffffffffffffffffffffffffffffffffffff021916908373ffffffffffffffffffffffffffffffffffffffff1602179055508273ffffffffffffffffffffffffffffffffffffffff168173ffffffffffffffffffffffffffffffffffffffff167f8c5be1e5ebec7d5bd14f71427d1e84f3dd0314c0f7b2291e5b200ac8c7c3b925846040518082815260200191505060405180910390a35b505050565b6000600980549050905090565b8060001515610f4157600080fd5b600073ffffffffffffffffffffffffffffffffffffffff168473ffffffffffffffffffffffffffffffffffffffff1614151515610f7d57600080fd5b600073ffffffffffffffffffffffffffffffffffffffff168373ffffffffffffffffffffffffffffffffffffffff1614151515610fb957600080fd5b610fc3848361234e565b610fcd84836124b7565b610fd783836126cf565b8273ffffffffffffffffffffffffffffffffffffffff168473ffffffffffffffffffffffffffffffffffffffff167fddf252ad1be2c89b69c2b068fc378daa952ba7f163c4a11628f55a4df523b3ef846040518082815260200191505060405180910390a350505050565b600061104d83611586565b8210151561105a57600080fd5b600760008473ffffffffffffffffffffffffffffffffffffffff1673ffffffffffffffffffffffffffffffffffffffff168152602001908152602001600020828154811015156110a657fe5b9060005260206000200154905092915050565b60606110c48261145e565b15156110cf57600080fd5b600e60008381526020019081526020016000208054600181600116156101000203166002900480601f0160208091040260200160405190810160405280929190818152602001828054600181600116156101000203166002900480156111765780601f1061114b57610100808354040283529160200191611176565b820191906000526020600020905b81548152906001019060200180831161115957829003601f168201915b50505050509050919050565b806000151561119057600080fd5b6111ac84848460206040519081016040528060008152506117e8565b50505050565b6040805190810160405280600b81526020017f455243373231546f6b656e0000000000000000000000000000000000000000008152506040805190810160405280600581526020017f312e392e30000000000000000000000000000000000000000000000000000000815250611228828261181f565b15151561123457600080fd5b836005908051906020019061124a929190612ed6565b508260069080519060200190611261929190612ed6565b507fdd117a11c22118c9dee4b5a67ce578bc44529dce21ee0ccc439588fbb9fb4ea38282604051808060200180602001838103835285818151815260200191508051906020019080838360005b838110156112c95780820151818401526020810190506112ae565b50505050905090810190601f1680156112f65780820380516001836020036101000a031916815260200191505b50838103825284818151815260200191508051906020019080838360005b8381101561132f578082015181840152602081019050611314565b50505050905090810190601f16801561135c5780820380516001836020036101000a031916815260200191505b5094505050505060405180910390a160016000836040518082805190602001908083835b6020831015156113a55780518252602082019150602081019050602083039250611380565b6001836020036101000a0380198251168184511680821785525050505050509050019150509081526020016040518091039020826040518082805190602001908083835b60208310151561140e57805182526020820191506020810190506020830392506113e9565b6001836020036101000a038019825116818451168082178552505050505050905001915050908152602001604051809103902060006101000a81548160ff02191690831515021790555050505050565b6000806001600084815260200190815260200160002060009054906101000a900473ffffffffffffffffffffffffffffffffffffffff169050600073ffffffffffffffffffffffffffffffffffffffff168173ffffffffffffffffffffffffffffffffffffffff161415915050919050565b60006114da610f26565b821015156114e757600080fd5b6009828154811015156114f657fe5b90600052602060002001549050919050565b6000806001600084815260200190815260200160002060009054906101000a900473ffffffffffffffffffffffffffffffffffffffff169050600073ffffffffffffffffffffffffffffffffffffffff168173ffffffffffffffffffffffffffffffffffffffff161415151561157d57600080fd5b80915050919050565b60008073ffffffffffffffffffffffffffffffffffffffff168273ffffffffffffffffffffffffffffffffffffffff16141515156115c357600080fd5b600360008373ffffffffffffffffffffffffffffffffffffffff1673ffffffffffffffffffffffffffffffffffffffff168152602001908152602001600020549050919050565b606060068054600181600116156101000203166002900480601f0160208091040260200160405190810160405280929190818152602001828054600181600116156101000203166002900480156116a25780601f10611677576101008083540402835291602001916116a2565b820191906000526020600020905b81548152906001019060200180831161168557829003601f168201915b5050505050905090565b3373ffffffffffffffffffffffffffffffffffffffff168273ffffffffffffffffffffffffffffffffffffffff16141515156116e757600080fd5b80600460003373ffffffffffffffffffffffffffffffffffffffff1673ffffffffffffffffffffffffffffffffffffffff16815260200190815260200160002060008473ffffffffffffffffffffffffffffffffffffffff1673ffffffffffffffffffffffffffffffffffffffff16815260200190815260200160002060006101000a81548160ff0219169083151502179055508173ffffffffffffffffffffffffffffffffffffffff163373ffffffffffffffffffffffffffffffffffffffff167f17307eab39ab6107e8899845ad3d59bd9653f200f220920489ca2b5937696c3183604051808215151515815260200191505060405180910390a35050565b81600015156117f657600080fd5b611801858585610f33565b61180d858585856127a6565b151561181857600080fd5b5050505050565b600080836040518082805190602001908083835b6020831015156118585780518252602082019150602081019050602083039250611833565b6001836020036101000a0380198251168184511680821785525050505050509050019150509081526020016040518091039020826040518082805190602001908083835b6020831015156118c1578051825260208201915060208101905060208303925061189c565b6001836020036101000a038019825116818451168082178552505050505050905001915050908152602001604051809103902060009054906101000a900460ff16905092915050565b6060600d826040518082805190602001908083835b602083101515611944578051825260208201915060208101905060208303925061191f565b6001836020036101000a038019825116818451168082178552505050505050905001915050908152602001604051809103902060009054906101000a900460ff16151561199057600080fd5b6011826040518082805190602001908083835b6020831015156119c857805182526020820191506020810190506020830392506119a3565b6001836020036101000a0380198251168184511680821785525050505050509050019150509081526020016040518091039020805480602002602001604051908101604052809291908181526020018280548015611a4557602002820191906000526020600020905b815481526020019060010190808311611a31575b50505050509050919050565b6040805190810160405280600781526020017f546f6b656e6558000000000000000000000000000000000000000000000000008152506040805190810160405280600181526020017f3000000000000000000000000000000000000000000000000000000000000000815250611ac7828261181f565b151515611ad357600080fd5b611b476040805190810160405280600781526020017f536b696c6c6558000000000000000000000000000000000000000000000000008152506040805190810160405280600481526020017f534b4c58000000000000000000000000000000000000000000000000000000008152506111b2565b82600c60006101000a81548173ffffffffffffffffffffffffffffffffffffffff021916908373ffffffffffffffffffffffffffffffffffffffff1602179055507fdd117a11c22118c9dee4b5a67ce578bc44529dce21ee0ccc439588fbb9fb4ea38282604051808060200180602001838103835285818151815260200191508051906020019080838360005b83811015611bef578082015181840152602081019050611bd4565b50505050905090810190601f168015611c1c5780820380516001836020036101000a031916815260200191505b50838103825284818151815260200191508051906020019080838360005b83811015611c55578082015181840152602081019050611c3a565b50505050905090810190601f168015611c825780820380516001836020036101000a031916815260200191505b5094505050505060405180910390a160016000836040518082805190602001908083835b602083101515611ccb5780518252602082019150602081019050602083039250611ca6565b6001836020036101000a0380198251168184511680821785525050505050509050019150509081526020016040518091039020826040518082805190602001908083835b602083101515611d345780518252602082019150602081019050602083039250611d0f565b6001836020036101000a038019825116818451168082178552505050505050905001915050908152602001604051809103902060006101000a81548160ff021916908315150217905550505050565b6060611d8e8261145e565b1515611d9957600080fd5b600b60008381526020019081526020016000208054600181600116156101000203166002900480601f016020809104026020016040519081016040528092919081815260200182805460018160011615610100020316600290048015611e405780601f10611e1557610100808354040283529160200191611e40565b820191906000526020600020905b815481529060010190602001808311611e2357829003601f168201915b50505050509050919050565b6060611e578261145e565b1515611e6257600080fd5b600f60008381526020019081526020016000208054600181600116156101000203166002900480601f016020809104026020016040519081016040528092919081815260200182805460018160011615610100020316600290048015611f095780601f10611ede57610100808354040283529160200191611f09565b820191906000526020600020905b815481529060010190602001808311611eec57829003601f168201915b50505050509050919050565b6000600d846040518082805190602001908083835b602083101515611f4f5780518252602082019150602081019050602083039250611f2a565b6001836020036101000a038019825116818451168082178552505050505050905001915050908152602001604051809103902060009054906101000a900460ff16151515611f9c57600080fd5b6001600980549050019050611fd3600c60009054906101000a900473ffffffffffffffffffffffffffffffffffffffff1682612994565b6001600d856040518082805190602001908083835b60208310151561200d5780518252602082019150602081019050602083039250611fe8565b6001836020036101000a038019825116818451168082178552505050505050905001915050908152602001604051809103902060006101000a81548160ff02191690831515021790555084600e6000838152602001908152602001600020908051906020019061207e929190612ed6565b5083600f600083815260200190815260200160002090805190602001906120a6929190612ed6565b506011846040518082805190602001908083835b6020831015156120df57805182526020820191506020810190506020830392506120ba565b6001836020036101000a0380198251168184511680821785525050505050509050019150509081526020016040518091039020819080600181540180825580915050906001820390600052602060002001600090919290919091505550600c60009054906101000a900473ffffffffffffffffffffffffffffffffffffffff1673ffffffffffffffffffffffffffffffffffffffff1663f0b9e5ba308361218687876129eb565b6040518463ffffffff167c0100000000000000000000000000000000000000000000000000000000028152600401808473ffffffffffffffffffffffffffffffffffffffff1673ffffffffffffffffffffffffffffffffffffffff16815260200183815260200180602001828103825283818151815260200191508051906020019080838360005b8381101561222957808201518184015260208101905061220e565b50505050905090810190601f1680156122565780820380516001836020036101000a031916815260200191505b50945050505050602060405180830381600087803b15801561227757600080fd5b505af115801561228b573d6000803e3d6000fd5b505050506040513d60208110156122a157600080fd5b8101908080519060200190929190505050505050505050565b6000600460008473ffffffffffffffffffffffffffffffffffffffff1673ffffffffffffffffffffffffffffffffffffffff16815260200190815260200160002060008373ffffffffffffffffffffffffffffffffffffffff1673ffffffffffffffffffffffffffffffffffffffff16815260200190815260200160002060009054906101000a900460ff16905092915050565b8173ffffffffffffffffffffffffffffffffffffffff1661236e82611508565b73ffffffffffffffffffffffffffffffffffffffff1614151561239057600080fd5b600073ffffffffffffffffffffffffffffffffffffffff166002600083815260200190815260200160002060009054906101000a900473ffffffffffffffffffffffffffffffffffffffff1673ffffffffffffffffffffffffffffffffffffffff161415156124b35760006002600083815260200190815260200160002060006101000a81548173ffffffffffffffffffffffffffffffffffffffff021916908373ffffffffffffffffffffffffffffffffffffffff160217905550600073ffffffffffffffffffffffffffffffffffffffff168273ffffffffffffffffffffffffffffffffffffffff167f8c5be1e5ebec7d5bd14f71427d1e84f3dd0314c0f7b2291e5b200ac8c7c3b925836040518082815260200191505060405180910390a35b5050565b60008060006124c68585612b55565b600860008581526020019081526020016000205492506125326001600760008873ffffffffffffffffffffffffffffffffffffffff1673ffffffffffffffffffffffffffffffffffffffff16815260200190815260200160002080549050612c8490919063ffffffff16565b9150600760008673ffffffffffffffffffffffffffffffffffffffff1673ffffffffffffffffffffffffffffffffffffffff1681526020019081526020016000208281548110151561258057fe5b9060005260206000200154905080600760008773ffffffffffffffffffffffffffffffffffffffff1673ffffffffffffffffffffffffffffffffffffffff168152602001908152602001600020848154811015156125da57fe5b90600052602060002001819055506000600760008773ffffffffffffffffffffffffffffffffffffffff1673ffffffffffffffffffffffffffffffffffffffff1681526020019081526020016000208381548110151561263657fe5b9060005260206000200181905550600760008673ffffffffffffffffffffffffffffffffffffffff1673ffffffffffffffffffffffffffffffffffffffff1681526020019081526020016000208054809190600190036126969190612f56565b50600060086000868152602001908152602001600020819055508260086000838152602001908152602001600020819055505050505050565b60006126db8383612c9d565b600760008473ffffffffffffffffffffffffffffffffffffffff1673ffffffffffffffffffffffffffffffffffffffff168152602001908152602001600020805490509050600760008473ffffffffffffffffffffffffffffffffffffffff1673ffffffffffffffffffffffffffffffffffffffff168152602001908152602001600020829080600181540180825580915050906001820390600052602060002001600090919290919091505550806008600084815260200190815260200160002081905550505050565b6000806127c88573ffffffffffffffffffffffffffffffffffffffff16612df7565b15156127d7576001915061298b565b8473ffffffffffffffffffffffffffffffffffffffff1663f0b9e5ba8786866040518463ffffffff167c0100000000000000000000000000000000000000000000000000000000028152600401808473ffffffffffffffffffffffffffffffffffffffff1673ffffffffffffffffffffffffffffffffffffffff16815260200183815260200180602001828103825283818151815260200191508051906020019080838360005b8381101561289957808201518184015260208101905061287e565b50505050905090810190601f1680156128c65780820380516001836020036101000a031916815260200191505b50945050505050602060405180830381600087803b1580156128e757600080fd5b505af11580156128fb573d6000803e3d6000fd5b505050506040513d602081101561291157600080fd5b8101908080519060200190929190505050905063f0b9e5ba7c0100000000000000000000000000000000000000000000000000000000027bffffffffffffffffffffffffffffffffffffffffffffffffffffffff1916817bffffffffffffffffffffffffffffffffffffffffffffffffffffffff19161491505b50949350505050565b61299e8282612e0a565b600980549050600a60008381526020019081526020016000208190555060098190806001815401808255809150509060018203906000526020600020016000909192909190915055505050565b6060600080606060008673ffffffffffffffffffffffffffffffffffffffff166001029350856001029250604080519080825280601f01601f191660200182016040528015612a495781602001602082028038833980820191505090505b509150600090505b6020811015612b48578381602081101515612a6857fe5b1a7f0100000000000000000000000000000000000000000000000000000000000000028282815181101515612a9957fe5b9060200101907effffffffffffffffffffffffffffffffffffffffffffffffffffffffffffff1916908160001a9053508281602081101515612ad757fe5b1a7f0100000000000000000000000000000000000000000000000000000000000000028260208301815181101515612b0b57fe5b9060200101907effffffffffffffffffffffffffffffffffffffffffffffffffffffffffffff1916908160001a9053508080600101915050612a51565b8194505050505092915050565b8173ffffffffffffffffffffffffffffffffffffffff16612b7582611508565b73ffffffffffffffffffffffffffffffffffffffff16141515612b9757600080fd5b612bea6001600360008573ffffffffffffffffffffffffffffffffffffffff1673ffffffffffffffffffffffffffffffffffffffff16815260200190815260200160002054612c8490919063ffffffff16565b600360008473ffffffffffffffffffffffffffffffffffffffff1673ffffffffffffffffffffffffffffffffffffffff1681526020019081526020016000208190555060006001600083815260200190815260200160002060006101000a81548173ffffffffffffffffffffffffffffffffffffffff021916908373ffffffffffffffffffffffffffffffffffffffff1602179055505050565b6000828211151515612c9257fe5b818303905092915050565b600073ffffffffffffffffffffffffffffffffffffffff166001600083815260200190815260200160002060009054906101000a900473ffffffffffffffffffffffffffffffffffffffff1673ffffffffffffffffffffffffffffffffffffffff16141515612d0b57600080fd5b816001600083815260200190815260200160002060006101000a81548173ffffffffffffffffffffffffffffffffffffffff021916908373ffffffffffffffffffffffffffffffffffffffff160217905550612db06001600360008573ffffffffffffffffffffffffffffffffffffffff1673ffffffffffffffffffffffffffffffffffffffff16815260200190815260200160002054612eba90919063ffffffff16565b600360008473ffffffffffffffffffffffffffffffffffffffff1673ffffffffffffffffffffffffffffffffffffffff168152602001908152602001600020819055505050565b600080823b905060008111915050919050565b600073ffffffffffffffffffffffffffffffffffffffff168273ffffffffffffffffffffffffffffffffffffffff1614151515612e4657600080fd5b612e5082826126cf565b8173ffffffffffffffffffffffffffffffffffffffff16600073ffffffffffffffffffffffffffffffffffffffff167fddf252ad1be2c89b69c2b068fc378daa952ba7f163c4a11628f55a4df523b3ef836040518082815260200191505060405180910390a35050565b60008183019050828110151515612ecd57fe5b80905092915050565b828054600181600116156101000203166002900490600052602060002090601f016020900481019282601f10612f1757805160ff1916838001178555612f45565b82800160010185558215612f45579182015b82811115612f44578251825591602001919060010190612f29565b5b509050612f529190612f82565b5090565b815481835581811115612f7d57818360005260206000209182019101612f7c9190612f82565b5b505050565b612fa491905b80821115612fa0576000816000905550600101612f88565b5090565b905600a165627a7a7230582050f723becbd29307b6927687fec93864381b4a4d3c76d435b817d27e86cf9b100029",
  "source": "pragma solidity ^0.4.23;\n\nimport \"./ERC721ComposableRegistry.sol\";\nimport \"openzeppelin-zos/contracts/token/ERC721/ERC721Token.sol\";\nimport \"openzeppelin-zos/contracts/ownership/Ownable.sol\";\n\ncontract TokeneX is ERC721Token {\n\n    ERC721ComposableRegistry internal composableRegistry;\n\n    mapping(string => bool) private ipfsHashExists;\n    mapping(uint => string) internal tokenIdToName;\n    mapping(uint => string) internal tokenIdToIpfsHash;\n    mapping(uint => uint) internal tokenIdToGeneration;\n    mapping(string => uint[]) internal ipfsHashToTokenIds;\n\n    function initialize(address cr) isInitializer(\"TokeneX\", \"0\") public {\n        ERC721Token.initialize(\"SkilleX\", \"SKLX\");\n        composableRegistry = ERC721ComposableRegistry(cr);\n    }\n\n    function createSkill(string name, string ipfsHash, address toErc721, uint toTokenId) public {\n        require(!ipfsHashExists[ipfsHash]);\n        uint tokenId = allTokens.length + 1;\n        _mint(composableRegistry, tokenId);\n        ipfsHashExists[ipfsHash] = true;\n        tokenIdToName[tokenId] = name;\n        tokenIdToIpfsHash[tokenId] = ipfsHash;\n        ipfsHashToTokenIds[ipfsHash].push(tokenId);\n        composableRegistry.onERC721Received(this, tokenId, addressAndUintToBytes(toErc721, toTokenId));\n    }\n\n    function copySkill(uint originalId, address toErc721, uint toTokenId) internal {\n        uint tokenId = allTokens.length + 1;\n        _mint(composableRegistry, tokenId);\n        tokenIdToName[tokenId] = tokenIdToName[originalId];\n        tokenIdToIpfsHash[tokenId] = tokenIdToIpfsHash[originalId];\n        tokenIdToGeneration[tokenId] = tokenIdToGeneration[originalId] + 1;\n        ipfsHashToTokenIds[tokenIdToIpfsHash[tokenId]].push(tokenId);\n        composableRegistry.onERC721Received(this, tokenId, addressAndUintToBytes(toErc721, toTokenId));\n    }\n\n    function addressAndUintToBytes(address erc721, uint tokenId) private pure returns (bytes) {\n        bytes32 bytesErc721 = bytes32(erc721);\n        bytes32 bytesTokenId = bytes32(tokenId);\n        bytes memory ret = new bytes(64);\n        for (uint i = 0; i < 32; i++) {\n            ret[i] = bytesErc721[i];\n            ret[i + 32] = bytesTokenId[i];\n        }\n        return ret;\n    }\n\n    function getSkillName(uint tokenId) public view returns (string) {\n        require(exists(tokenId));\n        return tokenIdToName[tokenId];\n    }\n\n    function getIpfsHash(uint tokenId) public view returns (string) {\n        require(exists(tokenId));\n        return tokenIdToIpfsHash[tokenId];\n    }\n\n    modifier canTransfer(uint256 _tokenId) {\n        require(false);\n        _;\n    }\n\n    function getSkillOwners(string ipfsHash) public view returns (uint[]) {\n        require(ipfsHashExists[ipfsHash]);\n        return ipfsHashToTokenIds[ipfsHash];\n    }\n}\n\ncontract MarketeX is TokeneX {\n\n    event OfferCreated(\n        uint offerId,\n        uint skillId,\n        uint price,\n        address teacherErc721,\n        uint teacherTokenId,\n        string skillName,\n        uint generation\n    );\n\n    event OfferDeleted(\n        uint offerId\n    );\n\n    struct Offer {\n        bool valid;\n        ERC721 teacherErc721;\n        uint teacherId;\n        uint skillId;\n        uint price;\n    }\n\n    Offer[] offers;\n\n    function initialize(address cr) isInitializer(\"MarketeX\", \"0\") public {\n        TokeneX.initialize(cr);\n    }\n\n    function offerTeach(uint skillId, uint price) public {\n        address owner = composableRegistry.ownerOf(this, skillId);\n        require(owner == msg.sender);\n        ERC721 erc721;\n        uint tokenId;\n        (erc721, tokenId) = composableRegistry.parentOf(this, skillId);\n        uint offerIdPlusOne = offers.push(Offer(true, erc721, tokenId, skillId, price));\n        emit OfferCreated(offerIdPlusOne - 1, skillId, price, erc721, tokenId, tokenIdToName[skillId], tokenIdToGeneration[skillId]);\n    }\n\n    function cancel(uint offerId) public {\n        Offer memory offer = offers[offerId];\n        require(offer.valid);\n        require(composableRegistry.ownerOf(offer.teacherErc721, offer.teacherId) == msg.sender);\n        delete offers[offerId];\n        emit OfferDeleted(offerId);\n    }\n\n    function learn(uint offerId, ERC721 toErc721, uint toTokenId) public payable {\n        Offer memory offer = offers[offerId];\n        require(offer.valid);\n        require(msg.value >= offer.price);\n        require(!hasSkill(toErc721, toTokenId, getIpfsHash(offer.skillId)));\n        copySkill(offers[offerId].skillId, toErc721, toTokenId);\n        address teacherOwner = composableRegistry.ownerOf(offer.teacherErc721, offer.teacherId);\n        teacherOwner.transfer(offer.price * 94 / 100);\n        msg.sender.transfer(msg.value - offer.price);\n    }\n\n    function hasSkill(ERC721 erc721, uint tokenId, string ipfsHash) public view returns (bool) {\n        bytes32 hash = keccak256(ipfsHash);\n        ERC721[] memory erc721s;\n        uint[] memory tokenIds;\n        (erc721s, tokenIds) = composableRegistry.children(erc721, tokenId);\n        for (uint i = 0; i < erc721s.length; i++) {\n            if (erc721s[i] == this && keccak256(getIpfsHash(tokenIds[i])) == hash) {\n                return true;\n            }\n        }\n        return false;\n    }\n}\n\ncontract WithdraweX is Ownable {\n\n    function initialize(address owner) isInitializer(\"WithdraweX\", \"0\") public {\n        Ownable.initialize(owner);\n    }\n\n    function withdrawEther() public onlyOwner {\n        msg.sender.transfer(address(this).balance);\n    }\n}\n\ncontract SkilleX is MarketeX, WithdraweX {\n\n    function initialize(address cr, address owner) isInitializer(\"SkilleX\", \"0\") public {\n        MarketeX.initialize(cr);\n        WithdraweX.initialize(owner);\n    }\n}\n",
  "sourcePath": "/home/kghost0/workspace/skills/contracts/Skillex.sol",
  "compiler": {
    "name": "solc",
    "version": "0.4.24+commit.e67f0147.Emscripten.clang"
  },
  "schemaVersion": "2.0.0",
  "updatedAt": "2018-05-27T10:30:34.807Z"
}