{
  "contractName": "WithdraweX",
  "abi": [
    {
      "constant": true,
      "inputs": [],
      "name": "owner",
      "outputs": [
        {
          "name": "",
          "type": "address"
        }
      ],
      "payable": false,
      "stateMutability": "view",
      "type": "function"
    },
    {
      "constant": true,
      "inputs": [
        {
          "name": "contractName",
          "type": "string"
        },
        {
          "name": "migrationId",
          "type": "string"
        }
      ],
      "name": "isMigrated",
      "outputs": [
        {
          "name": "",
          "type": "bool"
        }
      ],
      "payable": false,
      "stateMutability": "view",
      "type": "function"
    },
    {
      "constant": false,
      "inputs": [
        {
          "name": "newOwner",
          "type": "address"
        }
      ],
      "name": "transferOwnership",
      "outputs": [],
      "payable": false,
      "stateMutability": "nonpayable",
      "type": "function"
    },
    {
      "anonymous": false,
      "inputs": [
        {
          "indexed": true,
          "name": "previousOwner",
          "type": "address"
        },
        {
          "indexed": true,
          "name": "newOwner",
          "type": "address"
        }
      ],
      "name": "OwnershipTransferred",
      "type": "event"
    },
    {
      "anonymous": false,
      "inputs": [
        {
          "indexed": false,
          "name": "contractName",
          "type": "string"
        },
        {
          "indexed": false,
          "name": "migrationId",
          "type": "string"
        }
      ],
      "name": "Migrated",
      "type": "event"
    },
    {
      "constant": false,
      "inputs": [
        {
          "name": "owner",
          "type": "address"
        }
      ],
      "name": "initialize",
      "outputs": [],
      "payable": false,
      "stateMutability": "nonpayable",
      "type": "function"
    },
    {
      "constant": false,
      "inputs": [],
      "name": "withdrawEther",
      "outputs": [],
      "payable": false,
      "stateMutability": "nonpayable",
      "type": "function"
    }
  ],
  "bytecode": "0x608060405234801561001057600080fd5b50610ac2806100206000396000f30060806040526004361061006d576000357c0100000000000000000000000000000000000000000000000000000000900463ffffffff1680637362377b146100725780638da5cb5b14610089578063c0bac1a8146100e0578063c4d66de8146101a7578063f2fde38b146101ea575b600080fd5b34801561007e57600080fd5b5061008761022d565b005b34801561009557600080fd5b5061009e6102e9565b604051808273ffffffffffffffffffffffffffffffffffffffff1673ffffffffffffffffffffffffffffffffffffffff16815260200191505060405180910390f35b3480156100ec57600080fd5b5061018d600480360381019080803590602001908201803590602001908080601f0160208091040260200160405190810160405280939291908181526020018383808284378201915050505050509192919290803590602001908201803590602001908080601f016020809104026020016040519081016040528093929190818152602001838380828437820191505050505050919291929050505061030f565b604051808215151515815260200191505060405180910390f35b3480156101b357600080fd5b506101e8600480360381019080803573ffffffffffffffffffffffffffffffffffffffff1690602001909291905050506103fa565b005b3480156101f657600080fd5b5061022b600480360381019080803573ffffffffffffffffffffffffffffffffffffffff169060200190929190505050610680565b005b600160009054906101000a900473ffffffffffffffffffffffffffffffffffffffff1673ffffffffffffffffffffffffffffffffffffffff163373ffffffffffffffffffffffffffffffffffffffff1614151561028957600080fd5b3373ffffffffffffffffffffffffffffffffffffffff166108fc3073ffffffffffffffffffffffffffffffffffffffff16319081150290604051600060405180830381858888f193505050501580156102e6573d6000803e3d6000fd5b50565b600160009054906101000a900473ffffffffffffffffffffffffffffffffffffffff1681565b600080836040518082805190602001908083835b6020831015156103485780518252602082019150602081019050602083039250610323565b6001836020036101000a0380198251168184511680821785525050505050509050019150509081526020016040518091039020826040518082805190602001908083835b6020831015156103b1578051825260208201915060208101905060208303925061038c565b6001836020036101000a038019825116818451168082178552505050505050905001915050908152602001604051809103902060009054906101000a900460ff16905092915050565b6040805190810160405280600a81526020017f57697468647261776558000000000000000000000000000000000000000000008152506040805190810160405280600181526020017f3000000000000000000000000000000000000000000000000000000000000000815250610470828261030f565b15151561047c57600080fd5b610485836107d8565b7fdd117a11c22118c9dee4b5a67ce578bc44529dce21ee0ccc439588fbb9fb4ea38282604051808060200180602001838103835285818151815260200191508051906020019080838360005b838110156104ec5780820151818401526020810190506104d1565b50505050905090810190601f1680156105195780820380516001836020036101000a031916815260200191505b50838103825284818151815260200191508051906020019080838360005b83811015610552578082015181840152602081019050610537565b50505050905090810190601f16801561057f5780820380516001836020036101000a031916815260200191505b5094505050505060405180910390a160016000836040518082805190602001908083835b6020831015156105c857805182526020820191506020810190506020830392506105a3565b6001836020036101000a0380198251168184511680821785525050505050509050019150509081526020016040518091039020826040518082805190602001908083835b602083101515610631578051825260208201915060208101905060208303925061060c565b6001836020036101000a038019825116818451168082178552505050505050905001915050908152602001604051809103902060006101000a81548160ff021916908315150217905550505050565b600160009054906101000a900473ffffffffffffffffffffffffffffffffffffffff1673ffffffffffffffffffffffffffffffffffffffff163373ffffffffffffffffffffffffffffffffffffffff161415156106dc57600080fd5b600073ffffffffffffffffffffffffffffffffffffffff168173ffffffffffffffffffffffffffffffffffffffff161415151561071857600080fd5b8073ffffffffffffffffffffffffffffffffffffffff16600160009054906101000a900473ffffffffffffffffffffffffffffffffffffffff1673ffffffffffffffffffffffffffffffffffffffff167f8be0079c531659141344cd1fd0a4f28419497f9722a3daafe3b4186f6b6457e060405160405180910390a380600160006101000a81548173ffffffffffffffffffffffffffffffffffffffff021916908373ffffffffffffffffffffffffffffffffffffffff16021790555050565b6040805190810160405280600781526020017f4f776e61626c65000000000000000000000000000000000000000000000000008152506040805190810160405280600581526020017f312e392e3000000000000000000000000000000000000000000000000000000081525061084e828261030f565b15151561085a57600080fd5b82600160006101000a81548173ffffffffffffffffffffffffffffffffffffffff021916908373ffffffffffffffffffffffffffffffffffffffff1602179055507fdd117a11c22118c9dee4b5a67ce578bc44529dce21ee0ccc439588fbb9fb4ea38282604051808060200180602001838103835285818151815260200191508051906020019080838360005b838110156109025780820151818401526020810190506108e7565b50505050905090810190601f16801561092f5780820380516001836020036101000a031916815260200191505b50838103825284818151815260200191508051906020019080838360005b8381101561096857808201518184015260208101905061094d565b50505050905090810190601f1680156109955780820380516001836020036101000a031916815260200191505b5094505050505060405180910390a160016000836040518082805190602001908083835b6020831015156109de57805182526020820191506020810190506020830392506109b9565b6001836020036101000a0380198251168184511680821785525050505050509050019150509081526020016040518091039020826040518082805190602001908083835b602083101515610a475780518252602082019150602081019050602083039250610a22565b6001836020036101000a038019825116818451168082178552505050505050905001915050908152602001604051809103902060006101000a81548160ff0219169083151502179055505050505600a165627a7a72305820194c59444863f0bba6d88ec2175ddb73e66dcf7b2fb151ad29167885a2d46f5e0029",
  "source": "pragma solidity ^0.4.23;\n\nimport \"./ERC721ComposableRegistry.sol\";\nimport \"openzeppelin-zos/contracts/token/ERC721/ERC721Token.sol\";\nimport \"openzeppelin-zos/contracts/ownership/Ownable.sol\";\n\ncontract TokeneX is ERC721Token {\n\n    ERC721ComposableRegistry internal composableRegistry;\n\n    mapping(string => bool) private ipfsHashExists;\n    mapping(uint => string) internal tokenIdToName;\n    mapping(uint => string) internal tokenIdToIpfsHash;\n    mapping(uint => uint) internal tokenIdToGeneration;\n    mapping(string => uint[]) internal ipfsHashToTokenIds;\n\n    function initialize(address cr) isInitializer(\"TokeneX\", \"0\") public {\n        ERC721Token.initialize(\"SkilleX\", \"SKLX\");\n        composableRegistry = ERC721ComposableRegistry(cr);\n    }\n\n    function createSkill(string name, string ipfsHash, address toErc721, uint toTokenId) public {\n        require(!ipfsHashExists[ipfsHash]);\n        uint tokenId = allTokens.length + 1;\n        _mint(composableRegistry, tokenId);\n        ipfsHashExists[ipfsHash] = true;\n        tokenIdToName[tokenId] = name;\n        tokenIdToIpfsHash[tokenId] = ipfsHash;\n        ipfsHashToTokenIds[ipfsHash].push(tokenId);\n        composableRegistry.onERC721Received(this, tokenId, addressAndUintToBytes(toErc721, toTokenId));\n    }\n\n    function copySkill(uint originalId, address toErc721, uint toTokenId) internal {\n        uint tokenId = allTokens.length + 1;\n        _mint(composableRegistry, tokenId);\n        tokenIdToName[tokenId] = tokenIdToName[originalId];\n        tokenIdToIpfsHash[tokenId] = tokenIdToIpfsHash[originalId];\n        tokenIdToGeneration[tokenId] = tokenIdToGeneration[originalId] + 1;\n        ipfsHashToTokenIds[tokenIdToIpfsHash[tokenId]].push(tokenId);\n        composableRegistry.onERC721Received(this, tokenId, addressAndUintToBytes(toErc721, toTokenId));\n    }\n\n    function addressAndUintToBytes(address erc721, uint tokenId) private pure returns (bytes) {\n        bytes32 bytesErc721 = bytes32(erc721);\n        bytes32 bytesTokenId = bytes32(tokenId);\n        bytes memory ret = new bytes(64);\n        for (uint i = 0; i < 32; i++) {\n            ret[i] = bytesErc721[i];\n            ret[i + 32] = bytesTokenId[i];\n        }\n        return ret;\n    }\n\n    function getSkillName(uint tokenId) public view returns (string) {\n        require(exists(tokenId));\n        return tokenIdToName[tokenId];\n    }\n\n    function getIpfsHash(uint tokenId) public view returns (string) {\n        require(exists(tokenId));\n        return tokenIdToIpfsHash[tokenId];\n    }\n\n    modifier canTransfer(uint256 _tokenId) {\n        require(false);\n        _;\n    }\n\n    function getSkillOwners(string ipfsHash) public view returns (uint[]) {\n        require(ipfsHashExists[ipfsHash]);\n        return ipfsHashToTokenIds[ipfsHash];\n    }\n}\n\ncontract MarketeX is TokeneX {\n\n    event OfferCreated(\n        uint offerId,\n        uint skillId,\n        uint price,\n        address teacherErc721,\n        uint teacherTokenId,\n        string skillName,\n        uint generation\n    );\n\n    event OfferDeleted(\n        uint offerId\n    );\n\n    struct Offer {\n        bool valid;\n        ERC721 teacherErc721;\n        uint teacherId;\n        uint skillId;\n        uint price;\n    }\n\n    Offer[] offers;\n\n    function initialize(address cr) isInitializer(\"MarketeX\", \"0\") public {\n        TokeneX.initialize(cr);\n    }\n\n    function offerTeach(uint skillId, uint price) public {\n        address owner = composableRegistry.ownerOf(this, skillId);\n        require(owner == msg.sender);\n        ERC721 erc721;\n        uint tokenId;\n        (erc721, tokenId) = composableRegistry.parentOf(this, skillId);\n        uint offerIdPlusOne = offers.push(Offer(true, erc721, tokenId, skillId, price));\n        emit OfferCreated(offerIdPlusOne - 1, skillId, price, erc721, tokenId, tokenIdToName[skillId], tokenIdToGeneration[skillId]);\n    }\n\n    function cancel(uint offerId) public {\n        Offer memory offer = offers[offerId];\n        require(offer.valid);\n        require(composableRegistry.ownerOf(offer.teacherErc721, offer.teacherId) == msg.sender);\n        delete offers[offerId];\n        emit OfferDeleted(offerId);\n    }\n\n    function learn(uint offerId, ERC721 toErc721, uint toTokenId) public payable {\n        Offer memory offer = offers[offerId];\n        require(offer.valid);\n        require(msg.value >= offer.price);\n        require(!hasSkill(toErc721, toTokenId, getIpfsHash(offer.skillId)));\n        copySkill(offers[offerId].skillId, toErc721, toTokenId);\n        address teacherOwner = composableRegistry.ownerOf(offer.teacherErc721, offer.teacherId);\n        teacherOwner.transfer(offer.price * 94 / 100);\n        msg.sender.transfer(msg.value - offer.price);\n    }\n\n    function hasSkill(ERC721 erc721, uint tokenId, string ipfsHash) public view returns (bool) {\n        bytes32 hash = keccak256(ipfsHash);\n        ERC721[] memory erc721s;\n        uint[] memory tokenIds;\n        (erc721s, tokenIds) = composableRegistry.children(erc721, tokenId);\n        for (uint i = 0; i < erc721s.length; i++) {\n            if (erc721s[i] == this && keccak256(getIpfsHash(tokenIds[i])) == hash) {\n                return true;\n            }\n        }\n        return false;\n    }\n}\n\ncontract WithdraweX is Ownable {\n\n    function initialize(address owner) isInitializer(\"WithdraweX\", \"0\") public {\n        Ownable.initialize(owner);\n    }\n\n    function withdrawEther() public onlyOwner {\n        msg.sender.transfer(address(this).balance);\n    }\n}\n\ncontract SkilleX is MarketeX, WithdraweX {\n\n    function initialize(address cr, address owner) isInitializer(\"SkilleX\", \"0\") public {\n        MarketeX.initialize(cr);\n        WithdraweX.initialize(owner);\n    }\n}\n",
  "sourcePath": "/home/kghost0/workspace/skills/contracts/Skillex.sol",
  "compiler": {
    "name": "solc",
    "version": "0.4.24+commit.e67f0147.Emscripten.clang"
  },
  "schemaVersion": "2.0.0",
  "updatedAt": "2018-05-27T10:30:34.800Z"
}